:020000040800F2
:1000000068CB012031030008911E0008291B00085D
:10001000551D000805090008713D0008000000009A
:100020000000000000000000000000004303000882
:10003000B50E000800000000B9020008C53A00082B
:100040004B0300084B0300084B0300084B03000858
:100050004B0300084B0300084B0300084B03000848
:100060004B0300084B0300084B0300084B03000838
:100070004B0300084B0300084B0300084B03000828
:100080004B0300084B0300084B0300084B03000818
:100090004B0300084B0300084B0300084B03000808
:1000A0004B0300084B0300084B0300084B030008F8
:1000B0004B030008453B00084B0300084B030008B6
:1000C0004B0300084B0300084B0300084B030008D8
:1000D0004B0300087D3B00084B0300084B0300085E
:1000E0004B0300084B0300084B0300084B030008B8
:1000F0004B0300084B0300084B0300084B030008A8
:100100004B0300084B0300084B0300084B03000897
:100110004B0300084B0300084B0300084B03000887
:100120004B0300084B0300084B0300084B03000877
:100130004B0300089D1000084B0300084B03000808
:100140004B0300084B0300084B0300084B03000857
:100150004B0300084B0300084B0300084B03000847
:100160004B0300084B0300084B0300084B03000837
:100170004B0300084B030008FD0900084B0300086F
:100180004B0300084B03000800F002F800F05DF894
:100190000AA090E8000C82448344AAF10107DA45E2
:1001A00001D100F052F8AFF2090EBAE80F0013F0D7
:1001B000010F18BFFB1A43F0010318474422010046
:1001C000642201000A4410F8014B14F00F0508BF27
:1001D00010F8015B240908BF10F8014B6D1E05D013
:1001E00010F8013B6D1E01F8013BF9D1641E03D0EC
:1001F000641E01F8015BFBD19142E4D3704700001B
:100200000023002400250026103A28BF78C1FBD81F
:10021000520728BF30C148BF0B607047642900F007
:100220002D81732900F0EF82002070471FB511F077
:1002300003FE00F05BFA04000020002111F0E6FD4F
:10024000401C60601FBD10B510BD00F02DFB1146B5
:10025000FFF7ECFF09F04AFE00F04BFB03B4FFF799
:10026000F2FF03BC03F085FDEFF3108072B6704718
:1002700080F310887047264C4FF6FF7525604FF0CD
:10028000000484F30988234C4FF001052570224CAB
:100290004FF08055256062B6FEE730B41E4C4FF03B
:1002A0008055256030BC704730B41B4C4FF08055F2
:1002B000256030BC704700BF72B6EFF3098050B1C3
:1002C0001EF0100F08BF20ED108A203880E8F00FD4
:1002D00012490968086000B5114880475DF804EBD1
:1002E000104811490A7802700C4810490A680260E7
:1002F000106890E8F00F20301EF0100F08BFB0EC2F
:10030000108A80F309884EF0040E62B6704700BF71
:1003100022ED00E0EF00002004ED00E008010020E5
:10032000D52C0008EC000020ED000020100100207A
:100330000948804709480047FEE7FEE7FEE7FEE779
:10034000FEE7FEE7FEE7FEE7FEE7FEE704480549B5
:10035000034A054B70470000E53A00088901000890
:1003600068C7012068CB012068C7012070470000E2
:1003700010B500F0BBF9001D10BD00BF911A0100BF
:100380000FB4044910B503AA029800F041FA10BC5A
:100390005DF814FB740100200FB41CB5074B06AACE
:1003A0007B4469460090059800F003FA00206946F6
:1003B00000F012FA1CBC5DF814FB000035040000CC
:1003C0002DE9F0410E460446002020622046E168F7
:1003D000884730B3252805D0D4E901219047206A09
:1003E000401CF2E7E168204600278847050018D046
:1003F000A5F14100192802D820354FF40067324694
:10040000294620462760FFF709FF40B1012804D0A4
:10041000F61D26F007060836D8E7361DD6E728462B
:10042000DAE7206ABDE8F08170B50C460546012A7E
:1004300005D02878800600D5EA69002302E0012370
:1004400005E05B1C934202D2E05C0028F9D1A86968
:10045000E618C01AA861286A184428622846AFF333
:10046000008004E0D5E9012114F8010B9047B44263
:10047000F8D32846AFF3008070BD00002DE9F041AD
:100480000646002410687529314616A510D0AFF332
:100490000080002802DA404213A507E031688A078D
:1004A00001D512A502E0490704D511A5012401E0F8
:1004B000AFF3008000210A2206F1240709E0B0FB17
:1004C000F2FCB0FBF2F302FB1C003030785418460B
:1004D000491C0028F3D123462A463046BDE8F041A6
:1004E00000F008B9000000002D0000002B00000003
:1004F0002000000040EA010310B59B070FD1042A39
:100500000DD310C808C9121F9C42F8D020BA19BADE
:10051000884201D9012010BD4FF0FF3010BD1AB143
:10052000D30703D0521C07E0002010BD10F8013B98
:1005300011F8014B1B1B07D110F8013B11F8014BBF
:100540001B1B01D1921EF1D1184610BD10B5431CE2
:1005500002E010F8011B71B18107FAD14FF00132AE
:1005600002C88C1A8C4314EAC211F9D0C01A0A06C8
:1005700003D0C01E10BDC01A10BD0A0401D0801ED9
:1005800010BD0902FCD0401E10BD032A40F230808D
:1005900010F0030C00F0158011F8013BBCF1020FC4
:1005A000624498BF11F801CB00F8013B38BF11F845
:1005B000013BA2F1040298BF00F801CB38BF00F85C
:1005C000013B11F0030300F03581083AC0F00880C8
:1005D00051F8043B083A51F804CBA0E80810F5E7BD
:1005E000121D5CBF51F8043B40F8043BAFF30080A0
:1005F000D20724BF11F8013B11F801CB48BF11F815
:10060000012B24BF00F8013B00F801CB48BF00F8E4
:10061000012B70474FF0000200B5134694469646F2
:10062000203922BFA0E80C50A0E80C50B1F1200105
:10063000BFF4F7AF090728BFA0E80C5048BF0CC0B3
:100640005DF804EB890028BF40F8042B08BF704711
:1006500048BF20F8022B11F0804F18BF00F8012B83
:10066000704700004FF0013C50F8042B51F8043B58
:100670009A4221D1A2EB0C03934313EACC1317D176
:1006800050F8042B51F8043B9A4215D1A2EB0C030D
:10069000934313EACC130BD150F8042B51F8043BCD
:1006A0009A4209D1A2EB0C03934313EACC13DBD09B
:1006B0004FF00000704700BFD01A01BAB1FA81F1C3
:1006C00001F0180122FA01F0CB40C1F12001DBB2A8
:1006D000C0B2C01A2CFA01F3D11A914311EAC31126
:1006E000E6D17047704770477047704700487047C1
:1006F00024C701202DE9F0470D469946924604464D
:1007000000F124080168880604D5E06921F0100191
:10071000216000E00120A84201DD471B00E0002726
:10072000A1697A1902EB0900081AA0612078C006B5
:1007300002D42046AFF30080002608E0D4E901216E
:100740001AF806009047206A401C761C20624E452D
:10075000F4DB2078C0060AD52046AFF3008006E01F
:10076000D4E9012130209047206A401C2062381EC5
:10077000A7F10107F4DC07E0D4E9012118F805002E
:100780009047206A401C2062281EA5F10105F3DC79
:100790002046AFF300802078000602D50220BDE895
:1007A000F0870120FBE7000001694A1C026108781C
:1007B000704700B58FB0CDE90131002105910549A1
:1007C0007944CDE9031011466846FFF7F9FD0FB0F3
:1007D00000BD0000E5FFFFFF0A6802F8010B0A6098
:1007E000704710B5436913B1AFF3008001E0FFF724
:1007F0001BFE012010BD127800F124010A700022B6
:100800004A700122EDE711684FF0FF32E9E700007E
:10081000074B70B50D467B44FFF7CBFF04462846D7
:1008200000F03EF810B14FF0FF3070BD204670BDB3
:10083000E36F000010B5203AC0F00B80B1E818500B
:10084000203AA0E81850B1E81850A0E81850BFF4BA
:10085000F5AF5FEA027C24BFB1E81850A0E8185059
:1008600044BF18C918C0BDE810405FEA827C24BFAD
:1008700051F8043B40F8043B08BF7047D20728BF3B
:1008800031F8023B48BF11F8012B28BF20F8023B8A
:1008900048BF00F8012B70470048704704C701208B
:1008A000007B00F0800070477546FFF7F5FFAE460D
:1008B00005006946534620F00700854618B020B56C
:1008C000FFF744FDBDE820404FF000064FF0000761
:1008D0004FF000084FF0000B21F00701AC46ACE8E8
:1008E000C009ACE8C009ACE8C009ACE8C0098D4655
:1008F000704710B50446AFF300802046BDE81040B5
:10090000FFF7ACBCFEE700000649002804D00868E9
:1009100040F0010008607047086820F0010008609E
:100920007047000000000550014948617047000011
:10093000000005500649002804D0086840F48040B3
:1009400008607047086820F4804008607047000025
:10095000000005502DE9F04190B00646169C154662
:100960001F460121880502F07DFEDFF854804046D5
:1009700000F090F9404600F051FA0028FAD14FF00B
:10098000007001900F480290039600200490059596
:10099000069007944FF480510891099709110A9124
:1009A00049020B9104210C9103210D910E900F909F
:1009B00001A9404600F03EFA10B0BDE8F081000009
:1009C0002864024028000550054800210160C160EC
:1009D0001F2242618161C161016241627047000072
:1009E0000000055001460020034A12691140002909
:1009F00000D00120704700000000055010B5012014
:100A0000FFF7F0FF01280FD108F0D6F90120FFF71A
:100A10008BFF0749D1F8A80238B10020C1F8A8021D
:100A200004480178491C017010BD0120F6E7000060
:100A30000080424244010020064A002903D0D168C8
:100A40000843D0607047D168C04380B20840D0608E
:100A5000704700000000055010B413490A6822F0E6
:100A6000010222F480420A600A6822F4F97222F438
:100A700060620388B0F802C0C48843EA0C03B0F88F
:100A800004C04CEA040C43EA0C03B0F808C043EA83
:100A90000C03B0F80AC0808943EA0C0318431043E2
:100AA000086010BC704700000000055010B501211F
:100AB000034800F0E3F8BDE810400120FFF724BF31
:100AC0002864024010B50020FFF71EFF05480168AA
:100AD00011F0010FFBD1BDE810400021024800F0E9
:100AE000CDB80000000005502864024070B5002415
:100AF0001448016821F44021016001680160124D31
:100B000004E0601CC4B2012003F0A4FAD5F824026A
:100B100008B1642CF5D3642C01D3012070BD0024EE
:100B200004E0601CC4B2012003F094FAD5F824025A
:100B300008B9642CF5D3642C01D3012070BD0020CA
:100B400070BD0000001802400000434200B583B0B1
:100B50000121402002F086FD4FF40070009001203A
:100B60008DF8040000218DF8061002218DF8051083
:100B70008DF807006946044800F078FF00F062F83D
:100B8000FFF7B4FF03B000BD0018024070B50024A9
:100B9000104D04E0601CC4B2012003F05BFAD5F8EC
:100BA000240208B1642CF5D3002404E0601CC4B214
:100BB000012003F04FFAD5F8240208B9642CF5D3CC
:100BC000282003F047FAD5F8240208B1012070BDAF
:100BD000002070BD0000434270B500200024400694
:100BE000050EFFF7D3FF2843611CCCB2082CF6D3C7
:100BF00070BDF0B583B006460F4600F023F8FFF74E
:100C000075FF10B103B00120F0BD002401ADFFF766
:100C1000E3FF2855601CC4B2052CF8D39DF80410DE
:100C20009DF805009DF807300A189DF8060003445A
:100C30001A449DF808309A4201D13970307003B0DF
:100C40000020F0BD10B50B48016821F4402101607F
:100C5000016841F480210160074C002020601420CD
:100C600003F0CEF901202060BDE810401E2003F003
:100C7000F1B9000000180240A4024342002904D048
:100C8000016841F0010101607047016821F0010134
:100C9000016070472DE9F003016821F00101016056
:100CA0000021016041608160C160016121214161D9
:100CB000444A45494FF03D08904204D1C1F80880AC
:100CC000BDE8F0037047414A4FF47464904203D189
:100CD0008C60BDE8F00370473D4A4FF474159042B4
:100CE00003D18D60BDE8F00370473A4A4FF0746657
:100CF000904203D18E60BDE8F0037047364B374A0F
:100D0000984203D1CA60BDE8F0037047DFF8D0C055
:100D1000344B604503D1CB60BDE8F0037047324FE0
:100D2000DFF8C8C0B84204D1C1F80CC0BDE8F00378
:100D30007047DFF8BC904FF03D57484503D1CF6076
:100D4000BDE8F0037047DFF8AC902B49484504D16B
:100D5000C1F80080BDE8F0037047DFF8A08040458F
:100D600003D10C60BDE8F0037047254CA04203D1CD
:100D70000D60BDE8F0037047224CA04203D10E6025
:100D8000BDE8F0037047204C2049A04203D10A601F
:100D9000BDE8F00370471E4A904203D10B60BDE8E6
:100DA000F00370471B4A904204D1C1F800C0BDE86F
:100DB000F0037047184A9042F9D10F60BDE8F00384
:100DC000704700001060024000600240286002404E
:100DD0004060024058600240706002403D000020C8
:100DE00088600240400F0020A060024000003D20CB
:100DF000B860024010640240086402402864024067
:100E00004064024058640240706402400C64024036
:100E100088640240A0640240B86402400146002099
:100E2000096811F0010F00D001207047406880B2BE
:100E30007047000010B402681C4B1A40D1F80CC077
:100E40000B688C6943EA0C03D1F814C04CEA040C1B
:100E500043EA0C03D1F81CC043EA0C03D1F820C0CC
:100E600043EA0C03D1F824C043EA0C03D1F828C0AC
:100E700043EA0C03D1F834C043EA0C03D1F838C07C
:100E800043EA0C031A430260426922F00702D1F8D8
:100E900030C0CB6A43EA0C031A4342610A694260DC
:100EA0004A6882608968C16010BC70473F801CF04E
:100EB00041607047704708B53D208DF80000002064
:100EC0008DF801008DF8020001208DF803006846BE
:100ED00000F0E0FF08BD00000149486170470000D4
:100EE00000900240054A002903D0D1690843D0612F
:100EF0007047D16921EA0000D0617047009002403C
:100F00000649002804D0886940F0020088617047D3
:100F1000886920F00200886170470000009002405C
:100F20002DE9F0010023154E7060002A1ED94FF004
:100F3000004744F2F458551E00EB431CCCF80070F7
:100F4000CCF80480C3EBC31404EB440401EB840429
:100F5000CCF80840AB4204D20CF12004CCF80C4091
:100F600001E0CCF80C005B1C9342E5D30449C86057
:100F70000448B060BDE8F00170470000880100201F
:100F800000900240F8C601200649002804D0886974
:100F900040F4005088617047886920F400508861EF
:100FA000704700000090024070B40023DFF848C092
:100FB000CCF80000002A1AD94FF48015561E00EB19
:100FC000431CCCF80050C3EBC31404EB440401EB06
:100FD0008404CCF80840B34204D20CF12004CCF8CD
:100FE0000C4001E0CCF80C005B1C9342E7D30349B2
:100FF000086170BC7047000088010020009002402A
:10100000026811430160704710B50121480602F0E3
:1010100037FBBDE8104000214FF0007002F030BBFC
:1010200001B481B00198009002E00098401E009049
:1010300000980028F9D102B0704700000248816989
:1010400041F48011816170470090024001480068BE
:1010500080687047880100200068C0F30D40704729
:1010600000B50021026812F0004F0AD1026812F4A4
:10107000004F06D1026812F4807F02D0FFF7ECFF28
:101080000146084600BD000000200349096811F030
:10109000010F00D0012070470090024010B50A4CAB
:1010A0002068FFF7DDFF30B108F0BCFA2068FFF7D9
:1010B000D7FF0028F8D14020FFF70EFFBDE8104011
:1010C0004FF48030FFF708BF8C0100202DE9F0417C
:1010D00088B004468846002706970197914E3069EC
:1010E00020F01C0502A802F0F5FA03988E498F4AF9
:1010F0000144914202D245F0080516E08C498D4A20
:101100000144914202D245F00C050EE08A498B4A17
:101110000144914209D38A4908448A49884202D24B
:1011200045F0040501E045F0100535614FF400423B
:101130000021404600F0C6FA88B18348FFF770FFEF
:10114000206800284FD0814D0198401C019001215A
:10115000404600F0B9F910F0040F04D006E008B0E2
:101160000020BDE8F0810198A842EDD30198A84283
:1011700003D108B00020BDE8F08101974FF4805200
:101180000021404600F09EFA18B908B00020BDE8E2
:10119000F0810198401C01900121404600F094F933
:1011A00010F0200F02D10198A842F2D30198A84272
:1011B00003D108B00020BDE8F08101971F2140460F
:1011C00000F082F910F0100F03D04FF4006121629B
:1011D00000E0276210F0040F01D0676115E04FF4C2
:1011E0008040606111E0206A6169C0F3CF00C1F303
:1011F0004F0140EA01020021404600F063FA002856
:101200007DD06FF07F40FFF70BFF306850490840FA
:10121000A268616823691143E2681A431143626955
:101220001143A2691143E2691143226A1143626AC0
:101230001143A26A1143E26A1143226B1143626BAC
:10124000114308433060E16BA06B626C0843216C72
:1012500011430843A16C0843E16C0843216D084326
:10126000616D08437060A06DB060E06DF060B069C2
:101270004FF641710840A26E616EB4F860301143C0
:10128000E26E42EA03421143226F1143626F11433F
:101290000843B061E16FA06F0843F0612D48816998
:1012A0002D4A1140D4F88430D4F88020D4F88CC072
:1012B0001A43D4F8883043EA0C031A43D4F8903028
:1012C0001A43D4F894301A43D4F898301A43D4F817
:1012D0009C301A43D4F8A0301A4311438161D4F8EA
:1012E000A820D4F8A410D4F8B0301143D4F8AC201E
:1012F0001A431143D4F8B42041EA820100E00DE022
:10130000D4F8B820114341F400010160016841F0B4
:101310008001016008B00120BDE8F08108B0002024
:10132000BDE8F0810080024000D3CEFEC0E1E400C1
:1013300040F1E9FD40787D0100796CFC005A6202C1
:10134000001F0AFA80F0FA02FFFF0F00FFFF0400FF
:101350000F8120FF00900240233FDEF80A794B798D
:1013600042EA032200F1804000F5203002640A784E
:10137000CB7842EA03628B7849781B0443EA012167
:10138000114341647047000010B5B0B001214FF027
:10139000606002F067F9FFF737FE00F009F9FFF728
:1013A00073FE0128FBD001A800F01BF90120019079
:1013B000002008904FF400710B910C900F90129048
:1013C0001490159016902190090422910A112492EC
:1013D00026902790042029902A9180032B90800149
:1013E0002C9040122D9040002F90002101A8FFF773
:1013F0006DFEC4B2012C03D101210348FFF772FD39
:1014000030B0204610BD0000400001000649002811
:1014100004D0086840F0040008607047086820F0B5
:101420000400086070470000008002400649002860
:1014300004D0086840F0080008607047086820F091
:1014400008000860704700000080024010B5094C99
:101450000020216809F03CFA0020616809F038FAA0
:101460000020A16809F034FAE168BDE810400020CE
:1014700009F02EBA3401002010B5A021002009F097
:1014800033FA104C2060A021002009F02DFA606092
:1014900041F6C451002009F027FAA06041F6C4517A
:1014A000002009F021FAE060216831B1616821B1C2
:1014B000A16811B108B1002010BDFFF7C7FF0120DE
:1014C00010BD00003401002081B000220092144AB7
:1014D000136903F01C034FF4784C0CEAC020184346
:1014E0004FF4F86303EA8111084320F0020040F052
:1014F000010010610B490098401C0090106910F029
:10150000010F02D000988842F5D30098884202D19A
:10151000002001B07047506901B080B270470000F0
:1015200000800240FFFF040010B483B000230022BB
:10153000009201920292DFF870C0DCF800100C6893
:1015400014F0004F10D019494B6913F0800F02D0EE
:1015500080234B618A60029B019A009983604260FC
:10156000016003B010BC70470A6812F4004F0DD13F
:101570000A6812F4807F09D00A6812F4007F05D04F
:101580000A68C2F30D42131F8A6801920093029108
:10159000C968CCF80010029B019A009983604260F0
:1015A000016003B010BC70478C0100200090024025
:1015B0000248016841F0010101607047009002405B
:1015C00000B50120FFF732FFFFF738FD0120FFF7DC
:1015D0001DFF0120FFF7D8FC01205DF804EBFFF7A9
:1015E0008FBC01210160002141608160C160016107
:1015F0004FF4804242618161C161D2100262416256
:101600008162C162016341638163C16340220264FC
:10161000202242648164C164016541658165C165C0
:101620000166802242668166C16601674167816703
:10163000C167D204C0F880205210C0F88420C0F8DE
:1016400088101311C0F88C30C0F89010C0F89410B6
:10165000C0F89810C0F89C10C0F8A010C0F8A420E2
:101660005212C0F8A8209201C0F8AC205212C0F863
:10167000B020C0F8B410C0F8B81070470F4A116815
:101680000B6813F0004F01D000207047C0F30C002E
:101690004860086840F040500860086840F000402A
:1016A00008600748436913F0040F03D00423436123
:1016B00000234360C8681060012070478801002043
:1016C0000090024018B400230093154BD3F810C0CB
:1016D0000CF01C0C4FF4784404EAC02040EA0C00E3
:1016E0004FF4F86C0CEA8111084340F0020040F01E
:1016F00001005A6118610B490098401C009018695C
:1017000010F0010F02D000988842F5D3009888426B
:1017100002D118BC0020704718BC0120704700009F
:1017200000800240FFFF04008000A0F1C0400029BB
:1017300004D0016841F00101016070470168024A6C
:101740001140016070470000FEFF0F008268416891
:1017500003691143C2681A43114342691143826904
:101760001143C2691143026A1143426A1143826AFA
:101770001143C26A1143026B114302689200A2F145
:10178000C04211608168082907D101688900A1F170
:10179000C0410A6842F040020A60416B4B680A6827
:1017A000B1F80CC042EA03128B681B0243EA0C43F7
:1017B0001A430B8A42EA03520B7D896942EA0362AB
:1017C00011430268521C9200A2F1C0421160C16A2A
:1017D000B1F5804F08D000686FF070418000A0F133
:1017E000C040C0F804117047816B00684B680A68FC
:1017F000B1F810C042EA03128B681B0243EA0C5393
:101800001A430B7D896942EA036211438000A0F10B
:10181000C040C0F8041170472DE9F04198B0012193
:10182000782001F01FFF4FF63370169002208DF8DC
:101830005C0003208DF85D0000248DF85E400120DF
:101840008DF85F00854D16A9284600F00FF94FF678
:1018500083711691824E16A9304600F007F94FF2B7
:101860003F0116917F4F16A9384600F0FFF840F26D
:101870003F411691DFF8F08116A9404600F0F6F8D6
:101880000C220021284600F03CF90C2201212846B8
:1018900000F037F90C220421284600F032F90C221E
:1018A0000521284600F02DF90C220821284600F0D9
:1018B00028F90C220921284600F023F90C220A21DC
:1018C000284600F01EF90C220B21284600F019F9D9
:1018D0000C221146284600F014F90C220D2128464E
:1018E00000F00FF90C220E21284600F00AF90C2214
:1018F0000F21284600F005F90C220021304600F0A7
:1019000000F90C220121304600F0FBF80C220721DF
:10191000304600F0F6F80C220821304600F0F1F8CD
:101920000C220921304600F0ECF80C220A21304646
:1019300000F0E7F80C220B21304600F0E2F80C2210
:101940001146304600F0DDF80C220D21304600F043
:10195000D8F80C220E21304600F0D3F80C220F21CB
:10196000304600F0CEF80C220021384600F0C9F8CD
:101970000C220121384600F0C4F80C22022138461E
:1019800000F0BFF80C220321384600F0BAF80C2210
:101990000421384600F0B5F80C220521384600F045
:1019A000B0F80C221146384600F0ABF80C220D219D
:1019B000384600F0A6F80C220E21384600F0A1F8B7
:1019C0000C220F21384600F09CF80C2200214046E2
:1019D00000F097F80C220121404600F092F80C220A
:1019E0000221404600F08DF80C220321404600F011
:1019F00088F80C220421404600F083F80C220521CF
:101A0000404600F07EF80C220A21404600F079F8AA
:101A10000094019409200290039404940594069480
:101A2000042007900894099410200A900B940C94B9
:101A30000D940E940F94000210901194129413942C
:101A40006846CDF850D0159007A8FFF77FFE01211A
:101A50000420FFF769FE18B0BDE8F081000C0240D9
:101A60000010024000140240001802402DE9F0016D
:101A700000220126032706FA02FC0B6803EA0C0386
:101A8000634538D10568530007FA03F4A5430560A0
:101A90000D79D0F800809D4045EA080505600D7974
:101AA000012D01D0022D17D18568A54385604D79A0
:101AB000D0F808809D4045EA08058560456825EA1C
:101AC0000C0CC0F804C0D0F804C08D799540ADB2BC
:101AD0004CEA050CC0F804C0D0F80CC02CEA040C89
:101AE000C0F80CC091F807C00CFA03F3D0F80CC092
:101AF00043EA0C03C360521C102ABCD3BDE8F001BA
:101B000070474B07DB0E9A40C90800EB8100016A61
:101B10004FF00F0C0CFA03F399430162016A114371
:101B20000162704701837047FEE7000010B582B084
:101B30000121112001F096FD1C20009000208DF85D
:101B4000040001248DF8074069460648FFF78EFF20
:101B5000009402208DF8070069460348FFF786FFCE
:101B600002B010BD001002400000024070B501211B
:101B7000214D002800D029702878204E204C60B1DB
:101B8000D4F8100270B1D4F80C0258B1D4F808029D
:101B900040B1D6F80002012804D0D4F81002012880
:101BA0001BD026E00A2002F02BFA00202870D4F87F
:101BB000100250B1D4F80C0248B1D4F8080240B178
:101BC000D6F80002012806D013E0012070BD0220E3
:101BD00070BD032070BD042070BDD4F80C02012834
:101BE00007D1D4F80802012803D1D6F8000200B9C1
:101BF0002970002070BD000030010020000040422C
:101C00000000424270B582B001214D2001F02AFD52
:101C10000121880301F050FD012001F0DFFE862044
:101C2000009003258DF8055002208DF80400002453
:101C30008DF806408DF80740304E69463046FFF774
:101C400015FF0B2201213046FFF75BFF0B2202211B
:101C50003046FFF756FF0B2207213046FFF751FFB2
:101C600032200090264E69463046FFF7FFFE0B22D9
:101C700001213046FFF745FF0B2204213046FFF7D4
:101C800040FF0B2205213046FFF73BFF4FF4D040C9
:101C900000901C4E69463046FFF7E8FE0B221146C5
:101CA0003046FFF72EFF0B220D213046FFF729FFAC
:101CB0000B220E213046FFF724FF082000908DF8FC
:101CC000055001258DF804508DF806408DF8074029
:101CD00069460D48FFF7CAFE0C4E3460322002F010
:101CE0008FF93560FFF7E7F8FFF74EFB10B102B050
:101CF000002070BD02B0012070BD00000000024055
:101D00000008024000180240000C02408C82414250
:101D100010B582B00121202001F0A4FC4FF4C06076
:101D2000009001208DF8040000208DF806008DF849
:101D3000070003208DF80500054C69462046FFF793
:101D400095FE4FF4C0612046FFF7ECFE02B010BDD7
:101D500000140240FEE700002DE9F04784B00121A5
:101D6000172001F07FFC0121084601F097FC50206C
:101D7000029002208DF80C0000248DF80E400326FE
:101D80008DF80D6001258DF80F503C4F02A93846A3
:101D9000FFF76CFEC0210291DFF8E48002A9404603
:101DA000FFF764FE4FF43C610291DFF8D89002A97E
:101DB0004846FFF75BFE60210291DFF8CCA002A944
:101DC0005046FFF753FE0D2204213846FFF799FED7
:101DD0000D2206213846FFF794FE0D2207214046CA
:101DE000FFF78FFE0D2206214846FFF78AFE0D22DF
:101DF00007214846FFF785FE0D2208214846FFF7D8
:101E000080FE0D2209214846FFF77BFE0D220B21A3
:101E10004846FFF776FE0D2206214046FFF771FE89
:101E20000D2205215046FFF76CFE0D22062150467B
:101E3000FFF767FEFEF7C8FD1448048044818481E3
:101E40000481202181804480C480FEF705FE0121A9
:101E50000846FEF7F1FD0120FEF76CFD4E208DF8DF
:101E600004008DF805508DF806608DF8075001A824
:101E700000F010F804B0BDE8F08700000000024058
:101E8000000402400008024000100240201D002013
:101E90007047000010B44FF00F0CC2780124017895
:101EA000002A23D0174A126802F4E062C2F5E06209
:101EB000C2F30722C2F104032CFA02FC42789A40D2
:101EC000837803EA0C031A43120101F1E02181F83F
:101ED0000024007800F01F0104FA01F1400980009D
:101EE00000F1E020C0F8001110BC704701F01F00A5
:101EF00004FA00F04909890001F1E021C1F88001EC
:101F000010BC70470CED00E0034940F0FD7040F05C
:101F100080600860704700000CED00E070B5054679
:101F20000E4614460D488078002802D012202070FA
:101F300070BD2B78012B08D0022B06D0032B04D0C8
:101F4000042B02D00120207070BDFEF78DF96E6168
:101F5000FEF78EF90020207070BD0000E800002020
:101F600010B500F016F801F077F801F085F801F0EF
:101F700095F801F043F801F007F801F021F901F0BC
:101F800047F901F0C3F801F0E9F8BDE8104000F0AE
:101F900001B87047704700000449C879012804D18E
:101FA0008878FF2801D2401C88707047E800002024
:101FB00070B5134CE079012821D1FEF755F905469B
:101FC000A17809B1481EA070A07898B9E07888B9C6
:101FD00001F064F90B48627950F82210A16220796F
:101FE000824207D0886B401C8863E068401CE06038
:101FF000FEF75AF92846BDE87040FEF739B970BDC2
:10200000E8000020F01600202DE9F04106460F46BA
:102010001E480078002802D00020BDE8F081FEF7BD
:1020200023F9DFF86C80D8F8004014B16168C8F873
:102030000010FEF71DF934B3FEF716F901461548F6
:102040000568BDB12A6802600846FEF711F96E60A6
:1020500006EB8700A860EE602E61AF820020E88268
:1020600002212170208165600BA06061204600F094
:1020700081FF08E0D8F800006060C8F8004008461A
:10208000FEF7F6F800242046BDE8F081EA000020C3
:10209000F80000202C0100203F0000002DE9F05F37
:1020A00004468B4615462078022804D0012028706B
:1020B0002046BDE8F09F3348007820B10F202870FB
:1020C0002046BDE8F09FFEF7CFF88246A07A08B11F
:1020D000012600E00026DFF8B080DFF8B09000278E
:1020E000BBF1000F0AD0BBF1010F26D05046FEF71E
:1020F000BFF8072028702046BDE8F09F3EB150464B
:10210000FEF7B6F8492028702046BDE8F09F20A0D1
:1021100060616068D8F800100160C8F8000027709E
:10212000D9F8000060602781C9F800405046FEF7EA
:102130009FF82F700020BDE8F09F40B100230422DB
:102140001946204600F09EFEA07A0028F6D110A085
:1021500060616068D8F800100160C8F8000027705E
:10216000D9F8000060602781C9F800405046FEF7AA
:102170007FF8012E01D101F06DF82F700020BDE82D
:10218000F09F0000EA0000202C010020F800002051
:102190003F0000002DE9F0470546884614462878A0
:1021A000022804D0012020700020BDE8F0873048CC
:1021B000007820B1022020700020BDE8F0872D4873
:1021C000007820B10D2020700020BDE8F087FEF7D8
:1021D0004BF881466B680026D88A90B11869011DBA
:1021E00019610568D88A401ED8829868814201D159
:1021F000586818614846FEF73BF826702846BDE847
:10220000F0871D4F3A6892F8300040F0040082F8E1
:10221000300082F83160C2F82C80284600F07CFE45
:102220004846FEF725F801F015F8FEF71DF8804640
:10223000386890F83110A1B1022915D0294600F074
:1022400059FE00250A202070386880F8306080F838
:102250003160C66106624046FEF70AF82846BDE8CE
:10226000F087056A2670EFE700250E202070EBE767
:10227000EA000020EB0000200801002070B50446B1
:102280000D462078022801D0012070BDFDF7ECFF3B
:102290000646A07A60B1002304222946204600F0B9
:1022A000F1FD3046FDF7E4FF00F0D4FF002070BDE3
:1022B0006068C18A828A914204D33046FDF7D8FF14
:1022C0001E2070BDC268111DC1601560C18A491C05
:1022D000C1828268C168914201D14168C1603046C3
:1022E000FDF7C6FF002070BD70B505460C46287886
:1022F000022801D0012070BDFDF7B6FF0146A87A83
:10230000207405F10B0304F1080C002213F8010BF3
:102310000CF8010B501CC2B2082AF7D36868C28AB5
:102320001AB102691268226001E000222260C28AAA
:10233000A280808AE0800846FDF79AFF002070BDE9
:1023400010B5094CE07901280CD1FDF78DFFA1787B
:1023500021B9E178FF2901D2491CE170BDE81040A4
:10236000FDF786BF10BD0000E800002010B5104C3E
:10237000E07901281BD1FDF777FFE17899B1491E7B
:10238000C9B2E17019B1BDE81040FDF771BFA17885
:1023900019B1BDE81040FDF76BBFFDF769FFBDE85F
:1023A000104000F057BFBDE81040FDF761BF10BD01
:1023B000E800002070B505460E480078002801D0DE
:1023C000002070BDFDF750FF01460B4804680CB1BA
:1023D000626802600846FDF74BFF4CB10320207095
:1023E00025810020606005A06061204600F0C2FDEC
:1023F000204670BDEA000020F80000203F000000E9
:102400002DE9F04704468A4615462078032807D070
:102410000120287030A0FDF7B3FF2046BDE8F0870B
:102420003248007838B10F20287031A0FDF7A8FF9E
:102430002046BDE8F087FDF717FF8146A07A08B176
:10244000012600E00026DFF8BC800027BAF1000F6B
:102450000ED0BAF1010F21D04846FDF709FF072041
:102460002870294628A0FDF78BFF2046BDE8F0879D
:102470002EB14846FDF7FCFE49202870F1E723A065
:1024800060612770D8F8000060602781C8F80040BC
:102490004846FDF7EDFE2F700024E2E740B100232F
:1024A00001221946204600F0EDFCA07A0028F6D162
:1024B00016A060612770D8F8000060602781C8F816
:1024C00000404846FDF7D4FE012E01D100F0C2FEC7
:1024D0002F700024C5E700004F535F4552525F45FF
:1024E00056454E545F545950450D0A00EA000020ED
:1024F0004F535F4552525F44454C5F4953520D0A5A
:1025000000000000F8000020257300003F000000DC
:102510002DE9F0470546884614462878032803D05D
:1025200001202070BDE8F0872648007818B102200D
:102530002070BDE8F0872448007818B10D20207085
:10254000BDE8F087FDF790FE81462889002638B166
:10255000401E28814846FDF78BFE2670BDE8F087B7
:102560001A4F3A6892F8300040F0010082F83000CB
:1025700082F83160C2F82C80284600F0CDFC484635
:10258000FDF776FE00F066FEFDF76EFE80463868C9
:1025900090F8311089B1022911D0294600F0AAFC27
:1025A0000A202070386880F8306080F83160C66199
:1025B0004046BDE8F047FDF75BBE2670F2E70E200F
:1025C0002070EFE7EA000020EB0000200801002067
:1025D00070B504462078032801D0012070BDFDF7B6
:1025E00043FE0546A07A60B1002301221946204629
:1025F00000F048FC2846FDF73BFE00F02BFE0020D3
:1026000070BD20894FF6FF71884206D2401C2081A0
:102610002846FDF72DFE002070BD2846FDF728FE58
:10262000332070BD70B504460D462078032801D0D4
:10263000012070BDFDF718FEA17AA97204F10B0309
:1026400005F1020C002213F8011B0CF8011B511CB0
:10265000CAB2082AF7D321892980FDF709FE002094
:1026600070BD000010B5094CE07900280CD100F0D5
:1026700015FE60792071064951F82000A0622062A1
:10268000BDE81040FDF7F7BD10BD0000E8000020D8
:10269000F016002010B5022000F01EFBFDF7E4FD4F
:1026A000084C0021E161FDF7E3FD142000F014FB6C
:1026B000FDF7DAFDE169616101216170BDE810405B
:1026C000FDF7D6BDE8000020704700002DE9F0417D
:1026D00084B005460E4690461C46FDF7C5FD1D49D3
:1026E000097829B1FDF7C4FD04B03C20BDE8F081B4
:1026F000194F57F8241029B1FDF7BAFD04B028206E
:10270000BDE8F081012147F82410FDF7B1FD002359
:1027100042463146284600F0F1F90026014600966F
:102720000196334632462046029600F0C7FD054624
:102730004DB1FDF799FD47F82460FDF799FD04B010
:102740002846BDE8F081054800780128F7D100F05F
:1027500081FDF4E7EA000020F0160020EF000020E1
:102760002DE9FF4F83B083461C46DDF840A0DDF81D
:102770004490139F129E149DFDF776FD2049097821
:1027800029B1FDF775FD07B03C20BDE8F08FDFF8FB
:10279000748058F8241029B1FDF76AFD07B028208D
:1027A000BDE8F08F012148F82410FDF761FD2A46AD
:1027B0003146484600F082FE2B465846059A049959
:1027C00000F09CF9014653464A4620460197009680
:1027D000029500F073FD054655B1FDF745FD00215A
:1027E00048F82410FDF744FD07B02846BDE8F08FF7
:1027F000054800780128F7D100F02CFDF4E700002F
:10280000EA000020F0160020EF00002070470000D2
:102810002DE9F047054645480078002802D04020C1
:10282000BDE8F0873F2D05D0FDF71EFD0746FF2DC3
:1028300003D006E03E20BDE8F0873D48006890F8F0
:1028400032503C4E56F825405CB1012C0FD094F824
:102850003400394A94F83530115C9943115461B110
:1028600012E03846FDF704FD4320BDE8F087384606
:10287000FDF7FEFC3D20BDE8F087304894F83610A7
:10288000027822EA01010170E16911B1204600F0ED
:1028900031FB606A08B100F09FFB4FF00008C4F8FC
:1028A0002C8084F8308084F83180DFF8949099F897
:1028B0000000FF2802D2401C89F800003846FDF7CE
:1028C000D7FC00F0DEFAFDF7CFFC074699F80000D0
:1028D00010B1401E89F80000204600F03DF819486C
:1028E0000178491E017046F82580A06990B16169A0
:1028F00041616169A0698861134801686161046090
:1029000012A0E0643846FDF7B3FC114800780128B6
:1029100007D008E06069C0F818800E496069086057
:10292000EAE700F097FC0020BDE8F087EA0000200D
:1029300008010020F01600201C010020EE000020FD
:10294000EB000020F00000200C0100203F00000000
:10295000EF000020140100207047704770B5054655
:102960000E46144613480078002802D0122020702A
:1029700070BDFDF779FC0246FF2D03D10E480068BB
:1029800090F832500D4850F82500432540B10128F9
:102990000BD0C6641046FDF76BFC0020207070BDA4
:1029A0001046FDF765FC257070BD1046FDF760FC14
:1029B000257070BDEA00002008010020F0160020FC
:1029C00010B50446FDF750FC0346234850F8240098
:1029D00080B1012813D090F8301011F0080F35D0D5
:1029E00001F0F70180F8301071B11846FDF740FC96
:1029F000002010BD1846FDF73BFC462010BD1846D0
:102A0000FDF736FC432010BDC16A19B11846FDF729
:102A10002FFCEDE7114990F8362091F800C042EA0A
:102A20000C020A7090F834100D4A90F8350012F834
:102A300001C04CEA000050541846FDF719FC094843
:102A400000780128D4D100F005FCD1E71846FDF745
:102A50000FFC442010BD0000F0160020EE00002006
:102A60001C010020EF000020704770472DE9F04165
:102A700004460D46002028606860FDF7F5FB01461E
:102A8000FF2C03D11B48006890F832401A4850F8D8
:102A9000240078B1012813D0027C12F0010F15D068
:102AA0000024C66887680846FDF7E2FB3968381DD0
:102AB00091B116E00846FDF7DBFB4320BDE8F0814D
:102AC0000846FDF7D5FB4320BDE8F0810846FDF739
:102AD000CFFB4520BDE8F081641C50F8041B0029A1
:102AE000FAD0A0002860301B800068600020BDE89C
:102AF000F081000008010020F0160020002342F8B9
:102B0000043D4FF4805342F8043D152342F8043D40
:102B1000142342F8043D132342F8043D122342F8E3
:102B2000043D112342F8043D102342F8043D0923DB
:102B300042F8043D082342F8043D072342F8043DCF
:102B4000062342F8043D052342F8043D042342F8DD
:102B5000043D032342F8043D022342F8043D0123CF
:102B600042F8043D121F1B06136042F8040D314B5E
:102B7000101F42F8043C4FF0123240F8042D4FF081
:102B8000033240F8042D4FF0023240F8042D521069
:102B900040F8042D40F8041D312140F8041D302177
:102BA00040F8041D292140F8041D282140F8041D87
:102BB000272140F8041D262140F8041D252140F856
:102BC000041D242140F8041D232140F8041D222166
:102BD00040F8041D212140F8041D202140F8041D67
:102BE000192140F8041D182140F8041D172140F850
:102BF000041D162140F8041D4FF0113140F8041D4A
:102C0000110140F8041D4FF0093140F8041DD100B6
:102C100040F8041D4FF0073140F8041D4FF0063115
:102C200040F8041D4FF0053140F8041D910040F8B4
:102C3000041D70470934000870B50446FDF714FB05
:102C400084462048FF2C06D0006890F83200A0424D
:102C500006D1012505E0006890F83240012500E02A
:102C60000025194850F8240058B101280ED090F8DA
:102C70003410164B90F835405A5CA2435A5452B166
:102C800010E06046FDF7F4FA482070BD6046FDF79D
:102C9000EFFA432070BD0E4990F836200B7823EAF6
:102CA00002020A7090F8301041F0080180F83010EC
:102CB0006046FDF7DDFA012D01D100F0CBFA0020CE
:102CC00070BD000008010020F01600201C0100204B
:102CD000EE0000207047000070B5044613480078ED
:102CE000002822D11248007800281ED1002C1CD0C8
:102CF000FDF7BAFA84460F48016891F834200E486F
:102D000091F83550835CAB43835433B90B4891F849
:102D10003620037823EA02020270CC626046FDF797
:102D2000A7FABDE8704000F095BA70BDEA00002037
:102D3000EB000020080100201C010020EE00002014
:102D400010B5DFF85CC09CF800C0BCF1000F01D0EA
:102D5000552010BDDFF84CC09CF800C0BCF1000F3E
:102D600001D0322010BD9B1C4FF0C80C03FB0CF3AC
:102D70004FF47A7CB3FBFCF34FF4616C00FB0CF076
:102D8000C1EB011100EB8100104400EBC00101EB2D
:102D9000001003EBC000FFF79FFF002010BD0000F4
:102DA000EA000020EB00002010B5FDF75DFA0349B2
:102DB0000C68FDF75DFA204610BD000018010020E8
:102DC0002DE9F04100F05CF8FDF74EFA2A4D296B31
:102DD000491C2963FDF74CFAE879012849D1687A42
:102DE00001260027B0B1012816D0022816D00120F4
:102DF0006F7200283DD0EC6A94F832003F2838D03A
:102E0000DFF87880FDF730FAE16A59B3491EE162D4
:102E100039B127E00120ECE70020EAE701206E72DB
:102E2000E7E794F8301011F0370F06D001F0C80131
:102E300084F8301084F8316001E084F8317094F83F
:102E4000301011F0080F0DD194F83610AA79114303
:102E5000A97194F8341094F8353018F801201A4309
:102E600008F801206469FDF703FA94F832003F285E
:102E7000C8D1BDE8F0810000E80000201C0100205E
:102E80007047704770B50446174894F80AC010F8A8
:102E90000CC004EB0C05ED7A405D00EBCC00C5B234
:102EA000124850F825000026C662016290F83010E2
:102EB00021EA020280F8302080F8313012F0080F49
:102EC0000DD10B4990F836208B791A438A71343131
:102ED00090F8353011F80C201A4301F80C202146E7
:102EE00000F008F8284670BD281F0108F0160020E1
:102EF000E800002090F8342090F835C08B18DA7A7A
:102F000022EA0C02DA72002A05D18A7A90F8360099
:102F100022EA00008872704710B4DFF854C0DCF871
:102F20002010C86191F8342000F10B0391F835109E
:102F3000D45C2143D154DCF82010827A91F83630E9
:102F40001A43827291F834000CF1340391F8354041
:102F50001A5CA2431A54002A07D191F836009CF853
:102F6000061021EA00008CF8060010BC7047000033
:102F7000E80000200022827200214318DA72491C06
:102F8000C9B20829F9D3704710B550210F4800F095
:102F90000DF900200D4B8446411C8AB203EB001052
:102FA00003EB021280F800C0426009A2C26088B23E
:102FB0000428F1D303EB001080F800C0C0F804C06F
:102FC00003A1C1600348036010BD0000E01B0020A6
:102FD0003F00000024010020426801680023002A0D
:102FE00005D0116001B14A60806843627047C268D1
:102FF00051600029F8D04B60F6E7000000B54FF4AF
:10300000B471124800F0D2F80020104B8446421CE4
:1030100091B200EB400003EBC00001EB410103EB78
:10302000C10180F800C0416009A1416190B20E2841
:10303000EDD300EB400003EBC00080F800C0C0F807
:1030400004C003A141610348036100BD8811002051
:103050003F000000E8000020064800210163817065
:10306000C1700172C171C160C16181614161417012
:1030700070470000E8000020074B002199710020F4
:1030800003F134021154401CC0B20828FAD319715C
:103090005971996219627047E800002000B54FF439
:1030A0007C71164800F082F84FF48071144800F0EB
:1030B0007DF80020114B411CCAB2C0EBC00000EBF0
:1030C000400003EB8000C2EBC20202EB420203EBC2
:1030D000820242610BA2C264C8B20B28EBD3C0EBE0
:1030E000C00000EB400003EB80000021416105A21D
:1030F000C2640548C162436200BD0000F0170020B1
:10310000F01600203F000000E800002000B587B066
:10311000032100220B480491802303924FF6FF7194
:103120000293019000F5FE7200913F2300210648B2
:10313000FFF716FB06AA05A13F20FFF70FFC07B01B
:1031400000BD0000F0140020ED33000875432F4F40
:10315000532D49492049646C6500000000B587B0D3
:10316000032100220B480491802303924FF6FE7145
:103170000293019000F5FE7200913E230021064863
:10318000FFF7EEFA06AA05A13E20FFF7E7FB07B01E
:1031900000BD0000F01200202134000875432F4FBD
:1031A000532D49492053746174000000002906D052
:1031B000002200F8012B491E89B20029F9D170477D
:1031C00010B578210F48FFF7F1FF00200D4A00EB02
:1031D000400102EBC101401C00EB400302EBC303C2
:1031E0004B6009A34B6180B20428F0D300EB400090
:1031F00002EBC0000021416003A14161034802606D
:1032000010BD0000301C00203F00000028010020FD
:1032100010B578210D48FFF7C9FF00200B4B411C6A
:103220008AB200EB400003EBC00002EB420203EB6A
:10323000C202026088B20428F1D300EB400003EB25
:10324000C000002101600248036010BDA81C0020DE
:103250002C01002070B5FDF707F805460D4CA0784D
:1032600098B9E07888B900F019F80B48627950F8FD
:103270002210A1622079824207D0886B401C8863AB
:10328000E068401CE060FDF708F82846BDE87040A3
:10329000FCF7EEBFE8000020F01600200649054AC2
:1032A0008879105C01F134031B5CD25C02EBC00036
:1032B00048717047281F0108E80000202DE9FF5FD2
:1032C000054689469346DDF840800F9F0E9EFCF729
:1032D000CBFFDFF808A1DAF82440002C77D0616931
:1032E000CAF82410FCF7C4FFC4F8009084F83250E8
:1032F0004FF0000984F8309084F83190C4F82C9095
:103300006760E660C4F808B0A4F810800398608293
:1033100084F83790E90884F8341005F0070084F841
:103320003300012202FA01F184F8361002FA00F0AB
:1033300084F83500C4F81C90C4F82490C4F8209098
:10334000C4F83890C4F84090C4F83C90C4F8449055
:10335000C4F8489022A0E064002004EB8001C1F88A
:103360005090401CC0B20028F7D02046FFF7ACF9BF
:103370002046FFF74BFAFCF777FF0146194840F863
:103380002540DAF82C006061C4F8189000B184611F
:10339000CAF82C4094F836009AF8062010438AF8B0
:1033A000060094F83400104A94F835C0135C43EAE0
:1033B0000C0313549AF80800401C8AF808000846C9
:1033C000FCF756FF04B00020BDE8F09FFFE7FCF7D4
:1033D0004FFF04B04220BDE8F09F0000E80000204D
:1033E0003F000000F01600201C010020054CFCF7F7
:1033F0003BFFE169491CE161FCF73AFFFFF7ADFAD9
:10340000F5E70000E800002010B504480068FFF769
:103410002BFBBDE81040FF20FFF7FAB908010020A0
:10342000154C6078002805D12820FFF755FC6078FE
:103430000028F9D011496069A1FB001040096061C2
:10344000002518B92570FF20FFF7F6FBFCF70CFFED
:10345000E169A161E561FCF70BFF6169A069B0FB5F
:10346000F1F0C0F164002070FFF7FFFA00F008F8F7
:103470001420FFF731FCE9E7E80000201F85EB513D
:1034800030B583B000240C4D69462046FFF7EEFAB4
:1034900058B955F8241041B1012906D0CA68886886
:1034A00000EB8200486401988864601CC4B23F2C21
:1034B000EAD903B030BD0000F016002012F0010F71
:1034C0000AD012F0020F07D0002905D00022491EB1
:1034D00040F8042B0029FAD170470000F0B583B002
:1034E00000240121402000F0BDF84FF4024000907C
:1034F00001278DF8047000258DF8065002208DF804
:1035000005008DF8077069462748FEF7AFFA274E89
:1035100035600A2000F074FDB5610A2000F070FDEE
:10352000B76100F02FF90121FF2000F037FA802168
:10353000122000F033FA322000F062FD1C2000F06F
:103540009DF94FF6FF7606EA00251D2000F096F95A
:1035500040EA0501A1F5FE40A23805D014A0FCF711
:103560000FFF03B00120F0BD0A2000F087F906EA42
:1035700000250B2000F082F940EA0501A1F5185062
:10358000423802D00DA0FCF7FBFE0F4D05EB4400C6
:10359000417815F8140000F001FA601C84B2B22CD6
:1035A000F4D303B00020F0BD00180240A40243424F
:1035B0004D49443A25640D0A000000004849443A48
:1035C00025640D0A000000002820010870B50024C1
:1035D0000C4D05EB4400417815F8140000F0DEF9BD
:1035E000601C84B2082CF4D30024074D05EB440082
:1035F000417815F8140000F0D1F9601C84B2072C52
:10360000F4D370BDB62101088C21010870B510F00B
:10361000030F01D0012070BD11F0030F01D0022073
:1036200070BD84088D080021FF2000F0B7F9042147
:10363000E02000F0B3F9E1B25A2000F0AFF9E9B2AE
:103640005B2000F0ABF9C4F30120042101EA9511DD
:1036500001435C2000F0A2F90021E02000F09EF977
:10366000002070BD054A002903D01168084310608E
:103670007047116821EA000010607047303802403E
:10368000054A002903D0116808431060704711688B
:1036900021EA00001060704710380240054A0029F6
:1036A00003D01168084310607047116821EA0000D8
:1036B0001060704734380240054A002903D0116871
:1036C000084310607047116821EA000010607047DD
:1036D0004438024030B4DFF89CC0DCF8001001F040
:1036E0000C01254D002923D06C10042922D0082973
:1036F00022D00560DCF8001001F0F00109091F4B31
:10370000595C026822FA01F14160DCF8002002F401
:10371000E052920A9A5C21FA02F28260DCF8002000
:1037200002F46042520B9A5CD140C16030BC7047D9
:103730000560DFE70460DDE7114A1168C1F38053DB
:10374000116801F03F0133B1B4FBF1F11368C3F329
:103750008813594305E0B5FBF1F11368C3F38813EF
:1037600059431268C2F30142521C5200B1FBF2F1FC
:103770000160BFE7083802400024F400780100200F
:103780000438024010B582B001210820FFF76AFF1B
:10379000C020009001208DF8040000218DF8061053
:1037A00002218DF805108DF80700094C6946204666
:1037B000FEF75CF9C0212046FEF7B4F9206820F43A
:1037C00040402060206840F48040206002B010BD7E
:1037D000000C024070B5322000F03CFC084C012087
:1037E00060602060322000F035FC0025256032202A
:1037F00000F030FC6560BDE87040322000F02ABC6B
:10380000988241422DE9F0470024DFF86880D8F81B
:10381000000020F44040C8F80000D8F80000C8F8C4
:1038200000000825144E0127A146322000F012FCAA
:10383000C6F898726006040ED6F81C0208B1601C27
:10384000C4B2322000F006FCC6F89892681EC5B2D9
:10385000002DEAD1D8F8000020F44040C8F800005C
:10386000D8F8000040F48040C8F800002046BDE8C9
:10387000F0870000000C02400080414210B5044671
:1038800000F022F8602000F045F8642000F0E2FB30
:10389000204600F03FF8642000F0DCFB00F026F842
:1038A000642000F0D7FB00F00FF8612000F032F840
:1038B000642000F0CFFBFFF7A5FF0446FFF78AFF67
:1038C00000F014F8204610BD70B5074C0120606070
:1038D0002060322000F0BEFB00256560322000F041
:1038E000B9FB256070BD00009882414270B5084C5C
:1038F00000206060322000F0ADFB01252560322001
:1039000000F0A8FB6560BDE87040322000F0A2BB6B
:10391000988241422DE9F041054600241D4EA04603
:10392000012715F0800F02D0C6F89C7201E0C6F89E
:103930009C826806050E322000F08CFBC6F8987257
:10394000322000F087FBC6F89882601CC4B2082CB5
:10395000E7D3114C206820F44040206020682060AC
:10396000322000F077FBC6F89872322000F072FB2C
:10397000D6F81C0208B1012000E00020C6F89882A9
:10398000216821F440412160216841F48041216097
:10399000BDE8F08100804142000C024070B506464F
:1039A0000D460024FFF790FF6020FFF7B3FF00B142
:1039B0000124642000F04EFB3046FFF7ABFF00B15E
:1039C0000124642000F046FB2846FFF7A3FF00B166
:1039D0000124FFF78BFF204670BD000001490860FD
:1039E00070470000DC00274282B000220192009262
:1039F0002749086840F480300860086800F4003007
:103A000000900198401C0190009818B90198B0F5F9
:103A1000A04FF2D1086810F4003F02D001200090BE
:103A200000E000920098012830D11A48026842F064
:103A3000805202601848026842F44042026017480F
:103A400002680260026842F400420260026842F4C6
:103A5000A0520260021F124B13600A6842F080728B
:103A60000A600A6812F0007FFBD00E4A40F205712E
:103A70001160016821F003010160016841F0020159
:103A80000160016801F00C010829FAD102B0704709
:103A900000380240403802400070004008380240C0
:103AA00008544007003C02404FF0E021042804D0B5
:103AB000086920F0040008617047086940F00400BC
:103AC0000861704710B506480078012807D1FEF755
:103AD00063FAFFF775F9BDE81040FEF769BA10BD4B
:103AE000EF00002010B51148016841F47001016039
:103AF0000F48016841F0010101600E4A0021116088
:103B0000026822F4102222F080720260031D0A4A29
:103B10001A60026822F48022026008480160FFF700
:103B200063FF07494FF00060086010BD88ED00E0BA
:103B30000038024008380240103000240C3802409F
:103B400008ED00E010B5054C0121204600F00BF80F
:103B50002046BDE81040012100F002B800040040FA
:103B6000C943018270470022038A0B4080890840C4
:103B7000002B01D000B101221046704710B5FEF7AE
:103B80000BFA194C40F22551204600F044F810B3CE
:103B9000204600F0E9F8C1B2144A108810F4004F32
:103BA00019D110F4804F4FF0000307D00A2901D03B
:103BB000138010E040F4004010800CE00D290ED07E
:103BC0000B4CC0F30D0C04F80C10401C80B210809C
:103BD000C72800D91380BDE81040FEF7E9B940F4CA
:103BE00080401080F7E700000010014070010020C5
:103BF00030C6012001F40072C943018070470029DA
:103C000004D0818941F4005181817047818921F478
:103C100000518181704710B44FF0000C40F66A12D9
:103C2000C1F3421301F01F02012404FA02F2012B36
:103C30000FD0022B10D0838A1A40090A04FA01F12E
:103C40000088084012B108B14FF0010C10BC60466A
:103C5000704783891A40F0E7038A1A40EDE740F67F
:103C60006A13C1F3421301F01F014FF0010C0CFA6B
:103C700001F1012B07D0022B07D014303AB10268B2
:103C80001143016070470C30F8E71030F6E7026826
:103C900022EA01010160704730B585B004460D4647
:103CA000208A20F44050E98808432082A08920F42B
:103CB000037020F4A050A9882A8911436A8910430F
:103CC0000843A081A08A20F44070A9890843A082FB
:103CD0006846FFF7FFFCA4F18040B0F5883012D0B1
:103CE000A4F18040B0F58A300DD00298A18911F47A
:103CF000004F0AD000EBC00101EB00102968490019
:103D0000B0FBF1F009E00398F0E700EBC00101EB34
:103D1000001029688900B0FBF1F0124AA2FB0031C3
:103D2000490909010B096FF0180C03FB0CF300EBB8
:103D30008300A38913F4004F4FF0320307D003EB45
:103D4000C000A2FB0020C0F34210084306E003EBD2
:103D50000010A2FB0020C0F343100843208105B0EF
:103D600030BD00001F85EB518088C0F3080070470C
:103D7000FEE770472DE9F04106460F460024164D38
:103D8000FCF772FA04EB440155F8311041B1FCF72D
:103D90006FFA641C042CF3DB4FF0FF30BDE8F081B8
:103DA00004EB440845F83860FCF762FA05EBC800FC
:103DB00000224260028142813178102907D001211E
:103DC0008181C281026142612046BDE8F0810FB16C
:103DD0000121F5E70021F3E72811002082B09621A8
:103DE000002006F081FD104CA0609621002006F016
:103DF0007BFDE0606421002006F076FD206141F645
:103E000098710AA2009201910CA30EA20F49FCF72F
:103E1000C3FA41F2883000F0F3F809F0F9F94FF4F1
:103E20007A7000F0EDF8FAE7140000203139322EF4
:103E30003136382E302E31303000000031323334FC
:103E40003536000074657374000000001422010808
:103E500070B50020FEF7AEFA134CA0610020FEF70B
:103E6000A9FAE0610020FEF7A5FA2062FCF7FCF950
:103E700005460A230D4A00210D48FEF727FC04469B
:103E80000B230C4A00210C48FEF720FC04430D23B1
:103E90000A4A00210A48FEF719FC04432846FCF7A9
:103EA000E7F9204670BD000014000020DC0B002064
:103EB00071D30008DC0D0020B9D30008DC0F00200E
:103EC000DD3D000810B503F02FFABDE810400022D8
:103ED000024941F2883009F011BD0000C53E0008DA
:103EE00008B5FFF7FBFA50B111A0FCF749FA4FF4FF
:103EF000FA7000F085F8FFF7F1FA0028F4D1FDF729
:103F00002BFF4FF480600301009010484FF42052C3
:103F100000218068FCF71EFDFFF758FBF0214FF4ED
:103F2000A070FFF773FBBDE80840FCF7BFBD0000C1
:103F30004F563236343020457272212052657472E9
:103F400079696E672E2E2E0D0A00000000000020F9
:103F50004FF42051002006F0C7FC134CA060134D15
:103F6000287828B9642000F04BF828780028F9D088
:103F7000FFF7B6FF03250026607880B1207801287E
:103F80000DD1606881000AA0FCF7FAF925700A20BB
:103F900000F036F8A07810B101F002FDA6704FF4E1
:103FA000FA6000F02DF8E7E7000000201400002080
:103FB00043616D20436170747572656420256420CF
:103FC000626974730D0A000010B504466FF00400B6
:103FD000FFF76AFD094AE008107041F28831414359
:103FE000052050804FF0E020026942F00202026199
:103FF0004161016941F00101016110BD6C010020C6
:1040000070B504460D48007800280FD00C480078A1
:1040100060B90C4D6888844203D3B4FBF0F000F023
:1040200013F86888B4FBF0F100FB11444FF47A7088
:104030006043BDE8704000F00DB80000EF000020C4
:10404000EA0000206C010020FEF746BEFEF778B9BA
:10405000FEF78CB92DE9F04100244FF0E0277E698E
:104060000C49097800FB01F5FFF7F0FFB969B86961
:104070008842FCD003D2A1EB00010C4403E0A6EB84
:10408000000211440C440146AC42F0D3BDE8F041BB
:10409000FFF7DEBF6C01002000280BD0026A002A67
:1040A0000FD0137B082B0CD10968526A914208D1BA
:1040B00000F086BA03A340F225320BA10EA0FCF754
:1040C0005FB970472E2E5C4C5749505C6C77697015
:1040D0002D312E342E315C7372635C636F72655CBC
:1040E000646863702E6300006E6574696620213D0C
:1040F000204E554C4C000000417373657274696F1B
:104100006E2022257322206661696C6564206174CB
:10411000206C696E6520256420696E2025730D0A68
:104120000000000030B583B00546002D17D02C6A82
:10413000002C1DD0606B394AB0F1FF3F4FF00101F8
:1041400020D01E30A2FB00304009B0F5803F01D3E3
:104150004FF6FF7080B2A083002812D012E030A387
:104160004FF4697237A13EA0FCF70AF903B030BDE5
:104170002BA340F2A63245A139A0FCF701F903B008
:1041800030BDA183A06BB0F1FF3F0CD01E30A2FB6D
:1041900000204009B0F5803F01D34FF6FF7080B298
:1041A000E08300B9E183A18BE08B814202D308B1A7
:1041B0000020A083A07B10B1A06A02900FE094F8C9
:1041C00024007F2802D8FF20029008E0C02803D3F3
:1041D0006FF07F40029002E04FF6FF700290E06ABD
:1041E000019028B9606A0299084040F080700190FF
:1041F00004F12401284607F079FC02A9284607F0BB
:10420000A9FC01A9284607F06AFC284607F0A9FC8A
:104210000A21204601F0FCF903B030BD8988888866
:104220002E2E5C4C5749505C6C7769702D312E34C2
:104230002E315C7372635C636F72655C646863707B
:104240002E630000646863705F62696E643A206E7A
:104250006574696620213D204E554C4C00000000DD
:10426000417373657274696F6E2022257322206614
:1042700061696C6564206174206C696E65202564D9
:1042800020696E2025730D0A0000000064686370C9
:104290005F62696E643A206468637020213D204E3D
:1042A000554C4C0070B505462C6A0821204601F09B
:1042B000AFF9002204F12401284602F025FE607BBC
:1042C000401C607340F2E7304FF4FA71B0FBF1F03C
:1042D000608370BD10B50E480468002C17D0206AAA
:1042E00090B1C18B4A1EC283012906D0206A818BFE
:1042F0004A1E8283012904D006E0204601F0D1FA4B
:1043000002E0204601F0C2FA2468002CE7D110BD7B
:10431000640000202DE9F04105460C461646002DAC
:104320002FD0002C00F038802069002806D05AA336
:1043300040F27E6261A16BA0FCF722F86069002860
:1043400006D055A340F27F6271A166A0FCF718F871
:1043500000224FF49A71104607F016FC20610028E5
:1043600025D04089B0F59A7F06D24BA340F28662F1
:1043700071A15CA0FCF704F8617B7F4800291AD08A
:104380001CE045A340F27C627CA156A0FBF7F8FF3D
:104390006FF00D00BDE8F0813FA340F27D627FA188
:1043A00050A0FBF7EDFF6FF00500BDE8F0814FF086
:1043B000FF30BDE8F0810168491C016000682060A1
:1043C0002069406860610121017060694170616924
:1043D00095F82600887060690027C770206805F08E
:1043E000F9F86169486060690781606947816069BF
:1043F000C760082E08D0042E06D0032E07D1207BDC
:10440000052801D0042802D161696868C860606924
:1044100007616069476160698761002095F826102F
:10442000814203D9291891F8271000E00021626920
:1044300000F11C03D154401C80B21028EED30020A0
:10444000616900F12C028F54401C80B24028F7D3E0
:104450000020616900F16C028F54401C80B28028FA
:10446000F7D361695548C1F8EC00278300206169E2
:1044700000F1F0028854401C80B24428F7D3012296
:104480003521204600F048FA3146204600F08CFAEB
:104490000020BDE8F08100002E2E5C4C5749505C96
:1044A0006C7769702D312E342E315C7372635C63CE
:1044B0006F72655C646863702E630000646863708B
:1044C0005F6372656174655F6D73673A20646863EA
:1044D000702D3E705F6F7574203D3D204E554C4CE5
:1044E00000000000417373657274696F6E202225AD
:1044F0007322206661696C6564206174206C696E4A
:104500006520256420696E2025730D0A00000000D7
:10451000646863705F6372656174655F6D73673A49
:1045200020646863702D3E6D73675F6F7574203D06
:104530003D204E554C4C0000646863705F637265AB
:104540006174655F6D73673A20636865636B20749F
:104550006861742066697273742070627566206386
:10456000616E20686F6C642073747275637420646C
:104570006863705F6D736700580000206468637043
:104580005F6372656174655F6D73673A206E657411
:10459000696620213D204E554C4C000064686370D4
:1045A0005F6372656174655F6D73673A2064686309
:1045B0007020213D204E554C4C0000006382536317
:1045C000F8B505462C6A0C21204601F021F804229A
:1045D00021462846FFF79EFE064630001ED10422E3
:1045E0003221204600F098F9606A05F017F801467C
:1045F000204600F033FA204600F0E8FA208BF03035
:1046000081B2206908F048F800954323094A2169DE
:1046100060680DF04BFB204600F00EF8607B401CFC
:10462000607342F603104FF4FA71B0FBF1F060834F
:104630003046F8BD541E010810B50446002C02D0C7
:10464000206948B10FE0BDE8104010A340F2C962F4
:1046500017A11FA0FBF794BE0CA340F2CA6227A1CA
:104660001BA0FBF78DFE6069002806D107A340F26E
:10467000CB622CA116A0FBF783FE206908B107F0DE
:10468000B7FE00202061606110BD00002E2E5C4C42
:104690005749505C6C7769702D312E342E315C7324
:1046A00072635C636F72655C646863702E630000A4
:1046B000646863705F64656C6574655F6D73673AA9
:1046C000206468637020213D204E554C4C00000052
:1046D000417373657274696F6E20222573222066A0
:1046E00061696C6564206174206C696E6520256465
:1046F00020696E2025730D0A000000006468637055
:104700005F64656C6574655F6D73673A20646863A8
:10471000702D3E705F6F757420213D204E554C4CBE
:1047200000000000646863705F64656C6574655FB9
:104730006D73673A20646863702D3E6D73675F6FB9
:10474000757420213D204E554C4C0000F8B50546AF
:104750002C6A002060620621204600F059FF0122E9
:1047600021462846FFF7D6FD0646300030D102220A
:104770003921204600F0D0F8A98C204600F0E0F95D
:1047800004223721204600F0C7F80121204600F01E
:104790000BF90321204600F007F91C21204600F008
:1047A00003F90621204600F0FFF8204600F00EFA3B
:1047B000208BF03081B2206907F06EFF0095432313
:1047C000114A216960680DF071FA2046FFF734FF45
:1047D000607B401CC0B26073062803D2012101FA3D
:1047E00000F000E03C2000EB4001C1EBC0104FF6B0
:1047F000FF7101EAC00000F2F3104FF4FA71B0FB50
:10480000F1F060833046F8BD541E010870B50B48C6
:104810000468002C11D00025206A58B1418B012971
:1048200003D9A1F10101418304E003D1458320466E
:1048300001F042F82468002CEED170BD6400002025
:1048400070B5046A0020A062E062164EA6F1280549
:10485000F178002901D0E9682163317911B1296922
:10486000616302E0216B49086163717911B1696983
:10487000A16301E0216BA163A16809696162B1795B
:1048800031B1A86904F0A6FEA0620120A07300E087
:10489000A073F079002803D0E86904F09BFEE06281
:1048A00070BD0000D010002070B505462C6A284667
:1048B00007F006F90A49284607F018F9084928467A
:1048C00007F00DF90649284607F044F90C21204667
:1048D00000F09EFE2846BDE87040FFF737BF00009D
:1048E000501E010870B505462C6A094880780028DA
:1048F0000CD00848806804F06DFE2062A068006952
:1049000060622846BDE8704000F00CBE70BD00003B
:10491000D0100020A810002070B504460E461546A1
:10492000208BAA1C1044442806D90AA340F2F64260
:10493000114912A0FBF724FD208B411C21836169E2
:10494000F0300E54208B411C21836169F0300D54EE
:1049500070BD00002E2E5C4C5749505C6C7769701E
:104960002D312E342E315C7372635C636F72655C23
:10497000646863702E630000E82201084173736568
:104980007274696F6E2022257322206661696C65DE
:1049900064206174206C696E6520256420696E2036
:1049A00025730D0A0000000070B504460D46208BEB
:1049B000442806D306A340F201520EA11CA0FBF727
:1049C000DFFC208B411C21836169F0300D5470BDE8
:1049D0002E2E5C4C5749505C6C7769702D312E340B
:1049E0002E315C7372635C636F72655C64686370C4
:1049F0002E630000646863705F6F7074696F6E5F30
:104A0000627974653A20646863702D3E6F707469D2
:104A10006F6E735F6F75745F6C656E203C204448E9
:104A200043505F4F5054494F4E535F4C454E00002A
:104A3000417373657274696F6E202225732220663C
:104A400061696C6564206174206C696E6520256401
:104A500020696E2025730D0A0000000070B5044621
:104A60000D46208B001D442806D911A34FF4A262E5
:104A700018A128A0FBF784FC208B2A0E411C21835F
:104A80006169F0300A54208B2A0C411C2183616932
:104A9000F0300A54208B2A0A411C21836169F030CE
:104AA0000A54208B411C21836169F0300D5470BD84
:104AB0002E2E5C4C5749505C6C7769702D312E342A
:104AC0002E315C7372635C636F72655C64686370E3
:104AD0002E630000646863705F6F7074696F6E5F4F
:104AE0006C6F6E673A20646863702D3E6F707469F6
:104AF0006F6E735F6F75745F6C656E202B20342052
:104B00003C3D20444843505F4F5054494F4E535F03
:104B10004C454E00417373657274696F6E20222597
:104B20007322206661696C6564206174206C696E13
:104B30006520256420696E2025730D0A00000000A1
:104B400070B504460D46208B801C442806D90AA364
:104B50004FF4A162114912A0FBF712FC208B2A0A24
:104B6000411C21836169F0300A54208B411C218350
:104B70006169F0300D5470BD2E2E5C4C5749505C6D
:104B80006C7769702D312E342E315C7372635C63E7
:104B90006F72655C646863702E630000A422010874
:104BA000417373657274696F6E20222573222066CB
:104BB00061696C6564206174206C696E6520256490
:104BC00020696E2025730D0A0000000010B5044610
:104BD000002C03D06069002809D00FE0BDE8104028
:104BE00017A340F2DE621FA127A0FBF7C9BB14A3E5
:104BF00040F2DF622FA124A0FBF7C2FB208B4428E8
:104C000006D30FA34FF4DC6235A11FA0FBF7B8FB5E
:104C1000208BFF22411C21836169F0300A5400215E
:104C200004E0421C22836269F0301154208B442836
:104C300002D310F0030F01D04428F2D310BD0000BE
:104C40002E2E5C4C5749505C6C7769702D312E3498
:104C50002E315C7372635C636F72655C6468637051
:104C60002E630000646863705F6F7074696F6E5FBD
:104C7000747261696C65723A206468637020213DCA
:104C8000204E554C4C000000417373657274696F7F
:104C90006E2022257322206661696C656420617430
:104CA000206C696E6520256420696E2025730D0ACD
:104CB00000000000646863705F6F7074696F6E5FFE
:104CC000747261696C65723A20646863702D3E6D20
:104CD00073675F6F757420213D204E554C4C0A0060
:104CE000646863705F6F7074696F6E5F747261691E
:104CF0006C65723A20646863702D3E6F7074696FE2
:104D00006E735F6F75745F6C656E203C2044484322
:104D1000505F4F5054494F4E535F4C454E0A000070
:104D20002DE9F34F83B004460021029101910A213D
:104D3000DB48FBF76FFC049949892C2904D205B0A4
:104D40006FF00100BDE8F08F04994968A160F0267A
:104D50000498B0F80880DFF848B3049F06E0311AE1
:104D60008EB2A8EB00001FFA80F83F6817B178896F
:104D7000B042F4D91FB1D7F804A000F05DB905B076
:104D80006FF00100BDE8F08F4FF0FF34B01C1FFA48
:104D900080F97889721C904203D90AEB06004078AA
:104DA00005E0386810B14068007800E00020054652
:104DB000342900F08D800CDC032944D003DC69B376
:104DC000012912D12FE006294ED033290DD100F050
:104DD0006FB8352900F08C80362900F099803A2987
:104DE00000F0A6803B2900F0B38000253044801CF1
:104DF00086B2002D00F00781002000900A2C06D317
:104E0000A8A340F2AD52B0A1B4A0FBF7B9FA1BF8C9
:104E10000400002800F0AC8000F0F5B80020054642
:104E2000711E8EB2E2E704280BD09EA340F27B52A3
:104E3000B5A1AAA0FBF7A4FA05B06FF00500BDE884
:104E4000F08F0624D2E7042504280BD295A34FF453
:104E5000B062B0A1A1A0FBF793FA05B06FF0050016
:104E6000BDE8F08F0724C1E710F0030F0BD08DA32E
:104E700040F28552ACA199A0FBF782FA05B06FF021
:104E80000500BDE8F08F082801D2054600E008259E
:104E9000A8420BD283A34FF4B1629EA18FA0FBF76F
:104EA0006FFA05B06FF00500BDE8F08F08249DE7AC
:104EB00004280BD07BA340F28C5293A187A0FBF770
:104EC0005FFA05B06FF00500BDE8F08F03248DE7B1
:104ED00001280BD073A34FF4B26297A17FA0FBF718
:104EE0004FFA05B06FF00500BDE8F08F00247DE7B4
:104EF00001280BD06BA340F294528FA177A0FBF74F
:104F00003FFA05B06FF00500BDE8F08F01246DE7B2
:104F100004280BD063A34FF4B3627BA16FA0FBF70F
:104F20002FFA05B06FF00500BDE8F08F02245DE7B1
:104F300004280BD05BA340F29C5273A167A0FBF73F
:104F40001FFA05B06FF00500BDE8F08F04244DE7AF
:104F500004280BD053A34FF4B4626BA15FA0FBF7FE
:104F60000FFA05B06FF00500BDE8F08F05243DE7AE
:104F7000042D01D22A4600E004224B4669463846F9
:104F800007F0A6F9042D1FD915F0030F0BD045A388
:104F900040F2B3526BA151A0FBF7F2F905B06FF0EC
:104FA0000500BDE8F08F01200BF80400009804F024
:104FB00011FB694941F82400281FC5B209F104001A
:104FC0001FFA80F9641C19E7042D0DD0012D10D0B3
:104FD00034A340F2BD5261A140A0FBF7D1F905B066
:104FE0006FF00500BDE8F08F009804F017FB00900B
:104FF00002E09DF80000009001200BF804005648E4
:10500000009940F824107889B04215D8311A8EB230
:10501000A8EB00001FFA80F8464515D2B8F1000F42
:1050200012D03F6837B91FA340F2C95250A12BA03C
:10503000FBF7A6F9D7F804A037B11AF80610FF2934
:1050400002D04645FFF4A0AE9BF80000A0B1424854
:10505000006800218BF80010012804D0022805D038
:10506000032806D008E00120029005E0012001900D
:1050700002E0012001900290029828B100200290E5
:105080006C264FF0EC0868E6019828B100200190EA
:105090002C264FF06C0860E605B00020BDE8F08FCC
:1050A000D01000202E2E5C4C5749505C6C776970F4
:1050B0002D312E342E315C7372635C636F72655CCC
:1050C000646863702E630000636865636B206465C9
:1050D000636F64655F696478000000004173736505
:1050E0007274696F6E2022257322206661696C6577
:1050F00064206174206C696E6520256420696E20CF
:1051000025730D0A000000006C656E203D3D2034C3
:10511000000000006C656E203E3D206465636F6496
:10512000655F6C656E0000006C656E202520342084
:105130003D3D2030000000006C656E203D3D20317B
:10514000000000006465636F64655F6C656E202518
:105150002034203D3D203000A8100020696E76618B
:105160006C6964206465636F64655F6C656E0000E4
:105170006E657874207062756620776173206E7535
:105180006C6C0000F8B505462C6A0421204600F03E
:105190003FFA032221462846FFF7BCF806463000B6
:1051A0001BD1022239212046FFF7B6FBA98C2046ED
:1051B000FFF7C6FC2046FFF709FD208BF03081B2D7
:1051C000206907F069FA009543230F4A2169606856
:1051D0000CF06CFD2046FFF72FFA607B401CC0B23C
:1051E00060730A2803D24FF47A71484301E042F217
:1051F000107080B200F2F3104FF4FA71B0FBF1F0CE
:1052000060833046F8BD0000541E0108F8B505461D
:105210002C6A0321204600F0FBF903222146284690
:10522000FFF778F80646300028D1022239212046BF
:10523000FFF772FB4FF410712046FFF781FC042248
:1052400032212046FFF768FB606A04F0E7F9014667
:105250002046FFF703FC2046FFF7B8FC208BF03018
:1052600081B2206907F018FA009543230E4A21699C
:1052700060680CF01BFD2046FFF7DEF9607B401CE8
:10528000C0B260730A2803D24FF47A71484301E038
:1052900042F2107080B200F2F3104FF4FA71B0FBDA
:1052A000F1F060833046F8BD541E01082DE9F0414D
:1052B000054617462C6A7E68A068002806D034A3ED
:1052C00040F211623BA140A0FBF75AF878894FF0F9
:1052D00000082C2854D33078022851D1002095F8AA
:1052E000261000290AD92A18331892F827201B7F84
:1052F0009A4245D1401CC0B28142F4D8706804F093
:105300008DF9216888423BD139462046FFF708FDD8
:1053100048BB3848407830B337480079052802D078
:10532000062815D01DE0207B012806D003280BD0CD
:10533000042809D0052807D022E02846FFF780FA84
:105340002846FEF7AFFF1BE02846FEF7EBFE17E00E
:10535000237B032B08D0012B06D0042B04D0052B74
:1053600002D0022804D00BE02846FFF79DFA07E0A0
:10537000207B062804D1A4F81A802846FFF7B2FA49
:10538000C4F808803846BDE8F04107F031B80000A5
:105390002E2E5C4C5749505C6C7769702D312E3441
:1053A0002E315C7372635C636F72655C64686370FA
:1053B0002E6300007265706C79207761736E2774BC
:1053C0002066726565640000417373657274696F6D
:1053D0006E2022257322206661696C6564206174E9
:1053E000206C696E6520256420696E2025730D0A86
:1053F00000000000D0100020A8100020F8B50546DD
:105400002C6A0021204600F003F90020206260622F
:10541000A062E062A0636063206307222146284601
:10542000FEF778FF0646300013D12046FFF7CEFB8B
:10543000208BF03081B2206907F02EF900954323CC
:1054400004F12002216960680CF030FC2046FFF76F
:10545000F3F8607B401CC0B260730A2803D24FF49B
:105460007A71484301E042F2107080B200F2F3100A
:105470004FF4FA71B0FBF1F06083284606F020FB90
:105480000649284606F032FB0449284606F027FB69
:105490000249284606F05EFB3046F8BD501E010862
:1054A000F8B505462C6A0521204600F0B1F8032224
:1054B00021462846FEF72EFF064630001CD1022268
:1054C00039212046FFF728FAA98C2046FFF738FB40
:1054D0002046FFF77BFB208BF03081B2206907F07C
:1054E000DBF80095432304F12002216960680CF089
:1054F000DDFB2046FFF7A0F8607B401CC0B2607364
:105500000A2803D24FF4FA61484301E044F62060D0
:1055100080B200F2F3104FF4FA71B0FBF1F0608347
:105520003046F8BDF8B505462C6A0121204600F04A
:105530006FF8032221462846FEF7ECFE06463000AF
:1055400048D1022239212046FFF7E6F9A98C2046EE
:10555000FFF7F6FA042232212046FFF7DDF9606AF0
:1055600004F05CF801462046FFF778FA0422362161
:105570002046FFF7D1F9206A04F050F80146204692
:10558000FFF76CFA042237212046FFF7C5F9012105
:105590002046FFF709FA03212046FFF705FA1C21F0
:1055A0002046FFF701FA06212046FFF7FDF92046C5
:1055B000FFF70CFB208BF03081B2206907F06CF80C
:1055C00000954323114A216960680CF06FFB204667
:1055D000FFF732F8607B401CC0B26073062803D22C
:1055E000012101FA00F000E03C2000EB4001C1EB9A
:1055F000C0104FF6FF7101EAC00000F2F3104FF443
:10560000FA71B0FBF1F060833046F8BD541E01081A
:10561000027B8A4203D001730021417341837047AA
:1056200070B50546002D10D02C6A95F82D0020F09D
:10563000080085F82D0010F0200F10D0A88CB0F5D0
:10564000107F0FD24FF0FF3070BD35A340F27A22A9
:105650003CA140A0FAF794FE6FF00D0070BD6FF012
:105660000D0070BD002C46D0606808B10CF0EEFA59
:10567000206930B12AA340F29E2241A135A0FAF759
:105680007FFEA06830B126A340F29F2242A131A044
:10569000FAF776FE002020606060A060E060206184
:1056A0006061A061E06120626062A062E0622063EC
:1056B0006063A0630CF08EFA606038B3017A41F049
:1056C000200101724422394960680CF0B5F8432288
:1056D000364960680CF02AF92A46354960680CF0B2
:1056E000B1FA2846FFF732F898B1284600F062F880
:1056F0004FF0FF3070BD3C2004F0D4FD0446200084
:1057000001D02C62C6E74FF0FF3070BD4FF0FF3084
:1057100070BD95F82D1041F0080185F82D1070BD71
:105720002E2E5C4C5749505C6C7769702D312E34AD
:105730002E315C7372635C636F72655C6468637066
:105740002E6300006E6574696620213D204E554C25
:105750004C000000417373657274696F6E202225DE
:105760007322206661696C6564206174206C696EC7
:105770006520256420696E2025730D0A0000000055
:105780007062756620705F6F7574207761736E2725
:1057900074206672656564007265706C792077614B
:1057A000736E27742066726565640000501E0108E0
:1057B000AD52000810B500281DD0046A90F82D10D5
:1057C00021F0080180F82D10002C1DD0606818B160
:1057D0000CF03CFA00206060A06830B10BA340F2EE
:1057E000DA4213A117A0FAF7CBFD2046BDE810401E
:1057F0000021FFF70DBFBDE8104004A340F2C742EF
:105800001BA110A0FAF7BCBD10BD00002E2E5C4CF1
:105810005749505C6C7769702D312E342E315C7392
:1058200072635C636F72655C646863702E63000012
:105830007265706C79207761736E2774206672656B
:1058400065640000417373657274696F6E20222570
:105850007322206661696C6564206174206C696ED6
:105860006520256420696E2025730D0A0000000064
:10587000646863705F73746F703A206E65746966F4
:1058800020213D204E554C4C00000000016A097B50
:10589000012903D00A2901D0052901D1FFF700BE53
:1058A0007047016A097B012903D00A2901D0052923
:1058B00001D1FFF767BC704710B50446226A117B1F
:1058C0000C2913D0062911D0012914D0082922D07F
:1058D00005292DD0042930D0032943D1507B02283B
:1058E0003BD22046BDE81040FFF790BC2046BDE803
:1058F0001040FEF72BBF507B052804D82046BDE89A
:105900001040FFF70FBE2046FFF778FD2046BDE8A8
:105910001040FEF71BBF507B012804D82046BDE88D
:105920001040FEF7BFBC2046BDE81040FEF7FABBB2
:105930002046BDE81040FFF7B3BD507B082804D8CF
:105940002046BDE81040FFF71DBC2046FFF756FD7E
:105950002046BDE81040FEF7F9BE2046BDE81040E5
:10596000FEF7F4BE10BD000010B5FEF7B3FCBDE8B5
:105970001040002202494EF6602007F0BFBF000031
:105980006959000810B5FEF741FFBDE8104000223C
:1059900002494FF4FA7007F0B1BF000085590008C2
:1059A00010B582B0002001900090102104F09CFFFF
:1059B0000446FBF787F8694601A8FBF71AF960B1BE
:1059C00017A0FAF7DDFC4FF4FA70FEF719FB6946F1
:1059D00001A8FBF70EF90028F2D19DF800309DF8E0
:1059E000042018A12046FAF7D7FC2046FAF7AEFDAE
:1059F000024616482146006804F074FA002803DDC8
:105A0000214613A0FAF7BCFC2146002004F060FFF9
:105A1000FEF766FA1348FEF71DFB02B010BD00004A
:105A200044485431312052656164204661696C6597
:105A3000642C205265747279696E672E2E2E0D0AC1
:105A40000000000025642025640D0A0028000020C5
:105A5000536F636B65742053656E742025730D0A54
:105A60000000000080841E002DE9F0410446002C57
:105A700006D153A34FF43C725BA15FA0FAF780FC00
:105A80002078102806D04EA340F2F12265A15AA03A
:105A9000FAF776FC6078042806D049A340F2F22297
:105AA00068A155A0FAF76CFC606830B944A340F2D5
:105AB000F3226DA150A0FAF763FCA06A30B940A3AD
:105AC0004FF43D726DA14CA0FAF75AFCA06A007A1F
:105AD00000F0010700F00206032825D000251DB1C3
