:020000040800F2
:10000000E8D3012031030008551D0008C519000878
:10001000191C000805090008A13D000800000000A7
:100020000000000000000000000000004303000882
:100030008D0E000800000000B9020008753A0008A3
:100040004B0300084B0300084B0300084B03000858
:100050004B0300084B0300084B0300084B03000848
:100060004B0300084B0300084B0300084B03000838
:100070004B0300084B0300084B0300084B03000828
:100080004B0300084B0300084B0300084B03000818
:100090004B0300084B0300084B0300084B03000808
:1000A0004B0300084B0300084B0300084B030008F8
:1000B0004B030008A93B00084B0300084B03000852
:1000C0004B0300084B0300084B0300084B030008D8
:1000D0004B030008E13B00084B0300084B030008FA
:1000E0004B0300084B0300084B0300084B030008B8
:1000F0004B0300084B0300084B0300084B030008A8
:100100004B0300084B0300084B0300084B03000897
:100110004B0300084B0300084B0300084B03000887
:100120004B0300084B0300084B0300084B03000877
:100130004B030008D10F00084B0300084B030008D5
:100140004B0300084B0300084B0300084B03000857
:100150004B0300084B0300084B0300084B03000847
:100160004B0300084B0300084B0300084B03000837
:100170004B0300084B030008E90900084B03000883
:100180004B0300084B03000800F002F800F05DF894
:100190000AA090E8000C82448344AAF10107DA45E2
:1001A00001D100F052F8AFF2090EBAE80F0013F0D7
:1001B000010F18BFFB1A43F001031847881D010007
:1001C000A81D01000A4410F8014B14F00F0508BFE8
:1001D00010F8015B240908BF10F8014B6D1E05D013
:1001E00010F8013B6D1E01F8013BF9D1641E03D0EC
:1001F000641E01F8015BFBD19142E4D3704700001B
:100200000023002400250026103A28BF78C1FBD81F
:10021000520728BF30C148BF0B607047642900F007
:100220002D81732900F0EF82002070471FB511F077
:10023000A5FB00F05BFA04000020002111F088FB10
:10024000401C60601FBD10B510BD00F02DFB1146B5
:10025000FFF7ECFF09F0DEFC00F04BFB03B4FFF707
:10026000F2FF03BC03F0A2FDEFF3108072B67047FB
:1002700080F310887047264C4FF6FF7525604FF0CD
:10028000000484F30988234C4FF001052570224CAB
:100290004FF08055256062B6FEE730B41E4C4FF03B
:1002A0008055256030BC704730B41B4C4FF08055F2
:1002B000256030BC704700BF72B6EFF3098050B1C3
:1002C0001EF0100F08BF20ED108A203880E8F00FD4
:1002D00012490968086000B5114880475DF804EBD1
:1002E000104811490A7802700C4810490A680260E7
:1002F000106890E8F00F20301EF0100F08BFB0EC2F
:10030000108A80F309884EF0040E62B6704700BF71
:1003100022ED00E0F700002004ED00E010010020D5
:10032000392D0008F4000020F500002018010020FD
:100330000948804709480047FEE7FEE7FEE7FEE779
:10034000FEE7FEE7FEE7FEE7FEE7FEE704480549B5
:10035000034A054B70470000953A000889010008E0
:10036000E8CF0120E8D30120E8CF0120704700004A
:1003700010B500F0BBF9001D10BD00BFD515010080
:100380000FB4044910B503AA029800F041FA10BC5A
:100390005DF814FB900100200FB41CB5074B06AAB2
:1003A0007B4469460090059800F003FA00206946F6
:1003B00000F012FA1CBC5DF814FB000035040000CC
:1003C0002DE9F0410E460446002020622046E168F7
:1003D000884730B3252805D0D4E901219047206A09
:1003E000401CF2E7E168204600278847050018D046
:1003F000A5F14100192802D820354FF40067324694
:10040000294620462760FFF709FF40B1012804D0A4
:10041000F61D26F007060836D8E7361DD6E728462B
:10042000DAE7206ABDE8F08170B50C460546012A7E
:1004300005D02878800600D5EA69002302E0012370
:1004400005E05B1C934202D2E05C0028F9D1A86968
:10045000E618C01AA861286A184428622846AFF333
:10046000008004E0D5E9012114F8010B9047B44263
:10047000F8D32846AFF3008070BD00002DE9F041AD
:100480000646002410687529314616A510D0AFF332
:100490000080002802DA404213A507E031688A078D
:1004A00001D512A502E0490704D511A5012401E0F8
:1004B000AFF3008000210A2206F1240709E0B0FB17
:1004C000F2FCB0FBF2F302FB1C003030785418460B
:1004D000491C0028F3D123462A463046BDE8F041A6
:1004E00000F008B9000000002D0000002B00000003
:1004F0002000000040EA010310B59B070FD1042A39
:100500000DD310C808C9121F9C42F8D020BA19BADE
:10051000884201D9012010BD4FF0FF3010BD1AB143
:10052000D30703D0521C07E0002010BD10F8013B98
:1005300011F8014B1B1B07D110F8013B11F8014BBF
:100540001B1B01D1921EF1D1184610BD10B5431CE2
:1005500002E010F8011B71B18107FAD14FF00132AE
:1005600002C88C1A8C4314EAC211F9D0C01A0A06C8
:1005700003D0C01E10BDC01A10BD0A0401D0801ED9
:1005800010BD0902FCD0401E10BD032A40F230808D
:1005900010F0030C00F0158011F8013BBCF1020FC4
:1005A000624498BF11F801CB00F8013B38BF11F845
:1005B000013BA2F1040298BF00F801CB38BF00F85C
:1005C000013B11F0030300F03581083AC0F00880C8
:1005D00051F8043B083A51F804CBA0E80810F5E7BD
:1005E000121D5CBF51F8043B40F8043BAFF30080A0
:1005F000D20724BF11F8013B11F801CB48BF11F815
:10060000012B24BF00F8013B00F801CB48BF00F8E4
:10061000012B70474FF0000200B5134694469646F2
:10062000203922BFA0E80C50A0E80C50B1F1200105
:10063000BFF4F7AF090728BFA0E80C5048BF0CC0B3
:100640005DF804EB890028BF40F8042B08BF704711
:1006500048BF20F8022B11F0804F18BF00F8012B83
:10066000704700004FF0013C50F8042B51F8043B58
:100670009A4221D1A2EB0C03934313EACC1317D176
:1006800050F8042B51F8043B9A4215D1A2EB0C030D
:10069000934313EACC130BD150F8042B51F8043BCD
:1006A0009A4209D1A2EB0C03934313EACC13DBD09B
:1006B0004FF00000704700BFD01A01BAB1FA81F1C3
:1006C00001F0180122FA01F0CB40C1F12001DBB2A8
:1006D000C0B2C01A2CFA01F3D11A914311EAC31126
:1006E000E6D17047704770477047704700487047C1
:1006F000A4CF01202DE9F0470D46994692460446C5
:1007000000F124080168880604D5E06921F0100191
:10071000216000E00120A84201DD471B00E0002726
:10072000A1697A1902EB0900081AA0612078C006B5
:1007300002D42046AFF30080002608E0D4E901216E
:100740001AF806009047206A401C761C20624E452D
:10075000F4DB2078C0060AD52046AFF3008006E01F
:10076000D4E9012130209047206A401C2062381EC5
:10077000A7F10107F4DC07E0D4E9012118F805002E
:100780009047206A401C2062281EA5F10105F3DC79
:100790002046AFF300802078000602D50220BDE895
:1007A000F0870120FBE7000001694A1C026108781C
:1007B000704700B58FB0CDE90131002105910549A1
:1007C0007944CDE9031011466846FFF7F9FD0FB0F3
:1007D00000BD0000E5FFFFFF0A6802F8010B0A6098
:1007E000704710B5436913B1AFF3008001E0FFF724
:1007F0001BFE012010BD127800F124010A700022B6
:100800004A700122EDE711684FF0FF32E9E700007E
:10081000074B70B50D467B44FFF7CBFF04462846D7
:1008200000F03EF810B14FF0FF3070BD204670BDB3
:100830009F6F000010B5203AC0F00B80B1E818504F
:10084000203AA0E81850B1E81850A0E81850BFF4BA
:10085000F5AF5FEA027C24BFB1E81850A0E8185059
:1008600044BF18C918C0BDE810405FEA827C24BFAD
:1008700051F8043B40F8043B08BF7047D20728BF3B
:1008800031F8023B48BF11F8012B28BF20F8023B8A
:1008900048BF00F8012B70470048704784CF012003
:1008A000007B00F0800070477546FFF7F5FFAE460D
:1008B00005006946534620F00700854618B020B56C
:1008C000FFF744FDBDE820404FF000064FF0000761
:1008D0004FF000084FF0000B21F00701AC46ACE8E8
:1008E000C009ACE8C009ACE8C009ACE8C0098D4655
:1008F000704710B50446AFF300802046BDE81040B5
:10090000FFF7ACBCFEE7000004490028086814BFEC
:1009100040F0010020F00100086070470000055021
:100920000149486170470000000005500449002853
:10093000086814BF40F4804020F48040086070478D
:10094000000005502DE9F0410C460546012190B00C
:100950001E461746880502F0AFFEDFF85480404679
:1009600000F086F9404600F047FA0028FAD14FF02F
:10097000007000900F48CDE901050020CDE9030487
:100980004FF48051CDE906610911CDE90871059058
:1009900049020A9104210B910321CDE90C100E901C
:1009A0006946404600F034FA10B0BDE8F08100001E
:1009B0002864024028000550054800210160C160FC
:1009C0001F2242618161C161016241627047000082
:1009D00000000550034A0146002012690A4218BF70
:1009E000012070470000055010B50120FFF7F2FF0D
:1009F000012818BF10BD08F06DF90120FFF790FF26
:100A00000649D1F8A802002814BF00200120C1F82F
:100A1000A80203480178491C017010BD00804242C1
:100A200060010020044A0029D16811BF0843C04377
:100A300080B20840D060704700000550134910B4E0
:100A40000A6822F0010222F480420A600A680388E0
:100A5000B0F802C0C48843EA0C03B0F804C022F422
:100A6000F9724CEA040C43EA0C03B0F808C022F413
:100A7000606243EA0C03B0F80AC0808943EA0C03C1
:100A800018431043086010BC704700000000055078
:100A900010B50121034800F0E1F8BDE81040012045
:100AA000FFF732BF2864024070B515480024016882
:100AB00021F44031016001680160124D04E0601CC6
:100AC000C4B2012003F0C8FAD5F8200210B1642C9A
:100AD00011D2F4E7642C38BF00240CD204E0601C6F
:100AE000C4B2012003F0B8FAD5F8200228B1642C72
:100AF0003CBF002070BD012070BD642CEFD3FAE72D
:100B0000001802400000434270B582B0012140202D
:100B100002F0D2FD4FF48070012600908DF8046041
:100B200000258DF8065002208DF805000F4C8DF839
:100B300007606946204600F0E3FE206820F440305C
:100B40002060206840F480302060094CC4F8A05236
:100B5000142004F5287403F045FA26601E2003F0E3
:100B60007BFAFFF7A1FF02B070BD00000018024041
:100B7000000043422DE9F34F364883B0016821F469
:100B800040310160016841F480310160DFF8C880C4
:100B90004FF0000AC8F8A0A2142003F023FA4FF087
:100BA0000109C8F8A0921E2003F056FAFFF77CFF57
:100BB000002807BF0026EB46012005B018BFBDE89E
:100BC000F08F002005464006070E002404E0601C5C
:100BD000C4B2012003F040FAD8F82002002818BF60
:100BE000642CF4D3002404E0601CC4B2012003F0A0
:100BF00033FAD8F8200208B9642CF5D3282003F082
:100C00002BFAD8F82002002814BF48465046384333
:100C1000691CCDB2082DD6D30BF80600701CC6B2E5
:100C2000052ECED39DF800009DF801109DF80330ED
:100C300042189DF802100B441A449DF804309A4261
:100C400003D1049A10700398017005B00020BDE82C
:100C5000F08F0000001802400000434200290168A4
:100C600014BF41F0010121F0010101607047000053
:100C70002DE9F003016821F001010160002101600C
:100C800041608160C160016121214161444A45495F
:100C90004FF03D08904202BFC1F80880BDE8F00364
:100CA0007047414A4FF47464904202BF8C60BDE8C3
:100CB000F00370473D4A4FF47415904202BF8D60B7
:100CC000BDE8F00370473A4A4FF07466904202BFA5
:100CD0008E60BDE8F0037047364B374A984202BF3A
:100CE000CA60BDE8F0037047DFF8D0C0344B604500
:100CF00002BFCB60BDE8F0037047324FDFF8C8C0D9
:100D0000B84202BFC1F80CC0BDE8F0037047DFF87D
:100D1000BC904FF03D57484502BFCF60BDE8F0039F
:100D20007047DFF8AC902B49484502BFC1F80080FE
:100D3000BDE8F0037047DFF8A080404502BF0C60BB
:100D4000BDE8F0037047254CA04202BF0D60BDE82E
:100D5000F0037047224CA04202BF0E60BDE8F003D2
:100D60007047204C2049A04202BF0A60BDE8F00352
:100D700070471E4A904202BF0B60BDE8F003704707
:100D80001B4A904202BFC1F800C0BDE8F0037047A3
:100D9000184A904208BF0F60BDE8F003704700009A
:100DA0001060024000600240286002404060024043
:100DB00058600240706002403D00002088600240A0
:100DC000400F0020A060024000003D20B8600240BB
:100DD00010640240086402402864024040640240FB
:100DE00058640240706402400C640240886402400F
:100DF000A0640240B864024001460020096811F076
:100E0000010F18BF01207047406880B27047000092
:100E100010B402681B4BD1F80CC01A400B6843EAAF
:100E20000C03D1E905C44CEA040C43EA0C03D1F8E5
:100E30001CC043EA0C03D1F820C043EA0C03D1F8EC
:100E400024C043EA0C03D1F828C043EA0C03D1F8CC
:100E500034C043EA0C03D1F838C043EA0C031A4308
:100E600002604269D1E90B3C22F0070243EA0C031D
:100E70001A4342610A6942604A6882608968C160B7
:100E800010BC70473F801CF0416070477047000005
:100E9000014948617047000000900240044A00295F
:100EA000D16914BF084321EA0000D06170470000F7
:100EB000009002402DE9F001134E0023002A7060DB
:100EC0001BD94FF0004744F2F458551E00EB431C69
:100ED000CCF80070C3EBC31404EB440401EB8404AE
:100EE000CCE90184AB423ABF0CF12004CCF80C40B1
:100EF000CCF80C005B1C9342E8D30449C86004485A
:100F0000B060BDE8F0017047A401002000900240ED
:100F100078CF012070B4DFF84CC00023002ACCF851
:100F2000000084BF4FF48015561E16D900EB431CF9
:100F3000CCF80050C3EBC31404EB440401EB84046D
:100F4000CCF80840B3423ABF0CF12004CCF80C4076
:100F5000CCF80C005B1C9342E8D30349086170BCD9
:100F600070470000A4010020009002400268114375
:100F70000160704710B50121480602F0A9FBBDE8E9
:100F8000104000214FF0007002F0A2BB0148006841
:100F900080687047A40100200268002112F0004F11
:100FA00004BF026812F4004F06D1026812F4807F79
:100FB0001CBF0068C0F30D4108467047034900207C
:100FC000096811F0010F18BF01207047009002401E
:100FD00010B50A4C2068FFF7DFFF30B108F012FAB5
:100FE0002068FFF7D9FF0028F8D14020FFF750FF15
:100FF000BDE810404FF48030FFF74ABFA801002041
:101000002DE9F04186B000278B4E044600970197EA
:101010003069884620F01C0502A802F07DFB874954
:101020000398874A0144914238BF45F0080515D31B
:101030008449854A0144914238BF45F00C050DD3DF
:101040008249834A0144914208D382490844824933
:10105000884234BF45F0040545F0100535614FF472
:1010600000420021404600F07FFA002819BF7B486B
:10107000009006B0BDE8F081401E0090FCD12068D1
:10108000002818BF764D43D001980121401C0190E3
:10109000404600F075F910F0040F02D10198A84203
:1010A000F2D30198A8421BD04FF480520021404651
:1010B000019700F059FA002804BF06B0BDE8F0819E
:1010C00001980121401C0190404600F059F910F0B0
:1010D000200F02D10198A842F2D30198A84203D16F
:1010E00006B00020BDE8F0811F214046019700F0C6
:1010F00047F910F0100F0EBF27624FF40061216214
:1011000010F0040F12BF67614FF48040606114E07B
:10111000206A6169C00840EA510082B2002140465D
:1011200000F022FA002819BF6FF07F40009006B04F
:10113000BDE8F081401E0090FCD13068494908406C
:10114000D4E901121143D4E903231A43114362691C
:101150001143A2691143E2691143226A1143626A91
:101160001143A26A1143E26A1143226B1143626B7D
:10117000114308433060D4E90E010843D4E910124A
:1011800011430843A16C0843E16C0843216D0843F7
:10119000616D08437060A06DB060E06DF060B06993
:1011A0004FF641710840D4E919121143B4F8603088
:1011B000E26E42EA03421143226F1143626F114310
:1011C0000843B061D4E91E010843F06126488169F3
:1011D000264A1140D4E920231A43D4E9223C43EAA9
:1011E0000C031A43D4F890301A43D4F894301A43BD
:1011F000D4F898301A43D4F89C301A43D4F8A0306D
:101200001A4311438161D4E929121143D4E92B23F4
:101210001A431143D4F8B42041EA8201D4F8B8202B
:10122000114341F400010160016841F08001016057
:1012300006B00120BDE8F0810080024000D3CEFE60
:10124000C0E1E40040F1E9FD40787D0100796CFCEB
:10125000005A6202001F0AFA80F0FA02FFFF0F0034
:10126000FFFF04000F8120FF00900240233FDEF8C3
:1012700000F1804000F520308A8802640A78D1F8B5
:10128000011042EA012141647047000010B5B0B07E
:1012900001214FF0606002F00FFAFFF76BFE00F0E3
:1012A000D7F8FFF78BFE0128FBD0684600F0F4F872
:1012B0000120009000204FF40071CDE90A100904CC
:1012C00007901190CDE920010E90149013900A110F
:1012D00015902590269023920420CDE928018003C3
:1012E0002A9080012B9040122C9040002E900021DB
:1012F0006846FFF785FEC4B2012C03D101210348E3
:10130000FFF7CCFD30B0204610BD000040000100CA
:1013100010B5A021002009F04FFA184CA021206040
:10132000002009F049FA606041F6C451002009F03C
:1013300043FAA06041F6C451002009F03DFAE06094
:10134000216800291CBF6268002A05D0A268002A13
:101350001EBF0028002010BD4FF0000009F0F4F976
:101360000020616809F0F0F90020A16809F0ECF9AB
:101370000020E16809F0E8F9012010BD50010020CB
:1013800081B000220092134A13694FF4784C03F0A5
:101390001C030CEAC02018434FF4F86303EA8111E0
:1013A000084320F0020040F0010010610A49009853
:1013B000401C0090106910F0010F1CBF0098814282
:1013C000F5D8009888420EBF0020506980B201B065
:1013D0007047000000800240FFFF040030B41A4C48
:1013E00000231A4621680D6815F0004F0ED01749EA
:1013F00094464B6913F0800F03D080234B61C1F8F2
:1014000008C002604260826030BC7047D1F800C002
:101410001CF4004F0ED1D1F800C01CF4807F1CBF1B
:10142000D1F800C01CF4007F04D00A68C2F30D425A
:10143000131F8A68D1F80CC0C4F800C00360C0E96B
:10144000012130BC70470000A8010020009002403C
:101450000248016841F001010160704700900240BC
:101460000B49086840F0080008600A48826942F4A5
:10147000801282610A6842F004020A60816941F4C4
:1014800000518161816941F0020181617047000072
:101490000080024000900240012101600021416073
:1014A00081604FF48042C160C0E90412D2108161B2
:1014B000C0E9071241628162C16201634163402257
:1014C0008163C0E90F122022C0E91121C1640165C6
:1014D000416581658022C165C0E918128166C166D7
:1014E00001674167D2048167C0E91F125210C0E949
:1014F00021211311C0E92331C0F89410C0F89810CD
:10150000C0F89C10C0E928125212C0F8A82092011D
:10151000C0F8AC205212C0E92C21C0F8B8107047B6
:101520000F4A11680B6813F0004F1CBF0020704772
:10153000C0F30C004860086840F04050086008683C
:1015400040F0004008600748436913F0040F03D0DF
:101550000423436100234360C86810600120704782
:10156000A40100200090024018B400230093134B04
:10157000D3F810C04FF478440CF01C0C04EAC020DF
:1015800040EA0C004FF4F86C0CEA8111084340F07B
:1015900003005A6118610A490098401C00901869BC
:1015A00010F0010F1CBF00988142F5D800988842C6
:1015B0000CBF0020012018BC7047000000800240D2
:1015C000FFFF04008000A0F1C0400029016812BFA5
:1015D00041F00101014A114001607047FEFF0F0018
:1015E000D0E901121143D0E903231A4311434269A0
:1015F000114382691143C2691143026A1143426A6D
:101600001143826A1143C26A1143026B0A430168A3
:101610008900A1F1C0410A608168082907D10168E9
:101620008900A1F1C0410A6842F040020A60416BA2
:10163000D1E9002342EA03128B68B1F80CC01B0207
:1016400043EA0C431A430B8A42EA03520B7D896931
:1016500042EA0362114302689200A2F1C042516063
:10166000C16AB1F5804F08D000686FF0704180000A
:10167000A0F1C040C0F804117047816BD1E900238C
:1016800042EA03128B68B1F810C01B0243EA0C5304
:101690001A430B7D896942EA0362006811438000A6
:1016A000A0F1C040C0F80411704700002DE9F041DE
:1016B0009AB00121782001F0FFFF4FF633701090AF
:1016C00002208DF8440003208DF8450000248DF899
:1016D00046400120864D8DF8470010A9284600F0AD
:1016E0000FF94FF68371834E109110A9304600F028
:1016F00007F94FF23F01804F109110A9384600F0D2
:10170000FFF840F23F41DFF8F481109110A9404604
:1017100000F0F6F80C220021284600F040F90C22D7
:101720000121284600F03BF90C220421284600F054
:1017300036F90C220521284600F031F90C22082147
:10174000284600F02CF90C220921284600F027F940
:101750000C220A21284600F022F90C220B212846EF
:1017600000F01DF90C221146284600F018F90C2251
:101770000D21284600F013F90C220E21284600F016
:101780000EF90C220F21284600F009F90C22002145
:10179000304600F004F90C220121304600F0FFF839
:1017A0000C220721304600F0FAF80C2208213046BE
:1017B00000F0F5F80C220921304600F0F0F80C2278
:1017C0000A21304600F0EBF80C220B21304600F0E5
:1017D000E6F80C221146304600F0E1F80C220D210B
:1017E000304600F0DCF80C220E21304600F0D7F82D
:1017F0000C220F21304600F0D2F80C22002138468E
:1018000000F0CDF80C220121384600F0C8F80C2277
:101810000221384600F0C3F80C220321384600F0BC
:10182000BEF80C220421384600F0B9F80C2205213C
:10183000384600F0B4F80C221146384600F0AFF8F4
:101840000C220D21384600F0AAF80C220E21384651
:1018500000F0A5F80C220F21384600F0A0F80C2269
:101860000021404600F09BF80C220121404600F088
:1018700096F80C220221404600F091F80C22032138
:10188000404600F08CF80C220421404600F087F816
:101890000C220521404600F082F80C220A21404625
:1018A00000F07DF809201294CDE91340159404202E
:1018B000CDE90004169417941020CDE90240189445
:1018C00004940002CDE9084012A80794CDE90C4029
:1018D000059406940E900A940B946846FFF780FED8
:1018E00001210420FFF76EFE1AB0BDE8F081000070
:1018F000000C024000100240001402400018024098
:101900002DE9F0010022012603270B6806FA02FCEC
:1019100003EA0C0363453BD10568530007FA03F45F
:10192000A54305600D79D0F800809D4045EA080583
:1019300005600D79012D18BF022D1AD1856825EAA1
:10194000040585604D79D0F8088005FA03F545EA6D
:1019500008058560456825EA0C0CC0F804C0D0F87D
:1019600004C08D7905FA02F5ADB24CEA050CC0F859
:1019700004C0D0F80CC02CEA040CC0F80CC091F8DC
:1019800007C00CFA03F3D0F80CC043EA0C03C360A1
:1019900002F10102102AB8D3BDE8F00170474B07ED
:1019A000DB0E9A40C90800EB8100016A4FF00F0C72
:1019B0000CFA03F399430162016A11430162704713
:1019C00001837047FEE7000010B582B001211120AD
:1019D00001F072FE1C20009000208DF8040001240C
:1019E0008DF8074069460648FFF78AFF02208DF808
:1019F0000700009469460348FFF782FF02B010BD5C
:101A0000001002400000024070B50121254C264E16
:101A1000264D00280ABF2078217000280FD0D5F865
:101A2000100200281CBFD5F80C02002810D0D5F8F1
:101A3000080200281CBFD6F80002012808D0D5F8FB
:101A40001002012804BFD5F80C02012827D11EE09E
:101A50004FF00A0002F0C6FA00202070D5F81002FC
:101A6000002804BF012070BDD5F80C02002804BF77
:101A7000022070BDD5F80802002804BF032070BD05
:101A8000D6F80002012804BF042070BD07E0D5F895
:101A90000802012802BFD6F80002002821704FF08A
:101AA000000070BD4E010020000040420000424294
:101AB00070B584B001214D2001F0FEFD01218803A5
:101AC00001F01EFE012001F0C3FF862003250090D7
:101AD0008DF8055002208DF804000024384E8DF852
:101AE00006408DF8074069463046FFF709FF0B2294
:101AF00001213046FFF753FF0B2202213046FFF74A
:101B00004EFF0B2207213046FFF749FF32202D4EB2
:101B1000009069463046FFF7F3FE0B220121304664
:101B2000FFF73DFF0B2204213046FFF738FF0B2261
:101B300005213046FFF733FF4FF4D040224E00908E
:101B400069463046FFF7DCFE0B2211463046FFF7B0
:101B500026FF0B220D213046FFF721FF0B220E211D
:101B60003046FFF71CFF8DF80550012508208DF841
:101B7000045000908DF806408DF8074069461348E0
:101B8000FFF7BEFE124EC6F88C42322006F52376D1
:101B900002F028FA35603D208DF808008DF80940E4
:101BA0008DF80A408DF80B5002A800F0D5F8FFF729
:101BB0006DFB00280CBF0120002004B070BD0000A8
:101BC000000002400008024000180240000C0240E1
:101BD0000080414210B582B00121202001F06CFD4F
:101BE0004FF4C060009001208DF8040000208DF8B3
:101BF00006008DF807000320064C8DF805006946A5
:101C00002046FFF77DFE4FF4C0612046FFF7D8FE67
:101C100002B010BD00140240FEE700002DE9F047BD
:101C200084B00121172001F047FD0121084601F091
:101C30005BFD5020009002208DF8040000248DF8F8
:101C4000064003263E4F8DF8056001258DF80750AC
:101C500069463846FFF754FEC021DFF8E88000915E
:101C600069464046FFF74CFE4FF43C61DFF8D890E0
:101C7000009169464846FFF743FE6021DFF8CCA09B
:101C8000009169465046FFF73BFE0D22042138467D
:101C9000FFF785FE0D2206213846FFF780FE0D2254
:101CA00007214046FFF77BFE0D2206214846FFF73D
:101CB00076FE0D2207214846FFF771FE0D2208210E
:101CC0004846FFF76CFE0D2209214846FFF767FEE4
:101CD0000D220B214846FFF762FE0D2206214046E9
:101CE000FFF75DFE0D2205215046FFF758FE0D223D
:101CF00006215046FFF753FEFEF75EFE14482021F2
:101D0000048044818481048181804480C480FEF702
:101D100095FE01210846FEF785FE0120FEF706FE2E
:101D20004E208DF808008DF809508DF80A608DF866
:101D30000B5002A800F010F804B0BDE8F0870000D6
:101D4000000002400004024000080240001002406F
:101D5000A02500207047000010B4C27801784FF031
:101D60000F0C01241AB3184A126801F1E02102F4A1
:101D7000E062C2F5E062C2F30722C2F104032CFA6A
:101D800002FC42789A40837803EA0C031A4312015A
:101D900081F80024007800F01F0104FA01F14009E5
:101DA000800000F1E020C0F8001110BC704701F085
:101DB0001F0004FA00F04909890001F1E021C1F88F
:101DC000800110BC704700000CED00E0034940F0BA
:101DD000FD7040F080600860704700000CED00E08E
:101DE00070B505460D480E4614468078002818BF89
:101DF000122001D0107070BD2B78012B18BF022B60
:101E000004D0032B1CBF042B0120F3D1FEF72CFAC6
:101E10006E61FEF72DFA0020207070BDF0000020EA
:101E200070B586B000F0CCF8544A00241463947066
:101E3000D4701472D471D460D461946154615470BC
:101E40009471204602F134010C54401CC0B20828A1
:101E5000FAD3147154719462494940F29450146257
:101E6000401E000401F8014B000CF9D145494FF424
:101E70008070401E000401F8014B000CF9D1DFF81E
:101E800000C1411CCBB2C0EBC00000EB4000C3EB73
:101E9000C3030CEB800003EB43030CEB83034361B0
:101EA00039A3C364C8B21028EBD3C0EBC00000EB69
:101EB00040000CEB800034A14461C1643349C2F896
:101EC00024C04FF4B470D462401E000401F8014BEA
:101ED000000CF9D1DFF8B4C0411C00EB40008BB21C
:101EE0000CEBC00003EB43030CEBC3030470436033
:101EF00025A3436188B20E28EED300EB40000CEB23
:101F0000C00021A1047044604161C2F810C001F01A
:101F100055F901F097F901F0BBF91D484FF6FF7133
:101F2000CDE900108025CDE90254032600F5FE72AC
:101F30003F2304960021174800F038FC05AA16A19B
:101F40003F2000F039FD18484FF6FE71CDE9001032
:101F5000CDE9025400F5FE723E2304960021134899
:101F600000F024FC05AA12A13E2000F025FD00F09F
:101F700095FF06B0BDE8704000F028B8F0000020E2
:101F80000C1A00200C1900203F000000A4130020B0
:101F90000C1700206134000875432F4F532D494919
:101FA0002049646C650000000C1500209534000881
:101FB00075432F4F532D494920537461740000001D
:101FC00001490020088070474C0100207047000044
:101FD0000549C879012818BF70478878FF283CBF99
:101FE000401C887070470000F000002070B5174C4E
:101FF000E079012818BF70BDFEF736F9A1780546D3
:1020000021B1481E10F0FF01A1701AD1E078C0B9CB
:102010000F48A1790F4A415C525C805C00EBC10023
:10202000C2B20D48627150F82210A162207982423A
:1020300007D0886B401C8863E068401CE060FEF7B6
:1020400033F92846BDE87040FEF712B9F0000020D1
:102050006C1A0108240100200C1900202DE9F04120
:1020600006461F480F46007800281CBF0020BDE828
:10207000F081FEF7F9F8DFF86C80D8F8004014B171
:102080006168C8F80010FEF7F3F834B3FEF7ECF817
:10209000014615480568BDB12A6802600846FEF78A
:1020A000E7F806EB8700C5E90160EE602E61AF82BC
:1020B0000020E8820221217020810CA0656060610F
:1020C000204601F071F808E0D8F80000606008468A
:1020D000C8F80040FEF7CCF800242046BDE8F081A7
:1020E000F200002000010020340100203F00000029
:1020F0002DE9F05F044600788B461546022818BF8C
:10210000012001D0107023E030480078002818BF6B
:102110000F20F7D1FEF7A8F88246A07A002814BF56
:1021200001260026DFF8A880DFF8A8900027BBF181
:10213000000F07D0BBF1010F23D05046FEF798F8EF
:10214000072004E03EB15046FEF792F8492028707F
:102150002046BDE8F09F20A060616068D8F80010BC
:102160000160C8F800002770D9F80000606027817E
:102170005046C9F80040FEF77BF82F700020BDE8FC
:10218000F09F40B1002304221946204600F088FF4A
:10219000A07A0028F6D110A060616068D8F800101D
:1021A0000160C8F800002770D9F80000606027813E
:1021B0005046C9F80040FEF75BF8002E18BF01F04A
:1021C00087F82F700020BDE8F09F0000F20000208B
:1021D00034010020000100203F0000002DE9F047FD
:1021E0000546007888461446022804D00120107065
:1021F0000020BDE8F0872F48007820B10220107041
:102200000020BDE8F0872C48007820B10D20107028
:102210000020BDE8F087FEF727F86B6881460026AE
:10222000D88A80B11869011D19610568D88A401ED5
:10223000D8829868814204BF586818614846FEF702
:1022400017F8267033E01D4F3A6892F8300040F0DE
:10225000040082F8300082F831602846C2F82C80F1
:1022600000F074FF4846FEF703F801F031F8FDF77F
:10227000FBFF8046386890F83110002904BF056ADA
:1022800026700AD0022904BF00250E2004D029465A
:1022900000F04AFF00250A202070386880F830607E
:1022A00080F83160C66106624046FDF7E1FF2846CE
:1022B000BDE8F087F2000020F300002010010020AC
:1022C00070B5044600780D4602281CBF012070BD81
:1022D000FDF7CAFF0646A07A58B10023042229461A
:1022E000204600F0DDFE3046FDF7C2FF00F0F0FFB3
:1022F00019E06068C18A828A914204D33046FDF7B2
:10230000B7FF1E2070BDC268111DC1601560C18A73
:10231000491CC182D0E902128A4204BF4168C160EF
:102320003046FDF7A5FF002070BD70B5054600786A
:102330000C4602281CBF012070BDFDF795FF014629
:10234000A87A207405F10B0304F108024FF0000C89
:1023500013F8010B02F8010B0CF1010000F0FF0C67
:10236000BCF1080FF4D36868C28A002A1CBF026956
:1023700012682260C28AA280808AE0800846FDF747
:1023800077FF002070BD000010B5094CE0790128EE
:1023900018BF10BDFDF768FFA17821B9E178FF29CA
:1023A0003CBF491CE170BDE81040FDF761BF000073
:1023B000F000002010B50D4CE079012818BF10BDC9
:1023C000FDF752FFE17839B1491E11F0FF01E170CC
:1023D00004BFA178002903D0BDE81040FDF748BF35
:1023E000FDF746FFBDE8104000F072BFF00000208E
:1023F00070B505460E48007800281CBF002070BD4F
:10240000FDF732FF01460B4804680CB162680260B8
:102410000846FDF72DFF4CB10320207025810020D8
:10242000606005A06061204600F0BEFE204670BDE1
:10243000F2000020000100203F0000002DE9F047DD
:10244000044600788A461546032807D001201070FC
:102450002EA0FDF795FF2046BDE8F08730480078B4
:1024600028B10F2010702FA0FDF78AFF4BE0FDF779
:10247000FBFE8146A07A002814BF01260026DFF863
:10248000B8800027BAF1000F07D0BAF1010F1AD0B7
:102490004846FDF7EDFE072004E02EB14846FDF763
:1024A000E7FE492028702AE024A060612770D8F850
:1024B0000000606027814846C8F80040FDF7D8FE5C
:1024C0002F7000241BE040B1002301221946204652
:1024D00000F0E6FDA07A0028F6D118A06061277010
:1024E000D8F80000606027814846C8F80040FDF732
:1024F000BFFE002E18BF00F0EBFE2F70002429460F
:102500000FA0FDF73DFF2046BDE8F0874F535F4524
:1025100052525F4556454E545F545950450D0A007E
:10252000F20000204F535F4552525F44454C5F49D3
:1025300053520D0A00000000000100203F0000007F
:10254000257300002DE9F0470546007888461446BB
:1025500003281EBF01201070BDE8F08727480078CF
:10256000002818BF022002D01070BDE8F087244870
:102570000078002818BF0D20F6D1FDF775FE8146C2
:102580002889002638B1401E28814846FDF770FE94
:102590002670BDE8F0871B4F3A6892F8300040F093
:1025A000010082F8300082F831602846C2F82C80A1
:1025B00000F0CCFD4846FDF75BFE00F089FEFDF71C
:1025C00053FE8046386890F83110002908BF267005
:1025D00008D0022908BF0E2003D0294600F0A4FD30
:1025E0000A202070386880F8306080F83160C66159
:1025F0004046BDE8F047FDF73BBE0000F20000207A
:10260000F30000201001002070B504460078032874
:102610001CBF012070BDFDF727FE0546A07A58B10A
:10262000002301221946204600F03AFD2846FDF716
:102630001FFE00F04DFE09E020894FF6FF71884231
:1026400006D2401C20812846FDF712FE002070BDF6
:102650002846FDF70DFE332070BD70B504460078A6
:102660000D4603281CBF012070BDFDF7FDFDA17ABA
:10267000A97204F10B03AA1C4FF0000C13F8011B04
:1026800002F8011B0CF1010101F0FF0CBCF1080F75
:10269000F4D321892980FDF7EBFD002070BD0000F7
:1026A0000B49C879002818BF70470A4A88790A4B35
:1026B000105C1B5CD25C02EBC000C0B2074A4871E0
:1026C000087152F8200088620862FDF7D4BD00004E
:1026D000F00000206C1A0108240100200C190020D1
:1026E00010B5022000F02AFBFDF7BEFD084C0021CA
:1026F000E161FDF7BDFD142000F020FBFDF7B4FD06
:10270000E169616101216170BDE81040FDF7B0BD74
:10271000F0000020704700002DE9F04184B01C4615
:1027200015460E468046FDF79FFD1D49097829B1E3
:10273000FDF79EFD04B03C20BDE8F081194F57F82D
:10274000241029B1FDF794FD04B02820BDE8F081E4
:10275000012147F82410FDF78BFD00232A4631465E
:10276000404600F0EDF900260146009601963346FA
:1027700032462046029600F0DDFD050009D0FDF747
:1027800073FD47F82460FDF773FD04B02846BDE8EB
:10279000F08105480078012808BF00F099FDF4E7B2
:1027A000F20000200C190020F70000202DE9FF4F57
:1027B00083B01C46DDE91175DDE91386DDF840B014
:1027C000FDF752FD2449097829B1FDF751FD07B005
:1027D0003C20BDE8F08FDFF8849059F8241029B12F
:1027E000FDF746FD07B02820BDE8F08F012149F82C
:1027F0002410FDF73DFD3946284616F0010F4FF035
:10280000000A1CBF16F0020F002803D041F804ABE9
:10281000401EFBD1DDE903013346059A00F090F933
:10282000CDE9005801465B463A462046029600F044
:1028300081FD050009D0FDF717FD49F824A0FDF73B
:1028400017FD07B02846BDE8F08F0548007801283D
:1028500008BF00F03DFDF4E7F20000200C19002055
:10286000F7000020704700002DE9F0470546464874
:10287000007800281CBF4020BDE8F0873F2D04BF32
:102880003E20BDE8F087FDF7EFFC0746FF2D03D1A2
:102890003E48006890F832503D4E56F825405CB1F5
:1028A000012C0FD094F834003A4A94F83530115C7A
:1028B000994311540CD012E03846FDF7D9FC43205F
:1028C000BDE8F0873846FDF7D3FC3D20BDE8F08732
:1028D000314894F83610027822EA01010170E1696A
:1028E00000291CBF204600F01FFC606A002818BFAA
:1028F00000F08CFC4FF00008C4F82C80DFF89C90AE
:1029000084F8308084F8318099F80000FF283CBFBB
:10291000401C89F800003846FDF7AAFC00F0BEFB19
:10292000FDF7A2FC074699F8000000281CBF401ED6
:1029300089F80000204600F03DF819480178491E4A
:10294000017046F82580A069B0B161694161D4E9A0
:1029500005018161134801686161046012A0E064AF
:102960003846FDF785FC11480078012808BF00F0C3
:10297000AFFC0020BDE8F08760690D49C0F8188001
:1029800060690860E6E70000F20000201001002006
:102990000C19002024010020F6000020F300002084
:1029A000F8000020140100203F000000F700002084
:1029B0001C0100207047704770B5054612480E464E
:1029C0001446007800281EBF1220107070BDFDF75D
:1029D0004BFC0246FF2D03D10C48006890F83250A2
:1029E0000B4850F825004325002818BF012806D0C1
:1029F000C6641046FDF73CFC0020207070BD1046F8
:102A0000FDF736FC257070BDF2000020100100209B
:102A10000C19002010B50446FDF726FC034621489A
:102A200050F8240098B1012816D090F8301011F019
:102A3000080F32D011F0F70180F8301004BFC16ADE
:102A400000290ED01846FDF713FC002010BD1846D3
:102A5000FDF70EFC462010BD1846FDF709FC43208B
:102A600010BD114990F8362091F800C042EA0C02DE
:102A70000A7090F834100D4A90F8350012F801C031
:102A80004CEA000050541846FDF7F2FB0848007865
:102A9000012808BF00F01CFCD7E71846FDF7E8FB4B
:102AA000442010BD0C190020F60000202401002055
:102AB000F7000020704770472DE9F04104460020E0
:102AC00008600E464860FDF7CFFB0146FF2C03D19E
:102AD0001948006890F83240184850F8240000283F
:102AE00018BF01280ED0027C12F0010F10D0D0E9DF
:102AF00002474FF000050846FDF7BAFB54F8040BF7
:102B000060B110E00846FDF7B3FB4320BDE8F0815B
:102B10000846FDF7ADFB4520BDE8F08154F8040BF5
:102B20006D1C0028FAD0A8003060781B800070600F
:102B30000020BDE8F0810000100100200C190020E9
:102B4000002342F8043C4FF4805C42F808CC4FF07C
:102B5000150C42F80CCC4FF0140C42F810CC4FF08E
:102B6000130C42F814CC4FF0120C42F818CC4FF072
:102B7000110C42F81CCC4FF0100C42F820CC4FF056
:102B8000090C42F824CC4FF0080C42F828CC4FF046
:102B9000070C42F82CCC4FF0060C42F830CC4FF02A
:102BA000050C42F834CC4FF0040C42F838CC4FF00E
:102BB000030C42F83CCC4FF0020C42F840CC4FF0F2
:102BC000010C42F844CC4FF0807C42F848CC42F8EB
:102BD0004C0C324B42F8503C4FF0123342F8543C0C
:102BE0004FF0033342F8583C4FF0023342F85C3C5C
:102BF0005B1042F8603C42F8641C312142F8681CCA
:102C0000302142F86C1C292142F8701C282142F81E
:102C1000741C272142F8781C262142F87C1C2521AF
:102C200042F8801C242142F8841C232142F8881C8D
:102C3000222142F88C1C212142F8901C202142F8CC
:102C4000941C192142F8981C182142F89C1C172149
:102C500042F8A01C162142F8A41C4FF0113142F892
:102C6000A81C190142F8AC1C4FF0093142F8B01C05
:102C7000D90042F8B41C4FF0073142F8B81C4FF0AD
:102C8000063142F8BC1C4FF0053142F8C01C9900D7
:102C9000A2F1C40042F8C41C704700007D34000853
:102CA00070B50446FDF7E0FA84461F48FF2C006823
:102CB00004BF90F83240012505D090F83200A042C0
:102CC0000CBF01250025194850F8240058B10128EF
:102CD0000ED090F83410164B90F835405A5CA24351
:102CE0005A540AD010E06046FDF7C2FA482070BD81
:102CF0006046FDF7BDFA432070BD0E4990F83620BE
:102D00000B7823EA02020A7090F8301041F00801B3
:102D100080F830106046FDF7ABFA002D18BF00F0C8
:102D2000D7FA002070BD0000100100200C1900200F
:102D300024010020F60000207047000070B5044612
:102D400014480078002818BF70BD13480078002888
:102D500018BF70BD002C08BF70BDFDF785FA844612
:102D60000E4801680E4891F8342091F83550835C84
:102D7000AB43835406D10B4891F83620037823EAFD
:102D8000020202706046CC62FDF772FABDE8704044
:102D900000F09EBAF2000020F30000201001002095
:102DA00024010020F600002010B5FDF75DFA03496C
:102DB0000C68FDF75DFA204610BD000020010020E0
:102DC0002DE9F04100F056F8FDF74EFA274D296B3A
:102DD000491C2963FDF74CFAE879012818BFBDE8C2
:102DE000F081687A0126002738B1012808BFBDE8C4
:102DF000F08102280CBF6E726F72EC6A94F8320098
:102E00003F2814BFDFF86880BDE8F081FDF72CFA99
:102E1000E16A11B3491EE1621FD194F8301011F03C
:102E2000370F1DBF01F0C80184F8301084F83160FD
:102E300084F8317094F8301011F0080F0DD194F827
:102E40003610AA791143A97194F8341094F83530EA
:102E500018F801201A4308F801206469FDF708FA00
:102E600094F832003F28D1D1BDE8F081F000002075
:102E70002401002005490888401C80B208800228EF
:102E800038BF70470020088000F002B84C010020D5
:102E900001480068FFF7B8BB4401002070B588B056
:102EA0004FF420712F4800F0C2F940212E4800F065
:102EB000BEF900202B4B04464FF0640C411C00EB84
:102EC000800003EBC0008AB202EB820280F800C0EF
:102ED00003EBC20280F82540C26024A2026288B2DD
:102EE0000F28EBD300EB800003EBC0001FA180F89C
:102EF00000C080F82540C46001621D481E4904607E
:102F00001C480480102008801C4803600120FFF743
:102F10006FFA1B4D28600020FFF76AFA194E05AAC8
:102F200019A130602868FEF75BFF05AA1BA1306875
:102F3000FEF756FF0321CDE903414FF6FD710091E5
:102F400080221B48CDE9010200F5FE720323002117
:102F50001848FFF72BFC06AA17A10320FFF72CFD4A
:102F600008B070BDE0200020602500203F00000078
:102F70003C0100203A0100203801002048010020D7
:102F8000400100204401002075432F4F532D494933
:102F900020546D724C6F636B0000000075432F4F1F
:102FA000532D494920546D725369676E616C00005E
:102FB00060230020C92F000875432F4F532D494926
:102FC00020546D7200000000DFF8C4B0314E324F63
:102FD00082B04FF003094FF0010800254FF0020ABC
:102FE0006A460021DBF80000FFF7ACFAFFF7CCF9E6
:102FF0003068401C306000F0070057F830000028AF
:103000002BD0C268416933681446994223D101F03C
:10301000070107EBC1010B68834204D10A60002A53
:1030200018BF156104E00369002ADA6018BF136154
:1030300080F82580C56005618A88521E8A8090F8D4
:103040002410022918BF80F825A009D04268002A60
:103050001CBF816890472000D3D1FFF7ABF9BFE7D1
:1030600080F82590C16932681144416101F007017F
:1030700007EBC1010A68086032B1C26010618A883A
:10308000521C8A800561E1E7C560A1F80480F9E778
:10309000440100203C010020602500207047000012
:1030A00070B4847ADFF874C000261CF80440051957
:1030B000ED7A1CF805C00CEBC40C0CF0FF05DFF832
:1030C00060C05CF825C0CCF82C60CCF820109CF8CF
:1030D000301091438CF830108CF8313011F0080F1B
:1030E0000BD110499CF836208B791A438A71343100
:1030F0009CF835300A5D1A430A559CF834109CF848
:1031000035300144CA7A9A43CA7204D1817A9CF854
:10311000362091438172284670BC70476C1A0108B2
:103120000C190020F000002090F8342090F835C0F1
:103130008B18DA7A32EA0C02DA7218BF70478A7A90
:1031400090F8360022EA000088727047DFF854C019
:1031500010B4DCF8201000F10B03C86191F83420A2
:1031600091F83510D45C2143D154DCF82010827AD8
:1031700091F836301A43827291F834000CF134031E
:1031800091F835401A5CA2431A541CBF10BC70471A
:1031900091F836009CF8061021EA00008CF8060031
:1031A00010BC7047F00000200022827211464318C4
:1031B000491CC9B2DA720829F9D3704710B55021F9
:1031C0000F4800F034F800200D4B8446411C03EBFF
:1031D00000108AB203EB021280F800C0426009A21C
:1031E000C26088B20428F1D303EB001005A180F877
:1031F00000C0C0F804C0C1600348036010BD0000F7
:10320000A01F00203F0000002C010020D0E9001288
:10321000002332B11160002918BF4A608068436200
:103220007047C2680029516018BF4B60F6E700295B
:1032300014BF0022704700F8012B491E0904090C35
:10324000F9D1704710B578210E48FFF7F0FF0D4A0D
:10325000002000EB400102EBC10101F118034B60BB
:10326000401C09A380B24B610428F2D300EB40005C
:1032700002EBC0000021416003A1416103480260EC
:1032800010BD0000F01F00203F00000030010020B2
:1032900010B578210C48FFF7CAFF0B4B0020411CEA
:1032A0008AB200EB400002EB420203EBC20243F899
:1032B000302088B20428F2D300EB4000002143F80C
:1032C00030100248036010BD682000203401002047
:1032D00010B5FCF7C9FF134B04469878002804BFCB
:1032E000D878002818D110489979104A415C525C6E
:1032F000805C00EBC100C2B20D485A7150F8221038
:1033000099621879824207D0886B401C8863D8681C
:10331000401CD860FCF7C1FF2046BDE81040FCF718
:10332000A7BF0000F00000206C1A01082401002053
:103330000C1900202DE9FF5F9346DDE90F768946E1
:103340000546DDF83880FCF78FFFDFF804A1DAF8D6
:103350002440002C75D06169CAF82410FCF788FF5E
:10336000C4F8009084F832504FF0000984F830908F
:1033700084F83190C4F82C90C4F80C80C4E9017B27
:1033800026820398608284F83790E80884F8340035
:1033900005F00701012284F8331002FA00F084F8E6
:1033A000360002FA01F084F83500C4F81C90C4F825
:1033B0002490C4F82090C4F83890C4F84090C4F821
:1033C0003C9024A0C4F84490C4E91290002004EB7F
:1033D0008001401CC1F8509010F0FF00F7D020464B
:1033E000FFF798F92046FFF73DFAFCF73DFF01464D
:1033F000194840F82540DAF82C00C4E905090028EE
:1034000018BF8461CAF82C4094F836009AF8062058
:1034100010438AF8060094F83400104A94F835C036
:10342000135C43EA0C0313549AF80800401C8AF812
:1034300008000846FCF71CFF04B00020BDE8F09F20
:10344000FFE7FCF715FF04B04220BDE8F09F000045
:10345000F00000203F0000000C1900202401002093
:10346000054CFCF701FFE169491CE161FCF700FF35
:10347000FFF7A1FAF5E70000F0000020044810B5BE
:103480000068FFF717FBBDE81040FF20FFF7ECB91D
:1034900010010020214E82B0707828B92820FFF753
:1034A0004DFC70780028F9D01D4970694FF0000775
:1034B000A1FB00104009706103D13770FF20FFF7B6
:1034C000EFFB184DFCF7D0FEF169F761B161FCF735
:1034D000CFFED6E90510B0FBF1F0C0F1640030700A
:1034E000FFF7E9FA002469462046FFF7E5FA60B9DC
:1034F00055F82410002918BF012906D0D1E902028D
:1035000000EB820048640198886404F10100C4B2B1
:103510003F2CE8D91420FFF711FCD3E7F00000207E
:103520001F85EB510C190020F0B583B00024012158
:10353000402000F0C1F84FF40240012700908DF8C0
:10354000047000258DF8065002208DF805008DF8D6
:10355000077069462948FEF7D3F9294EC6F8A452E8
:103560000A2006F5297600F03DFDB5610A2000F03D
:1035700039FDB76100F020F90121FF2000F026FAA3
:103580008021122000F022FA322000F02BFD1C20B6
:1035900000F076F94FF6FF7606EA00251D2000F0D0
:1035A0006FF940EA0501A1F5FE40A23805D015A04B
:1035B000FCF7E6FE03B00120F0BD0A2000F060F940
:1035C00006EA00250B2000F05BF940EA0501A1F5B1
:1035D000185042381CBF0EA0FCF7D2FE0F4D05EB71
:1035E0004400417815F8140000F0F0F9601C84B232
:1035F000B22CF4D303B00020F0BD0000001802404C
:10360000000043424D49443A25640D0A0000000081
:103610004849443A25640D0A000000006C1B01086B
:1036200070B50D4D002405EB4400417815F81400E9
:1036300000F0CCF9601C84B2082CF4D3074D0024B0
:1036400005EB4400417815F8140000F0BFF9601C48
:1036500084B2072CF4D370BDFA1C0108D01C0108F9
:1036600010F0030F1CBF0120704711F0030F1CBFA7
:103670000220704770B584088D080021FF2000F0FB
:10368000A5F90421E02000F0A1F9E1B25A2000F0F0
:103690009DF9E9B25B2000F099F90421C4F30120FF
:1036A00001EA951101435C2000F090F90021E0202F
:1036B00000F08CF9002070BD044A0029116814BF85
:1036C000084321EA000010607047000030380240D3
:1036D000044A0029116814BF084321EA0000106061
:1036E0007047000010380240044A0029116814BFD6
:1036F000084321EA0000106070470000343802409F
:10370000044A0029116814BF084321EA0000106030
:103710007047000044380240DFF88CC030B4DCF859
:103720000010224D11F00C0106D06C10042908BFC6
:10373000046002D008291DD00560DCF800100F22BB
:103740001B4B02EA1111595C026822FA01F1416037
:10375000DCF80020072404EA92229A5C21FA02F2A3
:103760008260DCF8002004EA52329A5CD140C160E9
:1037700030BC70470F4A1168C1F380531168002BA9
:1037800001F03F0114BFB4FBF1F1B5FBF1F1136897
:103790001268C3F388135943C2F30142521C52000A
:1037A000B1FBF2F10160C8E7083802400024F400E0
:1037B000940100200438024010B582B00121082095
:1037C000FFF77AFFC020009001208DF8040000214F
:1037D0008DF8061002218DF805100A4C8DF80700AF
:1037E00069462046FEF78CF8C0212046FEF7E8F82F
:1037F000206820F440402060206840F48040206031
:1038000002B010BD000C02402DE9F047DFF86880DF
:103810000024D8F8000020F44040C8F80000D8F890
:103820000000C8F800000825144E0127A1463220E8
:1038300000F012FCC6F898726006040ED6F81C025E
:1038400000281CBF601CC4B2322000F005FCC6F882
:103850009892681E10F0FF05E9D1D8F8000020F416
:103860004040C8F80000D8F8000040F48040C8F894
:1038700000002046BDE8F087000C02400080414275
:103880002DE9F0412F4C01250746C4F89C52C4F89D
:103890009852322004F5267400F0DEFB00266660A4
:1038A000322000F0D9FB2660602000F04DF8642043
:1038B00000F0D2FB384600F047F8642000F0CCFB63
:1038C0006660322000F0C8FB2560322000F0C4FBA7
:1038D0006560322000F0C0FB642000F0BDFB656035
:1038E0002560322000F0B8FB6660322000F0B4FBA7
:1038F0002660612000F028F8642000F0ADFBFFF79F
:1039000083FF0746322000F0A7FB65602560322068
:1039100000F0A2FB2660322000F09EFB66603220A1
:1039200000F09AFB6660322000F096FB25603220A2
:1039300000F092FB6560322000F08EFB3846BDE857
:10394000F0810000008041422DE9F04100241D4E2D
:103950000546A046012715F0800F14BFC6F89C72DB
:10396000C6F89C826806050E322000F075FBC6F88A
:103970009872322000F070FBC6F89882601CC4B2C6
:10398000082CE8D3104C206820F4404020602068C8
:103990002060322000F060FBC6F89872322000F000
:1039A0005BFBD6F81C02002818BF0120C6F89882DD
:1039B000216821F440412160216841F48041216067
:1039C000BDE8F08100804142000C02402DE9F04743
:1039D0001E4D0024012788468146C5F89C72C5F813
:1039E0009872322000F038FB0026C5F89C62322025
:1039F00000F032FBC5F898626020FFF7A5FF0028B1
:103A000018BF0124642000F027FB4846FFF79CFF05
:103A1000002818BF0124642000F01EFB4046FFF779
:103A200093FF002818BF0124C5F89C62322000F0E3
:103A300013FBC5F89872322000F00EFBC5F89C729B
:103A4000322000F009FB2046BDE8F08700804142AB
:103A50000149C1F8DC007047000027424FF0E02127
:103A6000042808690CBF40F0040020F0040008613D
:103A70007047000006480078012818BF704710B54D
:103A8000FEF7A6FAFFF79CF9BDE81040FEF7AEBAC4
:103A9000F70000203B4882B0016841F470010160EA
:103AA0003948016841F00101016038494FF0000CCC
:103AB000C1F800C0026822F4102222F08072026075
:103AC000031D334A1A60026822F4802202600A1D34
:103AD000C2F800C0CDF800C0CDF804C0026842F4BE
:103AE00080320260026802F400320192009A521C95
:103AF0000092019A1AB9009AB2F5A04FF2D1026869
:103B000012F4003F08BFCDF804C034D00122019266
:103B1000204AD2F800C04CF0805CC2F800C01E4AB7
:103B2000D2F800C04CF4404CC2F800C00A680A60E9
:103B30000A6842F400420A600A6842F4A0520A602D
:103B4000164A1A60026842F080720260026812F03F
:103B5000007FFBD0124A40F205701060086820F028
:103B600003000860086840F002000860086800F080
:103B70000C000828FAD10B494FF00060086002B031
:103B80007047000088ED00E000380240083802402D
:103B900010300024403802400070004008544007B4
:103BA000003C024008ED00E010B5054C0121204624
:103BB00000F00BF82046BDE81040012100F002B8EB
:103BC00000040040C94301827047038A00228089B3
:103BD0000B4200EA01001CBF00280122104670477A
:103BE00010B5FEF7F5F9184C40F22551204600F0CB
:103BF0003DF818B3204600F0CFF8144AC1B210883F
:103C000010F4004F1AD110F4804F4FF0000305D08C
:103C10000A2908BF40F4004014D00EE00D2908BF67
:103C200040F480400ED0C0F30D0C094C401C80B213
:103C300004F80C101080C72800D91380BDE810408C
:103C4000FEF7D4B91080F9E7001001408C01002084
:103C5000B0CE0120C943018070470029818914BF7B
:103C600041F4005121F400518181704710B401F0FA
:103C70001F020124C1F3421304FA02F24FF0000CB8
:103C8000012B04BF83891A4004D0022B0CBF038A86
:103C9000838A1A40090A008804FA01F10840002AC0
:103CA0001CBF00284FF0010C604610BC7047C1F3E8
:103CB000421301F01F014FF0010C0CFA01F1012B2E
:103CC00008BF0C3003D0022B0CBF10301430002A78
:103CD000026814BF114322EA01010160704700002D
:103CE00030B50446008A85B00D46C98820F440509E
:103CF00008432082A089A9882A8920F403701143EF
:103D00006A8920F4A05010430843A081A08AA989A1
:103D100020F440700843A0826846FFF7FDFCA4F140
:103D20008040B0F588301BBFA4F18040B0F58A30E8
:103D300003980298A18911F4004F00EBC00101EB38
:103D40000010296814BF49008900B0FBF1F0114A46
:103D50006FF0180CA2FB0031490909010B0903FBA4
:103D60000CF300EB8300A38913F4004F4FF03203F0
:103D700014BF03EBC00003EB0010A2FB00204FEACE
:103D8000501014BF00F0070000F00F00084320811E
:103D900005B030BD1F85EB518088C0F30800704727
:103DA000FEE700210160416001817047704700001B
:103DB0002DE9F0410F4606460024154DFCF754FA54
:103DC00004EB440155F8311041B1FCF751FA641C81
:103DD000042CF3DB4FF0FF30BDE8F08104EB440826
:103DE00045F83860FCF744FA05EBC8000022426051
:103DF00002814281317810290ABF002F0121002160
:103E00008181C281026142612046BDE8F0810000EB
:103E10004413002082B09621002006F0CDFC104C07
:103E20009621A060002006F0C7FCE060642100201D
:103E300006F0C2FC41F698720AA12061CDE9001299
:103E40000CA30EA20F49FCF7A7FA40F6B83000F019
:103E5000C9F808F08DFF4FF47A7000F0C3F8FAE764
:103E60001C0000203139322E3136382E302E3130C0
:103E7000300000003132333435360000746573741D
:103E800000000000581D010870B50020FEF7B0FAD0
:103E9000134CA0610020FEF7ABFAE0610020FEF7B2
:103EA000A7FA2062FCF7E0F905460A230D4A002133
:103EB0000D48FEF731FC04460B230C4A00210C4848
:103EC000FEF72AFC04430D230A4A00210A48FEF7A4
:103ED00023FC04432846FCF7CBF9204670BD0000C4
:103EE0001C000020F80D0020D5CE0008F80F00209F
:103EF0001DCF0008F8110020153E000810B503F092
:103F000027F9BDE810400022024941F2883009F04B
:103F1000CDBA0000FD3E00084FF4A041002006F09D
:103F20004BFC1A4CE060B8B1FFF77AFBFDF776FE68
:103F30004FF480631A014FF4A051E068FCF702FDD2
:103F40004FF440714FF48060FFF78AFBFCF7A0FD4F
:103F50000F4D287820B109E00EA0FCF711FAFEE71A
:103F6000642000F03FF828780028F9D003264FF4A9
:103F70007A75607818B12078012808BF2670E0783B
:103F8000B5FBF0F000F02EF8F3E700000000002091
:103F90001C0000204D616C6C6F63204661696C658C
:103FA00064210D0A0000000010B504466FF0040003
:103FB000FFF754FD0A4AE00841F28831107010FB07
:103FC00001F1052050804FF0E020026942F002022A
:103FD00002614161016941F00101016110BD000010
:103FE000880100202DE9F04104461848184E007859
:103FF00010B118480078D8B14FF0E0274FF47A702C
:1040000060437D690024317800FB01F6FEF7BCF9BE
:10401000B969B8698842FCD026BF2A1A1144091A26
:104020000C440146B442F4D3BDE8F041FEF7C2B9F6
:104030007088844224BFB4FBF0F0FEF77FFE7088E6
:10404000B4FBF0F100FB1144D6E70000F7000020BC
:1040500088010020F20000202DE9F0414FF0E02718
:1040600000247D690A49097800FB01F6FEF78CF906
:10407000B969B8698842FCD026BF2A1A1144091AC6
:104080000C440146B442F4D3BDE8F041FEF792B9C6
:104090008801002038B5D0B1046A002C08BF38BDB3
:1040A000227B082A18BF38BD0968626A914218BF8E
:1040B00038BD05460C202073002060736083042205
:1040C0002146284600F05EF9002829D109E001B018
:1040D00019A3BDE8304040F2253220A123A0FCF70F
:1040E0004FB904223221204600F0F4FB606A05F04B
:1040F00084F90146204600F06DFC204600F028FDC2
:10410000208BF03081B2206908F0E4F90095432358
:10411000214A216960680DF067FB204600F088FAAB
:10412000607B4FF4FA71401C607342F60310B0FBE1
:10413000F1F0608338BD00002E2E5C4C5749505C76
:104140006C7769702D312E342E315C7372635C6331
:104150006F72655C646863702E6300006E657469DD
:104160006620213D204E554C4C0000004173736584
:104170007274696F6E2022257322206661696C65F6
:1041800064206174206C696E6520256420696E204E
:1041900025730D0A000000009819010870B582B05F
:1041A00005003CD02C6A002C42D0616B3C48B1F138
:1041B000FF3F4FF001020DD01E31A0FB0131490934
:1041C000B1F5803F28BF4FF6FF710904090CA183A8
:1041D00008BFA283A16BB1F1FF3F0DD01E31A0FB40
:1041E00001104109B1F5803F28BF4FF6FF71080467
:1041F000000CE08308BFE283A18BE08B00268142A4
:1042000002D3002818BFA683A07B002818BFA06A8D
:1042100017D00090E06A0190002825D11EE021A36C
:104220004FF4697228A12FA0FCF7AAF802B070BD64
:104230001CA340F2A63236A12AA0FCF7A1F802B0D6
:1042400070BD94F824107F2998BFFF20E1D9C029C0
:104250002CBF6FF07F404FF6FF70DAE7606A00997D
:10426000084040F08070019004F12401284607F0D6
:1042700069FB6946284607F099FB01A9284607F023
:104280005BFB284607F097FB217B0A200A2904BF25
:1042900002B070BD20736673668302B070BD00000B
:1042A000898888882E2E5C4C5749505C6C776970E1
:1042B0002D312E342E315C7372635C636F72655CDA
:1042C000646863702E630000646863705F62696E87
:1042D000643A206E6574696620213D204E554C4C31
:1042E00000000000417373657274696F6E202225AF
:1042F0007322206661696C6564206174206C696E4C
:104300006520256420696E2025730D0A00000000D9
:10431000646863705F62696E643A206468637020E9
:10432000213D204E554C4C00154810B50468002C1A
:1043300008BF10BD206A50B1C18B4A1EC28301293B
:1043400009D0206A818B4A1E828301290DD02468FE
:10435000002CEFD110BD216A2046097B01291ABF2C
:104360000A29052900F0C2FEF1E7216A2046097BEF
:1043700001291ABF0A29052901F0C4F8E7E700005E
:104380006C0000202DE9F04116460C46050000F0B7
:104390003480002C00F03C802069002806D05AA30D
:1043A00040F27E6261A16BA0FBF7EAFF6069002822
:1043B00006D055A340F27F6271A166A0FBF7E0FF33
:1043C00000224FF49A71104607F008FB2061002884
:1043D00004BF4FF0FF30BDE8F0814089B0F59A7F0F
:1043E00006D249A340F286626FA15AA0FBF7C8FF2C
:1043F000617B7D48002919D115E043A340F27C621E
:104400007AA154A0FBF7BCFF6FF00D00BDE8F0816E
:104410003DA340F27D627DA14EA0FBF7B1FF6FF09E
:104420000500BDE8F0810168491C0160006820605A
:104430002069012100274068606101706069417056
:10444000616995F8260088706069C770206804F07B
:10445000BDFF6169082E4860606907816069478116
:104460006069C76018BF042E06D0032E07D1207BD9
:10447000052818BF042802D161696868C8606069AE
:10448000076160694761606987614FF0000095F8D6
:104490002610814286BF291891F82710002100F1CB
:1044A0001C036269401C80B2D1541028EFD3002055
:1044B00000F12C026169401C80B28F544028F7D370
:1044C000002000F16C026169401C80B28F5480288A
:1044D000F7D361695548C1F8EC0027830020616972
:1044E00000F1F0028854401C80B24428F7D3012226
:1044F0003521204600F0EEF93146204600F034FA2E
:104500000020BDE8F08100002E2E5C4C5749505C25
:104510006C7769702D312E342E315C7372635C635D
:104520006F72655C646863702E630000646863701A
:104530005F6372656174655F6D73673A2064686379
:10454000702D3E705F6F7574203D3D204E554C4C74
:1045500000000000417373657274696F6E2022253C
:104560007322206661696C6564206174206C696ED9
:104570006520256420696E2025730D0A0000000067
:10458000646863705F6372656174655F6D73673AD9
:1045900020646863702D3E6D73675F6F7574203D96
:1045A0003D204E554C4C0000646863705F6372653B
:1045B0006174655F6D73673A20636865636B20742F
:1045C0006861742066697273742070627566206316
:1045D000616E20686F6C64207374727563742064FC
:1045E0006863705F6D7367006000002064686370CB
:1045F0005F6372656174655F6D73673A206E6574A1
:10460000696620213D204E554C4C00006468637063
:104610005F6372656174655F6D73673A2064686398
:104620007020213D204E554C4C00000063825363A6
:1046300010B5040002D0206948B10FE0BDE8104079
:1046400010A340F2C96218A11FA0FBF799BE0DA3E9
:1046500040F2CA6227A11CA0FBF792FE6069002805
:1046600006D108A340F2CB622CA117A0FBF788FE6D
:104670002069002818BF07F0DFFD0020206160617D
:1046800010BD00002E2E5C4C5749505C6C77697051
:104690002D312E342E315C7372635C636F72655CF6
:1046A000646863702E630000646863705F64656CA7
:1046B0006574655F6D73673A206468637020213D9F
:1046C000204E554C4C000000417373657274696F45
:1046D0006E2022257322206661696C6564206174F6
:1046E000206C696E6520256420696E2025730D0A93
:1046F00000000000646863705F64656C6574655FEA
:104700006D73673A20646863702D3E705F6F7574D7
:1047100020213D204E554C4C000000006468637021
:104720005F64656C6574655F6D73673A2064686388
:10473000702D3E6D73675F6F757420213D204E555F
:104740004C4C0000F8B5046A002105466162227BEA
:104750000620062A02D0207361736183012221465C
:104760002846FFF70FFE060030D1022239212046ED
:1047700000F0B0F8A98C204600F0A2F904223721FD
:10478000204600F0A7F80121204600F0EDF80321B3
:10479000204600F0E9F81C21204600F0E5F806214B
:1047A000204600F0E1F8204600F0D2F9208BF030EE
:1047B00081B2206907F08EFE00954323114A2169DA
:1047C00060680DF011F82046FFF732FF607B401C57
:1047D000C0B2607306283ABF012101FA00F03C2004
:1047E00000EB4001C1EBC0104FF6FF7101EAC000C1
:1047F0004FF4FA7100F2F310B0FBF1F06083304631
:10480000F8BD0000981901082DE9F041304805680D
:10481000002D08BFBDE8F08100264FF4FA7840F281
:10482000E737286A00284DD0418B012984BF491EF3
:10483000418347D146832C6A217B0C2918BF062966
:104840000AD001290CD0082918D0052929D004291B
:104850002BD0032930D035E02846FFF773FF31E035
:10486000607B052803D8284600F092FE2AE02846FF
:1048700000F0F4FD2846FFF765FF23E0607B012888
:1048800028460BD8002204F1240102F097FA607B3D
:10489000401C6073B7FBF8F0608313E0FFF77EFC09
:1048A00010E0284600F02EFE0CE0607B0828DED8E1
:1048B000284600F01BFC05E0607B0228CCD228468D
:1048C00000F05AFC2D68002DABD1BDE8F08100004E
:1048D0006C00002070B504461546008B921C1044F5
:1048E0000E46442806D90BA340F2F642124913A003
:1048F000FBF746FD208B61690144401C208381F851
:10490000F060208B61690144401C208381F8F050E5
:1049100070BD00002E2E5C4C5749505C6C7769705E
:104920002D312E342E315C7372635C636F72655C63
:10493000646863702E6300002C1E01084173736568
:104940007274696F6E2022257322206661696C651E
:1049500064206174206C696E6520256420696E2076
:1049600025730D0A0000000070B50446008B0D464B
:10497000442807D3074B40F2015207A103F1380046
:10498000FBF7FEFC208B61690144401C208381F809
:10499000F05070BD6C580008646863705F6F70748D
:1049A000696F6E5F627974653A20646863702D3E4A
:1049B0006F7074696F6E735F6F75745F6C656E2076
:1049C0003C20444843505F4F5054494F4E535F4C36
:1049D000454E000070B50446008B0D46001D44286E
:1049E00006D913A34FF4A2621AA12AA0FBF7C8FCB0
:1049F000208B6269290E0244401C208382F8F0104B
:104A0000208B6269290C0244401C208382F8F0103C
:104A1000208B6269290A0244401C208382F8F0102E
:104A2000208B61690144401C208381F8F05070BDE7
:104A30002E2E5C4C5749505C6C7769702D312E34AA
:104A40002E315C7372635C636F72655C6468637063
:104A50002E630000646863705F6F7074696F6E5FCF
:104A60006C6F6E673A20646863702D3E6F70746976
:104A70006F6E735F6F75745F6C656E202B203420D2
:104A80003C3D20444843505F4F5054494F4E535F84
:104A90004C454E00417373657274696F6E20222518
:104AA0007322206661696C6564206174206C696E94
:104AB0006520256420696E2025730D0A0000000022
:104AC00070B50446008B0D46801C442806D90BA304
:104AD0004FF4A162124913A0FBF752FC208B6269CC
:104AE000290A0244401C208382F8F010208B61695F
:104AF0000144401C208381F8F05070BD2E2E5C4C88
:104B00005749505C6C7769702D312E342E315C73AF
:104B100072635C636F72655C646863702E6300002F
:104B2000E81D0108417373657274696F6E20222558
:104B30007322206661696C6564206174206C696E03
:104B40006520256420696E2025730D0A0000000091
:104B500010B5040003D06069002809D00FE0BDE85B
:104B6000104016A340F2DE621DA126A0FBF708BC90
:104B700012A340F2DF622EA122A0FBF701FC208BE2
:104B8000442806D30DA34FF4DC6234A11DA0FBF72B
:104B9000F7FB208B6269FF210244401C208382F8CE
:104BA000F010002105E062690244401C208382F875
:104BB000F010208B4428F6D310BD00002E2E5C4C44
:104BC0005749505C6C7769702D312E342E315C73EF
:104BD00072635C636F72655C646863702E6300006F
:104BE000646863705F6F7074696F6E5F747261691F
:104BF0006C65723A206468637020213D204E554CEC
:104C00004C000000417373657274696F6E20222539
:104C10007322206661696C6564206174206C696E22
:104C20006520256420696E2025730D0A00000000B0
:104C3000646863705F6F7074696F6E5F74726169CE
:104C40006C65723A20646863702D3E6D73675F6FA8
:104C5000757420213D204E554C4C0A0064686370E9
:104C60005F6F7074696F6E5F747261696C65723AC0
:104C700020646863702D3E6F7074696F6E735F6F30
:104C800075745F6C656E203C20444843505F4F5004
:104C900054494F4E535F4C454E0A00002DE9F34FE7
:104CA00083B004460020DFF860B3029001905846BC
:104CB000FFF777F8049840892C2817D30498F0263A
:104CC0004068A0600498B0F80880049F06E0311A9C
:104CD000A8EB00003F688EB21FFA80F837B17889E0
:104CE000B042F4D9D7F804A000F05FB905B06FF076
:104CF0000100BDE8F08FB01C1FFA80F97889721CA2
:104D00004FF0FF3482423CBF0AEB0600407804D3E8
:104D1000386800281CBF406800780546342900F038
:104D20008D800DDC032946D004DC00292ED001291A
:104D300031D011E006294FD0332900F06F800BE00D
:104D4000352900F08B80362900F099803A2900F04F
:104D5000A7803B2900F0B58000253044801C86B236
:104D6000002D1CBF0020009000F005810A2C06D306
:104D7000A6A340F2AD52AEA1B2A0FBF701FB1BF817
:104D80000400002800F0AE8000F0F5B80020711E8D
:104D900005468EB2E1E7042808BF0624DDD09BA3B8
:104DA00040F27B52B2A1A7A0FBF7EAFA05B06FF080
:104DB0000500BDE8F08F0425042828BF0724CCD2C5
:104DC00092A34FF4B062ADA19EA0FBF7D9FA05B053
:104DD0006FF00500BDE8F08F10F0030F0BD08BA330
:104DE00040F28552AAA197A0FBF7CAFA05B06FF06E
:104DF0000500BDE8F08F082828BF0825A84228BF75
:104E00000824AAD281A34FF4B1629CA18DA0FBF724
:104E1000B7FA05B06FF00500BDE8F08F042808BFB1
:104E200003249AD079A340F28C5291A185A0FBF77C
:104E3000A7FA05B06FF00500BDE8F08F012808BFA4
:104E400000248AD071A34FF4B26295A17DA0FBF734
:104E500097FA05B06FF00500BDE8F08F012808BF94
:104E600001243FF47AAF69A340F294528CA175A05B
:104E7000FBF786FA05B06FF00500BDE8F08F042857
:104E800008BF02243FF469AF60A34FF4B36278A176
:104E90006CA0FBF775FA05B06FF00500BDE8F08F68
:104EA000042808BF04243FF458AF58A340F29C5292
:104EB0006FA164A0FBF764FA05B06FF00500BDE8D0
:104EC000F08F042808BF05243FF447AF4FA34FF4E9
:104ED000B46267A15BA0FBF753FA05B06FF0050061
:104EE000BDE8F08F042D34BF2A4604224B466946A4
:104EF000384607F00FF9042D1FD915F0030F0BD01A
:104F000042A340F2B35269A14EA0FBF739FA05B0B3
:104F10006FF00500BDE8F08F01200BF80400009849
:104F200004F054FA664941F82400281FC5B209F17B
:104F300004001FFA80F9641C18E7042D10D0012D1D
:104F400008BF9DF800000ED030A340F2BD525DA115
:104F50003CA0FBF715FA05B06FF00500BDE8F08F37
:104F6000009804F04AFA009001200BF8040054481D
:104F7000009940F824107889B04215D8311AA8EB6E
:104F800000008EB21FFA80F8464515D2B8F1000F26
:104F900012D03F6837B91DA340F2C9524EA129A0D3
:104FA000FBF7EEF9D7F804A037B11AF80610FF297D
:104FB00018BF4645FFF49FAE9BF8000080B1404803
:104FC000002100688BF8001001280BD0022804BFD4
:104FD0000120019004D0032804BF0120019001D0DA
:104FE000029828B100206C264FF0EC0802906CE685
:104FF0000198002804BF05B0BDE8F08F00202C26E2
:105000004FF06C08019060E6EC1200202E2E5C4CF4
:105010005749505C6C7769702D312E342E315C739A
:1050200072635C636F72655C646863702E6300001A
:10503000636865636B206465636F64655F6964784A
:1050400000000000417373657274696F6E20222541
:105050007322206661696C6564206174206C696EDE
:105060006520256420696E2025730D0A000000006C
:105070006C656E203D3D2034000000006C656E20A4
:105080003E3D206465636F64655F6C656E00000083
:105090006C656E20252034203D3D2030000000004E
:1050A0006C656E203D3D2031000000006465636F3B
:1050B00064655F6C656E20252034203D3D20300006
:1050C000C4120020696E76616C6964206465636F48
:1050D00064655F6C656E00006E6578742070627543
:1050E0006620776173206E756C6C0000F8B5046AF9
:1050F00005460420217B042903D02073002060731F
:105100006083032221462846FFF73CF906001BD1A5
:10511000022239212046FFF7DDFBA98C2046FFF74C
:10512000CFFC2046FFF714FD208BF03081B22069C0
:1051300007F0D0F9009543230E4A216960680CF00E
:1051400053FB2046FFF774FA607B401CC0B26073CB
:105150000A283ABF4FF47A7110FB01F042F2107046
:1051600080B24FF4FA7100F2F310B0FBF1F06083FB
:105170003046F8BD98190108F8B5046A05460320C1
:10518000217B032903D020730020607360830322F6
:1051900021462846FFF7F6F8060028D102223921D9
:1051A0002046FFF797FB4FF410712046FFF788FC6D
:1051B000042232212046FFF78DFB606A04F01DF9BE
:1051C00001462046FFF706FC2046FFF7C1FC208B76
:1051D000F03081B2206907F07DF9009543230F4A32
:1051E000216960680CF000FB2046FFF721FA607B24
:1051F000401CC0B260730A283ABF4FF47A7110FBAA
:1052000001F042F2107080B24FF4FA7100F2F31024
:10521000B0FBF1F060833046F8BD0000981901083A
:105220002DE9F047066A05465468B068174630B164
:105230006FA340F2116277A17BA0FBF7A1F87889F8
:105240004FF000082C2824BF2078022840F0C980A5
:1052500095F826104FF0000000290BD92A182318C2
:1052600092F827201B7F9A4240F0BB80401CC0B2BE
:105270008142F3D8606804F0C0F83168884272D186
:1052800039463046FFF70AFD00286CD1DFF8C4A18B
:105290009AF80100002866D0AAF1280999F80400BC
:1052A000052807D0062863D0022804BF307B0628D3
:1052B0007DD096E0307B012805D003281CBF042850
:1052C000052851D08DE02C6AC4F82880C4F82C80C1
:1052D0009AF8030000281CBFD9F80C0020639AF844
:1052E0000400002812BFD9F81000206B400860634A
:1052F0009AF80500002814BFD9F81400206BA063A9
:10530000A068006960629AF80600002808BF84F867
:105310000E8006D0D9F8180004F058F8A0620120D9
:10532000A0739AF8070020B1D9F81C0004F04EF8D9
:10533000E0622C6A08212846227B082A04D02173C7
:1053400084F80D80A4F81A80002204F1240101F0F1
:1053500035FD607B4FF4FA71401C607340F2E7301A
:10536000B0FBF1F060833CE02846FEF717FF38E021
:10537000307B032818BF012803D0042818BF052854
:105380002FD128462C6A06F0C7FA3349284606F082
:10539000D9FA3149284606F0CFFA2F49284606F0B7
:1053A00005FB217B0C200C2906D0207300E007E0D0
:1053B00084F80D80A4F81A802846FFF7C3F910E09E
:1053C000A6F81A809AF802002C6A50B1D9F80800A1
:1053D00003F0FCFF2062A06800696062284600F0CC
:1053E000D7F83846C6F80880BDE8F04706F024BF75
:1053F0002E2E5C4C5749505C6C7769702D312E34E1
:105400002E315C7372635C636F72655C6468637099
:105410002E6300007265706C79207761736E27745B
:105420002066726565640000417373657274696F0C
:105430006E2022257322206661696C656420617488
:10544000206C696E6520256420696E2025730D0A25
:1054500000000000EC12002094190108F8B5046A5D
:1054600005460021227B084612B1217360736083D8
:1054700020626062A062E062A06360632063072232
:1054800021462846FEF77EFF060013D12046FFF78F
:105490005FFB208BF03081B2206907F01BF800958C
:1054A000432304F12002216960680CF09DF9204635
:1054B000FFF7BEF8607B401CC0B260730A283ABF99
:1054C0004FF47A7110FB01F042F2107080B24FF489
:1054D000FA7100F2F310B0FBF1F06083284606F099
:1054E0001BFA0749284606F02DFA0549284606F01A
:1054F00023FA0349284606F059FA3046F8BD000061
:1055000094190108F8B5046A05460520217B052990
:1055100003D0207300206073608303222146284655
:10552000FEF730FF06001CD1022239212046FFF78A
:10553000D1F9A98C2046FFF7C3FA2046FFF708FBF4
:10554000208BF03081B2206906F0C4FF0095432320
:1055500004F12002216960680CF046F92046FFF74B
:1055600067F8607B401CC0B260730A283ABF4FF4F2
:10557000FA6110FB01F044F6206080B24FF4FA713A
:1055800000F2F310B0FBF1F060833046F8BD00008C
:10559000F8B5046A05460120217B012903D0207358
:1055A000002060736083032221462846FEF7EAFE4E
:1055B000060048D1022239212046FFF78BF9A98C39
:1055C0002046FFF77DFA042232212046FFF782F9B8
:1055D000606A03F012FF01462046FFF7FBF9042240
:1055E00036212046FFF776F9206A03F006FF0146D0
:1055F0002046FFF7EFF9042237212046FFF76AF92A
:1056000001212046FFF7B0F903212046FFF7ACF94E
:105610001C212046FFF7A8F906212046FFF7A4F930
:105620002046FFF795FA208BF03081B2206906F012
:1056300051FF00954323114A216960680CF0D4F8AA
:105640002046FEF7F5FF607B401CC0B26073062861
:105650003ABF012101FA00F03C2000EB4001C1EB10
:10566000C0104FF6FF7101EAC0004FF4FA7100F26A
:10567000F310B0FBF1F060833046F8BD98190108D3
:1056800070B505005ED095F82D002C6A20F008005A
:1056900085F82D0010F0200F04BF6FF00D0070BDD5
:1056A000A88CB0F5107FC0F05E80002C00F0548014
:1056B0006068002818BF0CF053F8206930B12FA3A0
:1056C00040F29E2236A13CA0FAF75AFEA06830B103
:1056D0002AA340F29F2243A137A0FAF751FE0020EF
:1056E00020606060A060E06020616061A061E061B6
:1056F00020626062A062E06220636063A0630CF0DD
:1057000019F8606000282ED0017A442241F020016F
:105710000172394960680BF03FFE432236496068E8
:105720000BF0CAFE2A46354960680CF016F8284688
:10573000FFF708F8002819D0284600F069F84FF064
:10574000FF3070BD0DA340F27A222DA11AA0FAF706
:1057500017FE6FF00D0070BD3C2004F0E5FC040066
:1057600018BF2C62BBD14FF0FF3070BD95F82D10E3
:1057700041F0080185F82D1070BD00002E2E5C4C04
:105780005749505C6C7769702D312E342E315C7323
:1057900072635C636F72655C646863702E630000A3
:1057A0007062756620705F6F7574207761736E2705
:1057B0007420667265656400417373657274696F05
:1057C0006E2022257322206661696C6564206174F5
:1057D000206C696E6520256420696E2025730D0A92
:1057E000000000007265706C79207761736E277419
:1057F0002066726565640000941901082152000852
:105800006E6574696620213D204E554C4C000000A9
:1058100070B5002821D090F82D10046A21F00801FD
:1058200080F82D10002C08BF70BD0025606810B1F5
:105830000BF096FF6560A06830B10CA340F2DA422D
:1058400013A118A0FAF79CFD217B0020002908BFB6
:1058500070BD20736573658370BDBDE8704003A3A0
:1058600040F2C7421AA10FA0FAF78ABD2E2E5C4C57
:105870005749505C6C7769702D312E342E315C7332
:1058800072635C636F72655C646863702E630000B2
:105890007265706C79207761736E2774206672650B
:1058A00065640000417373657274696F6E20222510
:1058B0007322206661696C6564206174206C696E76
:1058C0006520256420696E2025730D0A0000000004
:1058D000646863705F73746F703A206E6574696694
:1058E00020213D204E554C4C0000000010B5FEF725
:1058F0001BFDBDE81040002202494EF6602007F073
:10590000D5BD0000ED58000810B5FEF77DFFBDE8DD
:105910001040002202494FF4FA7007F0C7BD0000A2
:105920000959000882B000268DF804608DF80060E7
:105930001021304604F040FF154D01272861A8785A
:10594000012820D1AE700024694601A8FBF712F9A6
:1059500068B1601CC4B20A2C09D84FF4FA70FEF783
:1059600041FB694601A8FBF705F90028F1D109A020
:10597000FAF706FD9DF800309DF804200AA1286979
:10598000FAF70AFD2F714FF47A70FEF72BFBD6E77A
:1059900000000020444854313120526561642046A3
:1059A00061696C65640D0A0025642025640D0A0098
:1059B0002DE9F041040006D156A34FF43C725FA1DB
:1059C00062A0FAF7DDFC2078102806D051A340F23F
:1059D000F12269A15DA0FAF7D3FC6078042806D013
:1059E0004CA340F2F2226CA158A0FAF7C9FC6068FF
:1059F00030B948A340F2F32270A154A0FAF7C0FCDA
:105A0000A06A30B943A34FF43D7271A14FA0FAF7D9
:105A1000B7FCA06A007A00F0010700F00206032834
:105A20000CBF012500251DB10021606807F042FF71
:105A30006068017E01291AD037B100210AF0D2F83E
:105A40000021606807F0ADFE1EB1002160680AF019
:105A5000F7FA8DB104220021606809F033FA0021C1
:105A6000606808F081FA606807F026FF09E000210D
:105A700007F097FE002DF6D13246394660680AF0ED
:105A80002BFB20B16068007E012828D02EE0A16A9F
:105A900000200871A062607035B16060E36A1BB1DC
:105AA0000022042120469847002F1CBFE36A002BE8
:105AB00004D04FF00002114620469847002E1CBF2C
:105AC000E36A002B05D04FF000024FF002012046A0
:105AD000984704F10C00BDE8F04107F0B0BC0DA3FD
