:020000040800F2
:10000000E8D1012031030008591D0008C919000872
:100010001D1C000805090008A53D0008000000009F
:100020000000000000000000000000004303000882
:10003000910E000800000000B9020008793A00089B
:100040004B0300084B0300084B0300084B03000858
:100050004B0300084B0300084B0300084B03000848
:100060004B0300084B0300084B0300084B03000838
:100070004B0300084B0300084B0300084B03000828
:100080004B0300084B0300084B0300084B03000818
:100090004B0300084B0300084B0300084B03000808
:1000A0004B0300084B0300084B0300084B030008F8
:1000B0004B030008AD3B00084B0300084B0300084E
:1000C0004B0300084B0300084B0300084B030008D8
:1000D0004B030008E53B00084B0300084B030008F6
:1000E0004B0300084B0300084B0300084B030008B8
:1000F0004B0300084B0300084B0300084B030008A8
:100100004B0300084B0300084B0300084B03000897
:100110004B0300084B0300084B0300084B03000887
:100120004B0300084B0300084B0300084B03000877
:100130004B030008D50F00084B0300084B030008D1
:100140004B0300084B0300084B0300084B03000857
:100150004B0300084B0300084B0300084B03000847
:100160004B0300084B0300084B0300084B03000837
:100170004B0300084B030008E90900084B03000883
:100180004B0300084B03000800F002F800F05DF894
:100190000AA090E8000C82448344AAF10107DA45E2
:1001A00001D100F052F8AFF2090EBAE80F0013F0D7
:1001B000010F18BFFB1A43F001031847C81D0100C7
:1001C000E81D01000A4410F8014B14F00F0508BFA8
:1001D00010F8015B240908BF10F8014B6D1E05D013
:1001E00010F8013B6D1E01F8013BF9D1641E03D0EC
:1001F000641E01F8015BFBD19142E4D3704700001B
:100200000023002400250026103A28BF78C1FBD81F
:10021000520728BF30C148BF0B607047642900F007
:100220002D81732900F0EF82002070471FB511F077
:10023000C5FB00F05BFA04000020002111F0A8FBD0
:10024000401C60601FBD10B510BD00F02DFB1146B5
:10025000FFF7ECFF09F020FD00F04BFB03B4FFF7C4
:10026000F2FF03BC03F0A4FDEFF3108072B67047F9
:1002700080F310887047264C4FF6FF7525604FF0CD
:10028000000484F30988234C4FF001052570224CAB
:100290004FF08055256062B6FEE730B41E4C4FF03B
:1002A0008055256030BC704730B41B4C4FF08055F2
:1002B000256030BC704700BF72B6EFF3098050B1C3
:1002C0001EF0100F08BF20ED108A203880E8F00FD4
:1002D00012490968086000B5114880475DF804EBD1
:1002E000104811490A7802700C4810490A680260E7
:1002F000106890E8F00F20301EF0100F08BFB0EC2F
:10030000108A80F309884EF0040E62B6704700BF71
:1003100022ED00E0FB00002004ED00E014010020CD
:100320003D2D0008F8000020F90000201C010020ED
:100330000948804709480047FEE7FEE7FEE7FEE779
:10034000FEE7FEE7FEE7FEE7FEE7FEE704480549B5
:10035000034A054B70470000993A000889010008DC
:10036000E8CD0120E8D10120E8CD01207047000050
:1003700010B500F0BBF9001D10BD00BF151601003F
:100380000FB4044910B503AA029800F041FA10BC5A
:100390005DF814FB940100200FB41CB5074B06AAAE
:1003A0007B4469460090059800F003FA00206946F6
:1003B00000F012FA1CBC5DF814FB000035040000CC
:1003C0002DE9F0410E460446002020622046E168F7
:1003D000884730B3252805D0D4E901219047206A09
:1003E000401CF2E7E168204600278847050018D046
:1003F000A5F14100192802D820354FF40067324694
:10040000294620462760FFF709FF40B1012804D0A4
:10041000F61D26F007060836D8E7361DD6E728462B
:10042000DAE7206ABDE8F08170B50C460546012A7E
:1004300005D02878800600D5EA69002302E0012370
:1004400005E05B1C934202D2E05C0028F9D1A86968
:10045000E618C01AA861286A184428622846AFF333
:10046000008004E0D5E9012114F8010B9047B44263
:10047000F8D32846AFF3008070BD00002DE9F041AD
:100480000646002410687529314616A510D0AFF332
:100490000080002802DA404213A507E031688A078D
:1004A00001D512A502E0490704D511A5012401E0F8
:1004B000AFF3008000210A2206F1240709E0B0FB17
:1004C000F2FCB0FBF2F302FB1C003030785418460B
:1004D000491C0028F3D123462A463046BDE8F041A6
:1004E00000F008B9000000002D0000002B00000003
:1004F0002000000040EA010310B59B070FD1042A39
:100500000DD310C808C9121F9C42F8D020BA19BADE
:10051000884201D9012010BD4FF0FF3010BD1AB143
:10052000D30703D0521C07E0002010BD10F8013B98
:1005300011F8014B1B1B07D110F8013B11F8014BBF
:100540001B1B01D1921EF1D1184610BD10B5431CE2
:1005500002E010F8011B71B18107FAD14FF00132AE
:1005600002C88C1A8C4314EAC211F9D0C01A0A06C8
:1005700003D0C01E10BDC01A10BD0A0401D0801ED9
:1005800010BD0902FCD0401E10BD032A40F230808D
:1005900010F0030C00F0158011F8013BBCF1020FC4
:1005A000624498BF11F801CB00F8013B38BF11F845
:1005B000013BA2F1040298BF00F801CB38BF00F85C
:1005C000013B11F0030300F03581083AC0F00880C8
:1005D00051F8043B083A51F804CBA0E80810F5E7BD
:1005E000121D5CBF51F8043B40F8043BAFF30080A0
:1005F000D20724BF11F8013B11F801CB48BF11F815
:10060000012B24BF00F8013B00F801CB48BF00F8E4
:10061000012B70474FF0000200B5134694469646F2
:10062000203922BFA0E80C50A0E80C50B1F1200105
:10063000BFF4F7AF090728BFA0E80C5048BF0CC0B3
:100640005DF804EB890028BF40F8042B08BF704711
:1006500048BF20F8022B11F0804F18BF00F8012B83
:10066000704700004FF0013C50F8042B51F8043B58
:100670009A4221D1A2EB0C03934313EACC1317D176
:1006800050F8042B51F8043B9A4215D1A2EB0C030D
:10069000934313EACC130BD150F8042B51F8043BCD
:1006A0009A4209D1A2EB0C03934313EACC13DBD09B
:1006B0004FF00000704700BFD01A01BAB1FA81F1C3
:1006C00001F0180122FA01F0CB40C1F12001DBB2A8
:1006D000C0B2C01A2CFA01F3D11A914311EAC31126
:1006E000E6D17047704770477047704700487047C1
:1006F000A8CD01202DE9F0470D46994692460446C3
:1007000000F124080168880604D5E06921F0100191
:10071000216000E00120A84201DD471B00E0002726
:10072000A1697A1902EB0900081AA0612078C006B5
:1007300002D42046AFF30080002608E0D4E901216E
:100740001AF806009047206A401C761C20624E452D
:10075000F4DB2078C0060AD52046AFF3008006E01F
:10076000D4E9012130209047206A401C2062381EC5
:10077000A7F10107F4DC07E0D4E9012118F805002E
:100780009047206A401C2062281EA5F10105F3DC79
:100790002046AFF300802078000602D50220BDE895
:1007A000F0870120FBE7000001694A1C026108781C
:1007B000704700B58FB0CDE90131002105910549A1
:1007C0007944CDE9031011466846FFF7F9FD0FB0F3
:1007D00000BD0000E5FFFFFF0A6802F8010B0A6098
:1007E000704710B5436913B1AFF3008001E0FFF724
:1007F0001BFE012010BD127800F124010A700022B6
:100800004A700122EDE711684FF0FF32E9E700007E
:10081000074B70B50D467B44FFF7CBFF04462846D7
:1008200000F03EF810B14FF0FF3070BD204670BDB3
:100830002370000010B5203AC0F00B80B1E81850CA
:10084000203AA0E81850B1E81850A0E81850BFF4BA
:10085000F5AF5FEA027C24BFB1E81850A0E8185059
:1008600044BF18C918C0BDE810405FEA827C24BFAD
:1008700051F8043B40F8043B08BF7047D20728BF3B
:1008800031F8023B48BF11F8012B28BF20F8023B8A
:1008900048BF00F8012B70470048704788CD012001
:1008A000007B00F0800070477546FFF7F5FFAE460D
:1008B00005006946534620F00700854618B020B56C
:1008C000FFF744FDBDE820404FF000064FF0000761
:1008D0004FF000084FF0000B21F00701AC46ACE8E8
:1008E000C009ACE8C009ACE8C009ACE8C0098D4655
:1008F000704710B50446AFF300802046BDE81040B5
:10090000FFF7ACBCFEE7000004490028086814BFEC
:1009100040F0010020F00100086070470000055021
:100920000149486170470000000005500449002853
:10093000086814BF40F4804020F48040086070478D
:10094000000005502DE9F0410C460546012190B00C
:100950001E461746880502F0B1FEDFF85480404677
:1009600000F088F9404600F049FA0028FAD14FF02B
:10097000007000900F48CDE901050020CDE9030487
:100980004FF48051CDE906610911CDE90871059058
:1009900049020A9104210B910321CDE90C100E901C
:1009A0006946404600F036FA10B0BDE8F08100001C
:1009B0002864024028000550054800210160C160FC
:1009C0001F2242618161C161016241627047000082
:1009D00000000550034A0146002012690A4218BF70
:1009E000012070470000055010B50120FFF7F2FF0D
:1009F000012818BF10BD08F0AFF90120FFF790FFE4
:100A00000649D1F8A802002814BF00200120C1F82F
:100A1000A80203480178491C017010BD00804242C1
:100A200064010020044A0029D16811BF0843C04373
:100A300080B20840D060704700000550134910B4E0
:100A40000A6822F0010222F480420A600A680388E0
:100A5000B0F802C0C48843EA0C03B0F804C022F422
:100A6000F9724CEA040C43EA0C03B0F808C022F413
:100A7000606243EA0C03B0F80AC0808943EA0C03C1
:100A800018431043086010BC704700000000055078
:100A900010B50121034800F0E3F8BDE81040012043
:100AA000FFF732BF2864024070B515480024016882
:100AB00021F44001016001680160124D04E0601CF6
:100AC000C4B2012003F0EAFAD5F82C0210B1642C6C
:100AD00011D2F4E7642C38BF00240CD204E0601C6F
:100AE000C4B2012003F0DAFAD5F82C0228B1642C44
:100AF0003CBF002070BD012070BD642CEFD3FAE72D
:100B0000001402400080424270B582B001212020D2
:100B100002F0D4FD4FF40060012600908DF80460CF
:100B200000248DF8064002208DF805008DF807603E
:100B300069460E4800F0E6FE0D48016821F44001C8
:100B40000160016841F4800101600A4DC5F8AC42C2
:100B5000142005F52B7503F067FA2E601E2003F0B4
:100B60009DFAFFF7A1FF02B070BD0000001802401F
:100B700000140240008042422DE9F34F364883B012
:100B8000016821F440010160016841F480010160C5
:100B9000DFF8C8804FF0000AC8F8ACA2142003F0B8
:100BA00043FA4FF00109C8F8AC921E2003F076FA20
:100BB000FFF77AFF002807BF0026EB46012005B0AB
:100BC00018BFBDE8F08F002005464006070E002440
:100BD00004E0601CC4B2012003F060FAD8F82C02D3
:100BE000002818BF642CF4D3002404E0601CC4B2B5
:100BF000012003F053FAD8F82C0208B9642CF5D37D
:100C0000282003F04BFAD8F82C02002814BF4846DD
:100C100050463843691CCDB2082DD6D30BF80600D8
:100C2000701CC6B2052ECED39DF800009DF80110B1
:100C30009DF8033042189DF802100B441A449DF8A9
:100C400004309A4203D1049A10700398017005B0E1
:100C50000020BDE8F08F00000014024000804242F6
:100C60000029016814BF41F0010121F00101016078
:100C7000704700002DE9F003016821F001010160D7
:100C80000021016041608160C160016121214161F9
:100C9000444A45494FF03D08904202BFC1F80880E0
:100CA000BDE8F0037047414A4FF47464904202BFBC
:100CB0008C60BDE8F00370473D4A4FF474159042D4
:100CC00002BF8D60BDE8F00370473A4A4FF074668A
:100CD000904202BF8E60BDE8F0037047364B374A42
:100CE000984202BFCA60BDE8F0037047DFF8D0C089
:100CF000344B604502BFCB60BDE8F0037047324F14
:100D0000DFF8C8C0B84202BFC1F80CC0BDE8F003AC
:100D10007047DFF8BC904FF03D57484502BFCF60A9
:100D2000BDE8F0037047DFF8AC902B49484502BF9F
:100D3000C1F80080BDE8F0037047DFF8A0804045AF
:100D400002BF0C60BDE8F0037047254CA04202BF13
:100D50000D60BDE8F0037047224CA04202BF0E6058
:100D6000BDE8F0037047204C2049A04202BF0A6052
:100D7000BDE8F00370471E4A904202BF0B60BDE819
:100D8000F00370471B4A904202BFC1F800C0BDE8A3
:100D9000F0037047184A904208BF0F60BDE8F003A7
:100DA000704700001060024000600240286002406E
:100DB0004060024058600240706002403D000020E8
:100DC00088600240400F0020A060024000003D20EB
:100DD000B860024010640240086402402864024087
:100DE0004064024058640240706402400C64024057
:100DF00088640240A0640240B864024001460020BA
:100E0000096811F0010F18BF01207047406880B2D7
:100E10007047000010B402681B4BD1F80CC01A4098
:100E20000B6843EA0C03D1E905C44CEA040C43EA1D
:100E30000C03D1F81CC043EA0C03D1F820C043EAEC
:100E40000C03D1F824C043EA0C03D1F828C043EACC
:100E50000C03D1F834C043EA0C03D1F838C043EA9C
:100E60000C031A4302604269D1E90B3C22F00702ED
:100E700043EA0C031A4342610A6942604A6882608D
:100E80008968C16010BC70473F801CF041607047AA
:100E9000704700000149486170470000009002401F
:100EA000044A0029D16914BF084321EA0000D06137
:100EB00070470000009002402DE9F001134E00231E
:100EC000002A70601BD94FF0004744F2F458551EB9
:100ED00000EB431CCCF80070C3EBC31404EB4404D8
:100EE00001EB8404CCE90184AB423ABF0CF120044D
:100EF000CCF80C40CCF80C005B1C9342E8D30449BE
:100F0000C8600448B060BDE8F0017047A801002047
:100F1000009002407CCD012070B4DFF84CC000236B
:100F2000002ACCF8000084BF4FF48015561E16D955
:100F300000EB431CCCF80050C3EBC31404EB440497
:100F400001EB8404CCF80840B3423ABF0CF1200412
:100F5000CCF80C40CCF80C005B1C9342E8D303495E
:100F6000086170BC70470000A8010020009002409A
:100F7000026811430160704710B50121480602F074
:100F8000A9FBBDE8104000214FF0007002F0A2BBA9
:100F90000148006880687047A801002002680021AD
:100FA00012F0004F04BF026812F4004F06D102682D
:100FB00012F4807F1CBF0068C0F30D4108467047E3
:100FC00003490020096811F0010F18BF0120704784
:100FD0000090024010B50A4C2068FFF7DFFF30B1E7
:100FE00008F052FA2068FFF7D9FF0028F8D1402016
:100FF000FFF750FFBDE810404FF48030FFF74ABFC5
:10100000AC0100202DE9F04186B000278B4E04464C
:10101000009701973069884620F01C0502A802F06D
:101020007DFB87490398874A0144914238BF45F0C8
:10103000080515D38449854A0144914238BF45F0DB
:101040000C050DD38249834A0144914208D3824959
:1010500008448249884234BF45F0040545F0100534
:1010600035614FF400420021404600F07FFA00282D
:1010700019BF7B48009006B0BDE8F081401E00908B
:10108000FCD12068002818BF764D43D0019801217B
:10109000401C0190404600F075F910F0040F02D199
:1010A0000198A842F2D30198A8421BD04FF4805275
:1010B00000214046019700F059FA002804BF06B00D
:1010C000BDE8F08101980121401C0190404600F0EC
:1010D00059F910F0200F02D10198A842F2D30198DB
:1010E000A84203D106B00020BDE8F0811F21404690
:1010F000019700F047F910F0100F0EBF27624FF470
:101100000061216210F0040F12BF67614FF480404C
:10111000606114E0206A6169C00840EA510082B24F
:101120000021404600F022FA002819BF6FF07F40EE
:10113000009006B0BDE8F081401E0090FCD1306800
:1011400049490840D4E901121143D4E903231A4361
:10115000114362691143A2691143E2691143226A92
:101160001143626A1143A26A1143E26A1143226B7E
:101170001143626B114308433060D4E90E01084308
:10118000D4E9101211430843A16C0843E16C0843F1
:10119000216D0843616D08437060A06DB060E06D23
:1011A000F060B0694FF641710840D4E9191211435B
:1011B000B4F86030E26E42EA03421143226F1143F9
:1011C000626F11430843B061D4E91E010843F06126
:1011D00026488169264A1140D4E920231A43D4E9DC
:1011E000223C43EA0C031A43D4F890301A43D4F853
:1011F00094301A43D4F898301A43D4F89C301A43E8
:10120000D4F8A0301A4311438161D4E92912114363
:10121000D4E92B231A431143D4F8B42041EA8201C4
:10122000D4F8B820114341F400010160016841F095
:101230008001016006B00120BDE8F081008002401D
:1012400000D3CEFEC0E1E40040F1E9FD40787D012D
:1012500000796CFC005A6202001F0AFA80F0FA0260
:10126000FFFF0F00FFFF04000F8120FF00900240EE
:10127000233FDEF800F1804000F520308A880264C8
:101280000A78D1F8011042EA012141647047000058
:1012900010B5B0B001214FF0606002F00FFAFFF717
:1012A0006BFE00F0D7F8FFF78BFE0128FBD06846F5
:1012B00000F0F4F80120009000204FF40071CDE917
:1012C0000A10090407901190CDE920010E901490A6
:1012D00013900A1115902590269023920420CDE9B1
:1012E000280180032A9080012B9040122C9040000E
:1012F0002E9000216846FFF785FEC4B2012C03D171
:1013000001210348FFF7CCFD30B0204610BD00009E
:101310004000010010B5A021002009F08FFA184C00
:10132000A0212060002009F089FA606041F6C451D4
:10133000002009F083FAA06041F6C451002009F0B2
:101340007DFAE060216800291CBF6268002A05D090
:10135000A268002A1EBF0028002010BD4FF0000028
:1013600009F034FA0020616809F030FA0020A16821
:1013700009F02CFA0020E16809F028FA012010BDDC
:101380005401002081B000220092134A13694FF4E7
:10139000784C03F01C030CEAC02018434FF4F863A8
:1013A00003EA8111084320F0020040F001001061BF
:1013B0000A490098401C0090106910F0010F1CBFF2
:1013C00000988142F5D8009888420EBF00205069ED
:1013D00080B201B07047000000800240FFFF0400AF
:1013E00030B41A4C00231A4621680D6815F0004FDE
:1013F0000ED0174994464B6913F0800F03D0802319
:101400004B61C1F808C002604260826030BC704726
:10141000D1F800C01CF4004F0ED1D1F800C01CF46C
:10142000807F1CBFD1F800C01CF4007F04D00A6884
:10143000C2F30D42131F8A68D1F80CC0C4F800C073
:101440000360C0E9012130BC70470000AC010020FE
:10145000009002400248016841F0010101607047BC
:10146000009002400B49086840F0080008600A48F4
:10147000826942F4801282610A6842F004020A60C2
:10148000816941F400518161816941F0020181610A
:10149000704700000080024000900240012101607E
:1014A0000021416081604FF48042C160C0E90412B4
:1014B000D2108161C0E9071241628162C162016399
:1014C000416340228163C0E90F122022C0E911214B
:1014D000C1640165416581658022C165C0E918125A
:1014E0008166C16601674167D2048167C0E91F1246
:1014F0005210C0E921211311C0E92331C0F8941022
:10150000C0F89810C0F89C10C0E928125212C0F818
:10151000A8209201C0F8AC205212C0E92C21C0F8DA
:10152000B81070470F4A11680B6813F0004F1CBFCA
:1015300000207047C0F30C004860086840F040503D
:101540000860086840F0004008600748436913F0ED
:10155000040F03D00423436100234360C868106074
:1015600001207047A80100200090024018B4002319
:101570000093134BD3F810C04FF478440CF01C0CBC
:1015800004EAC02040EA0C004FF4F86C0CEA811128
:10159000084340F003005A6118610A490098401C52
:1015A0000090186910F0010F1CBF00988142F5D817
:1015B000009888420CBF0020012018BC7047000032
:1015C00000800240FFFF04008000A0F1C04000291D
:1015D000016812BF41F00101014A114001607047EA
:1015E000FEFF0F00D0E901121143D0E903231A4393
:1015F00011434269114382691143C2691143026A6E
:101600001143426A1143826A1143C26A1143026B59
:101610000A4301688900A1F1C0410A608168082974
:1016200007D101688900A1F1C0410A6842F0400277
:101630000A60416BD1E9002342EA03128B68B1F8DA
:101640000CC01B0243EA0C431A430B8A42EA0352C2
:101650000B7D896942EA0362114302689200A2F19C
:10166000C0425160C16AB1F5804F08D000686FF088
:1016700070418000A0F1C040C0F804117047816B38
:10168000D1E9002342EA03128B68B1F810C01B02B3
:1016900043EA0C531A430B7D896942EA03620068EE
:1016A00011438000A0F1C040C0F804117047000051
:1016B0002DE9F0419AB00121782001F0FFFF4FF6AB
:1016C0003370109002208DF8440003208DF84500FF
:1016D00000248DF846400120864D8DF8470010A962
:1016E000284600F00FF94FF68371834E109110A930
:1016F000304600F007F94FF23F01804F109110A9DA
:10170000384600F0FFF840F23F41DFF8F4811091D5
:1017100010A9404600F0F6F80C220021284600F0FF
:1017200040F90C220121284600F03BF90C2204214B
:10173000284600F036F90C220521284600F031F940
:101740000C220821284600F02CF90C2209212846F9
:1017500000F027F90C220A21284600F022F90C2279
:101760000B21284600F01DF90C221146284600F0F6
:1017700018F90C220D21284600F013F90C220E2135
:10178000284600F00EF90C220F21284600F009F936
:101790000C220021304600F004F90C2201213046D1
:1017A00000F0FFF80C220721304600F0FAF80C2276
:1017B0000821304600F0F5F80C220921304600F0EF
:1017C000F0F80C220A21304600F0EBF80C220B2135
:1017D000304600F0E6F80C221146304600F0E1F801
:1017E0000C220D21304600F0DCF80C220E21304690
:1017F00000F0D7F80C220F21304600F0D2F80C226E
:101800000021384600F0CDF80C220121384600F0C6
:10181000C8F80C220221384600F0C3F80C2203213C
:10182000384600F0BEF80C220421384600F0B9F822
:101830000C220521384600F0B4F80C221146384637
:1018400000F0AFF80C220D21384600F0AAF80C2267
:101850000E21384600F0A5F80C220F21384600F082
:10186000A0F80C220021404600F09BF80C22012138
:10187000404600F096F80C220221404600F091F814
:101880000C220321404600F08CF80C220421404633
:1018900000F087F80C220521404600F082F80C2267
:1018A0000A21404600F07DF809201294CDE913404A
:1018B00015940420CDE90004169417941020CDE966
:1018C0000240189404940002CDE9084012A807943D
:1018D000CDE90C40059406940E900A940B9468464A
:1018E000FFF780FE01210420FFF76EFE1AB0BDE86D
:1018F000F0810000000C0240001002400014024081
:10190000001802402DE9F0010022012603270B6890
:1019100006FA02FC03EA0C0363453BD10568530059
:1019200007FA03F4A54305600D79D0F800809D40C7
:1019300045EA080505600D79012D18BF022D1AD161
:10194000856825EA040585604D79D0F8088005FA98
:1019500003F545EA08058560456825EA0C0CC0F8E2
:1019600004C0D0F804C08D7905FA02F5ADB24CEA96
:10197000050CC0F804C0D0F80CC02CEA040CC0F868
:101980000CC091F807C00CFA03F3D0F80CC043EA7E
:101990000C03C36002F10102102AB8D3BDE8F001C4
:1019A00070474B07DB0E9A40C90800EB8100016AC3
:1019B0004FF00F0C0CFA03F399430162016A1143D3
:1019C0000162704701837047FEE7000010B582B0E6
:1019D0000121112001F072FE1C20009000208DF8E2
:1019E000040001248DF8074069460648FFF78AFF86
:1019F00002208DF80700009469460348FFF782FF34
:101A000002B010BD001002400000024070B501217C
:101A1000254C264E264D00280ABF2078217000282C
:101A20000FD0D5F8100200281CBFD5F80C020028F2
:101A300010D0D5F8080200281CBFD6F800020128F3
:101A400008D0D5F81002012804BFD5F80C020128EF
:101A500027D11EE04FF00A0002F0E6FA00202070C5
:101A6000D5F81002002804BF012070BDD5F80C0283
:101A7000002804BF022070BDD5F80802002804BF6A
:101A8000032070BDD6F80002012804BF042070BDF9
:101A900007E0D5F80802012802BFD6F800020028A6
:101AA00021704FF0000070BD520100200000404244
:101AB0000000424270B584B001214D2001F0FEFDCE
:101AC0000121880301F01EFE012001F0C3FF8620E2
:101AD000032500908DF8055002208DF804000024A5
:101AE000384E8DF806408DF8074069463046FFF7BE
:101AF00009FF0B2201213046FFF753FF0B22022181
:101B00003046FFF74EFF0B2207213046FFF749FF13
:101B100032202D4E009069463046FFF7F3FE0B222F
:101B200001213046FFF73DFF0B2204213046FFF72D
:101B300038FF0B2205213046FFF733FF4FF4D0402A
:101B4000224E009069463046FFF7DCFE0B2211461C
:101B50003046FFF726FF0B220D213046FFF721FF0D
:101B60000B220E213046FFF71CFF8DF80550012592
:101B700008208DF8045000908DF806408DF807403D
:101B800069461348FFF7BEFE124EC6F88C4232205B
:101B900006F5237602F048FA35603D208DF80800FE
:101BA0008DF809408DF80A408DF80B5002A800F01E
:101BB000D5F8FFF76DFB00280CBF0120002004B012
:101BC00070BD000000000240000802400018024002
:101BD000000C02400080414210B582B0012120205B
:101BE00001F06CFD4FF4C060009001208DF80400FE
:101BF00000208DF806008DF807000320064C8DF8B4
:101C0000050069462046FFF77DFE4FF4C06120467F
:101C1000FFF7D8FE02B010BD00140240FEE700003E
:101C20002DE9F04784B00121172001F047FD012183
:101C3000084601F05BFD5020009002208DF8040062
:101C400000248DF8064003263E4F8DF805600125DF
:101C50008DF8075069463846FFF754FEC021DFF87B
:101C6000E880009169464046FFF74CFE4FF43C6126
:101C7000DFF8D890009169464846FFF743FE60219F
:101C8000DFF8CCA0009169465046FFF73BFE0D22DD
:101C900004213846FFF785FE0D2206213846FFF75E
:101CA00080FE0D2207214046FFF77BFE0D22062114
:101CB0004846FFF776FE0D2207214846FFF771FEE2
:101CC0000D2208214846FFF76CFE0D2209214846E7
:101CD000FFF767FE0D220B214846FFF762FE0D223B
:101CE00006214046FFF75DFE0D2205215046FFF715
:101CF00058FE0D2206215046FFF753FEFEF75CFE0C
:101D0000144820210480448184810481818044809E
:101D1000C480FEF793FE01210846FEF783FE0120F2
:101D2000FEF704FE4E208DF808008DF809508DF85E
:101D30000A608DF80B5002A800F010F804B0BDE85E
:101D4000F08700000000024000040240000802404A
:101D500000100240A42300207047000010B4C27895
:101D600001784FF00F0C01241AB3184A126801F1E0
:101D7000E02102F4E062C2F5E062C2F30722C2F1A0
:101D800004032CFA02FC42789A40837803EA0C039D
:101D90001A43120181F80024007800F01F0104FAB0
:101DA00001F14009800000F1E020C0F8001110BCF2
:101DB000704701F01F0004FA00F04909890001F1A1
:101DC000E021C1F8800110BC704700000CED00E07C
:101DD000034940F0FD7040F08060086070470000EB
:101DE0000CED00E070B505460D480E4614468078AF
:101DF000002818BF122001D0107070BD2B78012B65
:101E000018BF022B04D0032B1CBF042B0120F3D1DD
:101E1000FEF72AFA6E61FEF72BFA0020207070BDE3
:101E2000F400002070B586B000F0CCF8544A0024CD
:101E300014639470D4701472D471D460D4619461BA
:101E4000546154709471204602F134010C54401CCA
:101E5000C0B20828FAD3147154719462494940F20F
:101E600094501462401E000401F8014B000CF9D19B
:101E700045494FF48070401E000401F8014B000CEE
:101E8000F9D1DFF800C1411CCBB2C0EBC00000EBC0
:101E90004000C3EBC3030CEB800003EB43030CEBEC
:101EA0008303436139A3C364C8B21028EBD3C0EBEA
:101EB000C00000EB40000CEB800034A14461C16421
:101EC0003349C2F824C04FF4B470D462401E0004F9
:101ED00001F8014B000CF9D1DFF8B4C0411C00EB54
:101EE00040008BB20CEBC00003EB43030CEBC303CD
:101EF0000470436025A3436188B20E28EED300EB43
:101F000040000CEBC00021A1047044604161C2F8A4
:101F100010C001F055F901F097F901F0BBF91D4827
:101F20004FF6FF71CDE900108025CDE9025403265C
:101F300000F5FE723F2304960021174800F038FC9C
:101F400005AA16A13F2000F039FD18484FF6FE7192
:101F5000CDE90010CDE9025400F5FE723E2304964F
:101F60000021134800F024FC05AA12A13E2000F035
:101F700025FD00F095FF06B0BDE8704000F028B8E0
:101F8000F400002010180020101700203F0000006F
:101F9000A8110020101500206534000875432F4F4C
:101FA000532D49492049646C65000000101300203E
:101FB0009934000875432F4F532D494920537461BC
:101FC0007400000001490020088070475001002083
:101FD000704700000549C879012818BF7047887804
:101FE000FF283CBF401C887070470000F4000020B0
:101FF00070B5174CE079012818BF70BDFEF734F9B1
:10200000A178054621B1481E10F0FF01A1701AD138
:10201000E078C0B90F48A1790F4A415C525C805CFE
:1020200000EBC100C2B20D48627150F82210A162EB
:102030002079824207D0886B401C8863E068401C8E
:10204000E060FEF731F92846BDE87040FEF710B9B0
:10205000F4000020AC1A010828010020101700200D
:102060002DE9F04106461F480F46007800281CBFA6
:102070000020BDE8F081FEF7F7F8DFF86C80D8F8B3
:10208000004014B16168C8F80010FEF7F1F834B3ED
:10209000FEF7EAF8014615480568BDB12A680260F6
:1020A0000846FEF7E5F806EB8700C5E90160EE603B
:1020B0002E61AF820020E8820221217020810CA0D5
:1020C00065606061204601F071F808E0D8F8000012
:1020D00060600846C8F80040FEF7CAF800242046B1
:1020E000BDE8F081F6000020040100203801002046
:1020F0003F0000002DE9F05F044600788B4615464E
:10210000022818BF012001D0107023E03048007869
:10211000002818BF0F20F7D1FEF7A6F88246A07A54
:10212000002814BF01260026DFF8A880DFF8A89059
:102130000027BBF1000F07D0BBF1010F23D05046A1
:10214000FEF796F8072004E03EB15046FEF790F8FF
:10215000492028702046BDE8F09F20A0606160689B
:10216000D8F800100160C8F800002770D9F8000006
:10217000606027815046C9F80040FEF779F82F705B
:102180000020BDE8F09F40B10023042219462046FC
:1021900000F088FFA07A0028F6D110A06061606886
:1021A000D8F800100160C8F800002770D9F80000C6
:1021B000606027815046C9F80040FEF759F8002EAC
:1021C00018BF01F087F82F700020BDE8F09F0000D5
:1021D000F600002038010020040100203F0000002C
:1021E0002DE9F0470546007888461446022804D0B9
:1021F000012010700020BDE8F0872F48007820B142
:10220000022010700020BDE8F0872C48007820B133
:102210000D2010700020BDE8F087FEF725F86B68F0
:1022200081460026D88A80B11869011D19610568A8
:10223000D88A401ED8829868814204BF58681861C5
:102240004846FEF715F8267033E01D4F3A6892F8BD
:10225000300040F0040082F8300082F831602846F7
:10226000C2F82C8000F074FF4846FEF701F801F038
:1022700031F8FDF7F9FF8046386890F831100029F1
:1022800004BF056A26700AD0022904BF00250E206B
:1022900004D0294600F04AFF00250A202070386843
:1022A00080F8306080F83160C66106624046FDF714
:1022B000DFFF2846BDE8F087F6000020F700002089
:1022C0001401002070B5044600780D4602281CBF9A
:1022D000012070BDFDF7C8FF0646A07A58B1002363
:1022E00004222946204600F0DDFE3046FDF7C0FFFF
:1022F00000F0F0FF19E06068C18A828A914204D33D
:102300003046FDF7B5FF1E2070BDC268111DC160CB
:102310001560C18A491CC182D0E902128A4204BFF9
:102320004168C1603046FDF7A3FF002070BD70B565
:10233000054600780C4602281CBF012070BDFDF741
:1023400093FF0146A87A207405F10B0304F10802FB
:102350004FF0000C13F8010B02F8010B0CF1010017
:1023600000F0FF0CBCF1080FF4D36868C28A002AA1
:102370001CBF026912682260C28AA280808AE08043
:102380000846FDF775FF002070BD000010B5094C30
:10239000E079012818BF10BDFDF766FFA17821B9CB
:1023A000E178FF293CBF491CE170BDE81040FDF712
:1023B0005FBF0000F400002010B50D4CE07901284B
:1023C00018BF10BDFDF750FFE17839B1491E11F07B
:1023D000FF01E17004BFA178002903D0BDE81040DF
:1023E000FDF746BFFDF744FFBDE8104000F072BFA7
:1023F000F400002070B505460E48007800281CBF88
:10240000002070BDFDF730FF01460B4804680CB199
:10241000626802600846FDF72BFF4CB10320207074
:1024200025810020606005A06061204600F0BEFEAE
:10243000204670BDF6000020040100203F0000008F
:102440002DE9F047044600788A461546032807D050
:10245000012010702EA0FDF793FF2046BDE8F08705
:102460003048007828B10F2010702FA0FDF788FFAA
:102470004BE0FDF7F9FE8146A07A002814BF012643
:102480000026DFF8B8800027BAF1000F07D0BAF1B4
:10249000010F1AD04846FDF7EBFE072004E02EB1ED
:1024A0004846FDF7E5FE492028702AE024A0606137
:1024B0002770D8F80000606027814846C8F80040BF
:1024C000FDF7D6FE2F7000241BE040B1002301224F
:1024D0001946204600F0E6FDA07A0028F6D118A0A3
:1024E00060612770D8F80000606027814846C8F80E
:1024F0000040FDF7BDFE002E18BF00F0EBFE2F7070
:10250000002429460FA0FDF73BFF2046BDE8F087D9
:102510004F535F4552525F4556454E545F54595094
:10252000450D0A00F60000204F535F4552525F44AC
:10253000454C5F4953520D0A000000000401002081
:102540003F000000257300002DE9F04705460078A4
:102550008846144603281EBF01201070BDE8F0878E
:1025600027480078002818BF022002D01070BDE86C
:10257000F08724480078002818BF0D20F6D1FDF719
:1025800073FE81462889002638B1401E28814846BE
:10259000FDF76EFE2670BDE8F0871B4F3A6892F893
:1025A000300040F0010082F8300082F831602846A7
:1025B000C2F82C8000F0CCFD4846FDF759FE00F033
:1025C00089FEFDF751FE8046386890F831100029E9
:1025D00008BF267008D0022908BF0E2003D0294664
:1025E00000F0A4FD0A202070386880F8306080F880
:1025F0003160C6614046BDE8F047FDF739BE0000D6
:10260000F6000020F70000201401002070B50446F9
:10261000007803281CBF012070BDFDF725FE05468C
:10262000A07A58B1002301221946204600F03AFD55
:102630002846FDF71DFE00F04DFE09E020894FF60B
:10264000FF71884206D2401C20812846FDF710FE0B
:10265000002070BD2846FDF70BFE332070BD70B51D
:10266000044600780D4603281CBF012070BDFDF70D
:10267000FBFDA17AA97204F10B03AA1C4FF0000C18
:1026800013F8011B02F8011B0CF1010101F0FF0C12
:10269000BCF1080FF4D321892980FDF7E9FD002062
:1026A00070BD00000B49C879002818BF70470A4A5E
:1026B00088790A4B105C1B5CD25C02EBC000C0B294
:1026C000074A4871087152F8200088620862FDF7D5
:1026D000D2BD0000F4000020AC1A0108280100203F
:1026E0001017002010B5022000F02AFBFDF7BCFDFA
:1026F000084C0021E161FDF7BBFD142000F020FB38
:10270000FDF7B2FDE169616101216170BDE8104032
:10271000FDF7AEBDF4000020704700002DE9F04148
:1027200084B01C4615460E468046FDF79DFD1D49AA
:10273000097829B1FDF79CFD04B03C20BDE8F0818B
:10274000194F57F8241029B1FDF792FD04B0282045
:10275000BDE8F081012147F82410FDF789FD002331
:102760002A463146404600F0EDF900260146009623
:102770000196334632462046029600F0DDFD050004
:1027800009D0FDF771FD47F82460FDF771FD04B035
:102790002846BDE8F08105480078012808BF00F010
:1027A00099FDF4E7F600002010170020FB00002040
:1027B0002DE9FF4F83B01C46DDE91175DDE9138675
:1027C000DDF840B0FDF750FD2449097829B1FDF747
:1027D0004FFD07B03C20BDE8F08FDFF8849059F83A
:1027E000241029B1FDF744FD07B02820BDE8F08F83
:1027F000012149F82410FDF73BFD3946284616F023
:10280000010F4FF0000A1CBF16F0020F002803D082
:1028100041F804AB401EFBD1DDE903013346059AC4
:1028200000F090F9CDE9005801465B463A46204653
:10283000029600F081FD050009D0FDF715FD49F86D
:1028400024A0FDF715FD07B02846BDE8F08F054828
:102850000078012808BF00F03DFDF4E7F6000020F5
:1028600010170020FB000020704700002DE9F04702
:1028700005464648007800281CBF4020BDE8F08788
:102880003F2D04BF3E20BDE8F087FDF7EDFC074675
:10289000FF2D03D13E48006890F832503D4E56F867
:1028A00025405CB1012C0FD094F834003A4A94F8DA
:1028B0003530115C994311540CD012E03846FDF7C5
:1028C000D7FC4320BDE8F0873846FDF7D1FC3D201A
:1028D000BDE8F087314894F83610027822EA010109
:1028E0000170E16900291CBF204600F01FFC606AEE
:1028F000002818BF00F08CFC4FF00008C4F82C80B2
:10290000DFF89C9084F8308084F8318099F80000DA
:10291000FF283CBF401C89F800003846FDF7A8FCA2
:1029200000F0BEFBFDF7A0FC074699F80000002868
:102930001CBF401E89F80000204600F03DF81948F1
:102940000178491E017046F82580A069B0B161691F
:102950004161D4E905018161134801686161046046
:1029600012A0E0643846FDF783FC11480078012886
:1029700008BF00F0AFFC0020BDE8F08760690D499A
:10298000C0F8188060690860E6E70000F6000020E3
:10299000140100201017002028010020FA00002058
:1029A000F7000020FC000020180100203F0000007C
:1029B000FB000020200100207047704770B50546DD
:1029C00012480E461446007800281EBF12201070D0
:1029D00070BDFDF749FC0246FF2D03D10C4800688D
:1029E00090F832500B4850F825004325002818BFB6
:1029F000012806D0C6641046FDF73AFC002020707E
:102A000070BD1046FDF734FC257070BDF600002047
:102A1000140100201017002010B50446FDF724FC17
:102A20000346214850F8240098B1012816D090F8A8
:102A3000301011F0080F32D011F0F70180F830108B
:102A400004BFC16A00290ED01846FDF711FC002012
:102A500010BD1846FDF70CFC462010BD1846FDF7CA
:102A600007FC432010BD114990F8362091F800C0B2
:102A700042EA0C020A7090F834100D4A90F83500C2
:102A800012F801C04CEA000050541846FDF7F0FB64
:102A900008480078012808BF00F01CFCD7E718465A
:102AA000FDF7E6FB442010BD10170020FA000020BF
:102AB00028010020FB000020704770472DE9F041FD
:102AC0000446002008600E464860FDF7CDFB014635
:102AD000FF2C03D11948006890F83240184850F88C
:102AE0002400002818BF01280ED0027C12F0010F2C
:102AF00010D0D0E902474FF000050846FDF7B8FBBB
:102B000054F8040B60B110E00846FDF7B1FB432018
:102B1000BDE8F0810846FDF7ABFB4520BDE8F0813C
:102B200054F8040B6D1C0028FAD0A8003060781B04
:102B3000800070600020BDE8F081000014010020DA
:102B400010170020002342F8043C4FF4805C42F848
:102B500008CC4FF0150C42F80CCC4FF0140C42F896
:102B600010CC4FF0130C42F814CC4FF0120C42F87A
:102B700018CC4FF0110C42F81CCC4FF0100C42F85E
:102B800020CC4FF0090C42F824CC4FF0080C42F84E
:102B900028CC4FF0070C42F82CCC4FF0060C42F832
:102BA00030CC4FF0050C42F834CC4FF0040C42F816
:102BB00038CC4FF0030C42F83CCC4FF0020C42F8FA
:102BC00040CC4FF0010C42F844CC4FF0807C42F8EE
:102BD00048CC42F84C0C324B42F8503C4FF0123388
:102BE00042F8543C4FF0033342F8583C4FF0023364
:102BF00042F85C3C5B1042F8603C42F8641C3121B6
:102C000042F8681C302142F86C1C292142F8701CE3
:102C1000282142F8741C272142F8781C262142F80A
:102C20007C1C252142F8801C242142F8841C23218D
:102C300042F8881C222142F88C1C212142F8901C69
:102C4000202142F8941C192142F8981C182142F8BE
:102C50009C1C172142F8A01C162142F8A41C4FF01E
:102C6000113142F8A81C190142F8AC1C4FF009318F
:102C700042F8B01CD90042F8B41C4FF0073142F8BA
:102C8000B81C4FF0063142F8BC1C4FF0053142F839
:102C9000C01C9900A2F1C40042F8C41C7047000097
:102CA0008134000870B50446FDF7DEFA84461F48FB
:102CB000FF2C006804BF90F83240012505D090F841
:102CC0003200A0420CBF01250025194850F824000D
:102CD00058B101280ED090F83410164B90F83540BA
:102CE0005A5CA2435A540AD010E06046FDF7C0FA7D
:102CF000482070BD6046FDF7BBFA432070BD0E4909
:102D000090F836200B7823EA02020A7090F830100F
:102D100041F0080180F830106046FDF7A9FA002D57
:102D200018BF00F0D7FA002070BD00001401002089
:102D30001017002028010020FA0000207047000032
:102D400070B5044614480078002818BF70BD1348B9
:102D50000078002818BF70BD002C08BF70BDFDF7BB
:102D600083FA84460E4801680E4891F8342091F8A1
:102D70003550835CAB43835406D10B4891F8362021
:102D8000037823EA020202706046CC62FDF770FA13
:102D9000BDE8704000F09EBAF6000020F700002069
:102DA0001401002028010020FA00002010B5FDF7D2
:102DB0005BFA03490C68FDF75BFA204610BD000082
:102DC000240100202DE9F04100F056F8FDF74CFAFF
:102DD000274D296B491C2963FDF74AFAE879012838
:102DE00018BFBDE8F081687A0126002738B10128B4
:102DF00008BFBDE8F08102280CBF6E726F72EC6AEA
:102E000094F832003F2814BFDFF86880BDE8F081F5
:102E1000FDF72AFAE16A11B3491EE1621FD194F865
:102E2000301011F0370F1DBF01F0C80184F83010C9
:102E300084F8316084F8317094F8301011F0080F84
:102E40000DD194F83610AA791143A97194F8341071
:102E500094F8353018F801201A4308F80120646905
:102E6000FDF706FA94F832003F28D1D1BDE8F08191
:102E7000F40000202801002005490888401C80B289
:102E80000880022838BF70470020088000F002B890
:102E90005001002001480068FFF7B8BB480100203E
:102EA00070B588B04FF420712F4800F0C2F940216E
:102EB0002E4800F0BEF900202B4B04464FF0640C66
:102EC000411C00EB800003EBC0008AB202EB8202DF
:102ED00080F800C003EBC20280F82540C26024A243
:102EE000026288B20F28EBD300EB800003EBC00036
:102EF0001FA180F800C080F82540C46001621D4811
:102F00001E4904601C480480102008801C4803608F
:102F10000120FFF76FFA1B4D28600020FFF76AFAC7
:102F2000194E05AA19A130602868FEF75BFF05AAB3
:102F30001BA13068FEF756FF0321CDE903414FF690
:102F4000FD71009180221B48CDE9010200F5FE725F
:102F5000032300211848FFF72BFC06AA17A1032022
:102F6000FFF72CFD08B070BDE41E00206423002094
:102F70003F000000400100203E0100203C010020F5
:102F80004C010020440100204801002075432F4FD0
:102F9000532D494920546D724C6F636B0000000043
:102FA00075432F4F532D494920546D725369676EF5
:102FB000616C000064210020CD2F000875432F4F65
:102FC000532D494920546D7200000000DFF8C4B051
:102FD000314E324F82B04FF003094FF00108002507
:102FE0004FF0020A6A460021DBF80000FFF7ACFA56
:102FF000FFF7CCF93068401C306000F0070057F84C
:10300000300000282BD0C2684169336814469942C9
:1030100023D101F0070107EBC1010B68834204D102
:103020000A60002A18BF156104E00369002ADA600B
:1030300018BF136180F82580C56005618A88521E1B
:103040008A8090F82410022918BF80F825A009D0A2
:103050004268002A1CBF816890472000D3D1FFF747
:10306000ABF9BFE780F82590C1693268114441612E
:1030700001F0070107EBC1010A68086032B1C260C4
:1030800010618A88521C8A800561E1E7C560A1F859
:103090000480F9E74801002040010020642300205B
:1030A0007047000070B4847ADFF874C000261CF802
:1030B00004400519ED7A1CF805C00CEBC40C0CF0AB
:1030C000FF05DFF860C05CF825C0CCF82C60CCF8B8
:1030D00020109CF8301091438CF830108CF831306F
:1030E00011F0080F0BD110499CF836208B791A4348
:1030F0008A7134319CF835300A5D1A430A559CF8C0
:1031000034109CF835300144CA7A9A43CA7204D10B
:10311000817A9CF8362091438172284670BC7047B2
:10312000AC1A010810170020F400002090F8342099
:1031300090F835C08B18DA7A32EA0C02DA7218BFCE
:1031400070478A7A90F8360022EA00008872704749
:10315000DFF854C010B4DCF8201000F10B03C86194
:1031600091F8342091F83510D45C2143D154DCF827
:103170002010827A91F836301A43827291F8340026
:103180000CF1340391F835401A5CA2431A541CBF69
:1031900010BC704791F836009CF8061021EA000038
:1031A0008CF8060010BC7047F400002000228272E8
:1031B00011464318491CC9B2DA720829F9D370477D
:1031C00010B550210F4800F034F800200D4B844614
:1031D000411C03EB00108AB203EB021280F800C01E
:1031E000426009A2C26088B20428F1D303EB001048
:1031F00005A180F800C0C0F804C0C16003480360A6
:1032000010BD0000A41D00203F0000003001002080
:10321000D0E90012002332B11160002918BF4A60C2
:10322000806843627047C2680029516018BF4B60D4
:10323000F6E7002914BF0022704700F8012B491E51
:103240000904090CF9D1704710B578210E48FFF731
:10325000F0FF0D4A002000EB400102EBC10101F13B
:1032600018034B60401C09A380B24B610428F2D3C1
:1032700000EB400002EBC0000021416003A141616E
:103280000348026010BD0000F41D00203F00000054
:103290003401002010B578210C48FFF7CAFF0B4B12
:1032A0000020411C8AB200EB400002EB420203EB1B
:1032B000C20243F8302088B20428F2D300EB400069
:1032C000002143F830100248036010BD6C1E00203E
:1032D0003801002010B5FCF7C7FF134B044698785F
:1032E000002804BFD878002818D110489979104ACE
:1032F000415C525C805C00EBC100C2B20D485A7167
:1033000050F8221099621879824207D0886B401CCD
:103310008863D868401CD860FCF7BFFF2046BDE832
:103320001040FCF7A5BF0000F4000020AC1A010813
:1033300028010020101700202DE9FF5F9346DDE9EA
:103340000F7689460546DDF83880FCF78DFFDFF8FB
:1033500004A1DAF82440002C75D06169CAF8241061
:10336000FCF786FFC4F8009084F832504FF0000953
:1033700084F8309084F83190C4F82C90C4F80C8014
:10338000C4E9017B26820398608284F83790E808BC
:1033900084F8340005F00701012284F8331002FAA2
:1033A00000F084F8360002FA01F084F83500C4F821
:1033B0001C90C4F82490C4F82090C4F83890C4F845
:1033C0004090C4F83C9024A0C4F84490C4E9129002
:1033D000002004EB8001401CC1F8509010F0FF0069
:1033E000F7D02046FFF798F92046FFF73DFAFCF7A3
:1033F0003BFF0146194840F82540DAF82C00C4E9A3
:103400000509002818BF8461CAF82C4094F83600DA
:103410009AF8062010438AF8060094F83400104AFF
:1034200094F835C0135C43EA0C0313549AF808006F
:10343000401C8AF808000846FCF71AFF04B0002078
:10344000BDE8F09FFFE7FCF713FF04B04220BDE8A2
:10345000F09F0000F40000203F0000001017002043
:1034600028010020054CFCF7FFFEE169491CE161E1
:10347000FCF7FEFEFFF7A1FAF5E70000F4000020DC
:10348000044810B50068FFF717FBBDE81040FF20A7
:10349000FFF7ECB914010020214E82B0707828B9F2
:1034A0002820FFF74DFC70780028F9D01D4970697D
:1034B0004FF00007A1FB00104009706103D1377085
:1034C000FF20FFF7EFFB184DFCF7CEFEF169F76127
:1034D000B161FCF7CDFED6E90510B0FBF1F0C0F10B
:1034E00064003070FFF7E9FA002469462046FFF7D0
:1034F000E5FA60B955F82410002918BF012906D053
:10350000D1E9020200EB820048640198886404F16A
:103510000100C4B23F2CE8D91420FFF711FCD3E717
:10352000F40000201F85EB5110170020F0B583B088
:1035300000240121402000F0C1F84FF4024001278F
:1035400000908DF8047000258DF8065002208DF84B
:1035500005008DF8077069462948FEF7D3F9294E12
:10356000C6F8A4520A2006F5297600F05DFDB56183
:103570000A2000F059FDB76100F020F90121FF2079
:1035800000F026FA8021122000F022FA322000F00A
:103590004BFD1C2000F076F94FF6FF7606EA002579
:1035A0001D2000F06FF940EA0501A1F5FE40A238A8
:1035B00005D015A0FCF7E4FE03B00120F0BD0A2001
:1035C00000F060F906EA00250B2000F05BF940EA04
:1035D0000501A1F5185042381CBF0EA0FCF7D0FE23
:1035E0000F4D05EB4400417815F8140000F0F0F998
:1035F000601C84B2B22CF4D303B00020F0BD0000F4
:1036000000180240000043424D49443A25640D0A27
:10361000000000004849443A25640D0A00000000FB
:10362000AC1B010870B50D4D002405EB440041783A
:1036300015F8140000F0CCF9601C84B2082CF4D307
:10364000074D002405EB4400417815F8140000F004
:10365000BFF9601C84B2072CF4D370BD3A1D010879
:10366000101D010810F0030F1CBF0120704711F05E
:10367000030F1CBF0220704770B584088D0800211D
:10368000FF2000F0A5F90421E02000F0A1F9E1B24B
:103690005A2000F09DF9E9B25B2000F099F904216D
:1036A000C4F3012001EA951101435C2000F090F978
:1036B0000021E02000F08CF9002070BD044A0029B0
:1036C000116814BF084321EA000010607047000031
:1036D00030380240044A0029116814BF084321EA27
:1036E000000010607047000010380240044A0029B2
:1036F000116814BF084321EA000010607047000001
:1037000034380240044A0029116814BF084321EAF2
:10371000000010607047000044380240DFF88CC0A1
:1037200030B4DCF80010224D11F00C0106D06C1002
:10373000042908BF046002D008291DD00560DCF808
:1037400000100F221B4B02EA1111595C026822FA89
:1037500001F14160DCF80020072404EA92229A5C1F
:1037600021FA02F28260DCF8002004EA52329A5C0C
:10377000D140C16030BC70470F4A1168C1F380531B
:103780001168002B01F03F0114BFB4FBF1F1B5FB50
:10379000F1F113681268C3F388135943C2F301426D
:1037A000521C5200B1FBF2F10160C8E70838024038
:1037B0000024F400980100200438024010B582B0C3
:1037C00001210820FFF77AFFC020009001208DF82A
:1037D000040000218DF8061002218DF805100A4C16
:1037E0008DF8070069462046FEF78CF8C021204678
:1037F000FEF7E8F8206820F440402060206840F49C
:103800008040206002B010BD000C02402DE9F0475E
:10381000DFF868800024D8F8000020F44040C8F8A1
:103820000000D8F80000C8F800000825144E012751
:10383000A146322000F032FCC6F898726006040EF1
:10384000D6F81C0200281CBF601CC4B2322000F055
:1038500025FCC6F89892681E10F0FF05E9D1D8F84B
:10386000000020F44040C8F80000D8F8000040F400
:103870008040C8F800002046BDE8F087000C0240F8
:10388000008041422DE9F0412F4C01250746C4F844
:103890009C52C4F89852322004F5267400F0FEFBC6
:1038A00000266660322000F0F9FB2660602000F000
:1038B0004DF8642000F0F2FB384600F047F8642031
:1038C00000F0ECFB6660322000F0E8FB256032205F
:1038D00000F0E4FB6560322000F0E0FB642000F0C3
:1038E000DDFB65602560322000F0D8FB6660322089
:1038F00000F0D4FB2660612000F028F8642000F07E
:10390000CDFBFFF783FF0746322000F0C7FB656061
:103910002560322000F0C2FB2660322000F0BEFBA2
:103920006660322000F0BAFB6660322000F0B6FB21
:103930002560322000F0B2FB6560322000F0AEFB63
:103940003846BDE8F0810000008041422DE9F04199
:1039500000241D4E0546A046012715F0800F14BF18
:10396000C6F89C72C6F89C826806050E322000F0EC
:1039700095FBC6F89872322000F090FBC6F898824A
:10398000601CC4B2082CE8D3104C206820F44040DE
:10399000206020682060322000F080FBC6F898721A
:1039A000322000F07BFBD6F81C02002818BF012053
:1039B000C6F89882216821F440412160216841F4D1
:1039C00080412160BDE8F08100804142000C02404E
:1039D0002DE9F0471E4D0024012788468146C5F891
:1039E0009C72C5F89872322000F058FB0026C5F88A
:1039F0009C62322000F052FBC5F898626020FFF70D
:103A0000A5FF002818BF0124642000F047FB4846AA
:103A1000FFF79CFF002818BF0124642000F03EFB44
:103A20004046FFF793FF002818BF0124C5F89C62A9
:103A3000322000F033FBC5F89872322000F02EFBE4
:103A4000C5F89C72322000F029FB2046BDE8F087C3
:103A5000008041420149C1F8DC0070470000274264
:103A60004FF0E021042808690CBF40F0040020F06A
:103A7000040008617047000006480078012818BF5C
:103A8000704710B5FEF7A6FAFFF79CF9BDE81040A5
:103A9000FEF7AEBAFB0000203B4882B0016841F45B
:103AA000700101603948016841F001010160384945
:103AB0004FF0000CC1F800C0026822F4102222F07E
:103AC00080720260031D334A1A60026822F4802269
:103AD00002600A1DC2F800C0CDF800C0CDF804C0D5
:103AE000026842F480320260026802F400320192FD
:103AF000009A521C0092019A1AB9009AB2F5A04F8E
:103B0000F2D1026812F4003F08BFCDF804C034D0EF
:103B100001220192204AD2F800C04CF0805CC2F829
:103B200000C01E4AD2F800C04CF4404CC2F800C09D
:103B30000A680A600A6842F400420A600A6842F4AD
:103B4000A0520A60164A1A60026842F0807202604F
:103B5000026812F0007FFBD0124A40F2057010603C
:103B6000086820F003000860086840F00200086060
:103B7000086800F00C000828FAD10B494FF00060EB
:103B8000086002B07047000088ED00E00038024095
:103B900008380240103000244038024000700040D5
:103BA00008544007003C024008ED00E010B5054C09
:103BB0000121204600F00BF82046BDE8104001210D
:103BC00000F002B800040040C94301827047038A34
:103BD000002280890B4200EA01001CBF002801225C
:103BE0001046704710B5FEF7F5F9184C40F2255114
:103BF000204600F03DF818B3204600F0CFF8144AF4
:103C0000C1B2108810F4004F1AD110F4804F4FF059
:103C1000000305D00A2908BF40F4004014D00EE08C
:103C20000D2908BF40F480400ED0C0F30D0C094CA4
:103C3000401C80B204F80C101080C72800D91380F3
:103C4000BDE81040FEF7D4B91080F9E7001001403C
:103C500090010020B4CC0120C943018070470029A5
:103C6000818914BF41F4005121F4005181817047D2
:103C700010B401F01F020124C1F3421304FA02F24E
:103C80004FF0000C012B04BF83891A4004D0022B93
:103C90000CBF038A838A1A40090A008804FA01F1DA
:103CA0000840002A1CBF00284FF0010C604610BCE1
:103CB0007047C1F3421301F01F014FF0010C0CFAE1
:103CC00001F1012B08BF0C3003D0022B0CBF1030C8
:103CD0001430002A026814BF114322EA0101016076
:103CE0007047000030B50446008A85B00D46C9888B
:103CF00020F4405008432082A089A9882A8920F412
:103D0000037011436A8920F4A05010430843A08136
:103D1000A08AA98920F440700843A0826846FFF772
:103D2000FDFCA4F18040B0F588301BBFA4F18040B9
:103D3000B0F58A3003980298A18911F4004F00EB86
:103D4000C00101EB0010296814BF49008900B0FBD5
:103D5000F1F0114A6FF0180CA2FB0031490909017A
:103D60000B0903FB0CF300EB8300A38913F4004F52
:103D70004FF0320314BF03EBC00003EB0010A2FBB3
:103D800000204FEA501014BF00F0070000F00F00B1
:103D90000843208105B030BD1F85EB518088C0F3FA
:103DA00008007047FEE70021016041600181704713
:103DB000704700002DE9F0410F4606460024154DDE
:103DC000FCF752FA04EB440155F8311041B1FCF70D
:103DD0004FFA641C042CF3DB4FF0FF30BDE8F08198
:103DE00004EB440845F83860FCF742FA05EBC800DC
:103DF0000022426002814281317810290ABF002FDF
:103E0000012100218181C281026142612046BDE819
:103E1000F08100004811002082B09621002006F0B9
:103E20000DFD104C9621A060002006F007FDE0601B
:103E30006421002006F002FD41F698720AA120617B
:103E4000CDE900120CA30EA20F49FCF7A5FA40F62B
:103E5000B83000F0E9F808F0CDFF4FF47A7000F0C8
:103E6000E3F8FAE7200000203139322E3136382EBF
:103E7000302E31303300000031323334353600001B
:103E80007465737400000000981D010870B500206F
:103E9000FEF7B0FA0F4CA0610020FEF7ABFAE0612C
:103EA0000020FEF7A7FA2062FCF7DEF905460A2398
:103EB000094A00210948FEF731FC04460D23084A4F
:103EC00000210848FEF72AFC04432846FCF7D0F9F5
:103ED000204670BD20000020FC0D002059CF0008B6
:103EE000FC0F0020193E000810B503F073F9BDE87F
:103EF00010400022024941F2883009F0F7BA000070
:103F0000E93E00084FF4A041002006F097FC274C42
:103F10004FF4A041E060012006F090FC2061E168D0
:103F2000002918BF002817D0FFF77CFBFDF778FEAB
:103F30004FF480631A014FF4A051E068FCF702FDD2
:103F40004FF440714FF48060FFF78CFBFCF7A0FD4D
:103F5000174D287820B109E016A0FCF711FAFEE70A
:103F6000642000F061F828780028F9D0164D00266A
:103F700002274FF47A78607890B1207801280FD129
:103F8000D4E90201626810448200A060286805F04C
:103F90007FFE0028DCBF0DA0FCF7F2F9A6602770B9
:103FA000E078B8FBF0F000F03FF8E4E70000002014
:103FB000200000204D616C6C6F63204661696C6568
:103FC00064210D0A0000000034000020536F636B71
:103FD0006574204572726F723A204E6F206461746E
:103FE000612073656E740D0A0000000010B5044670
:103FF0006FF00400FFF734FD0A4AE00841F288310F
:10400000107010FB01F1052050804FF0E020026994
:1040100042F0020202614161016941F00101016166
:1040200010BD00008C0100202DE9F0410446184825
:10403000184E007810B118480078D8B14FF0E0273A
:104040004FF47A7060437D690024317800FB01F6FB
:10405000FEF79CF9B969B8698842FCD026BF2A1AD4
:104060001144091A0C440146B442F4D3BDE8F041AE
:10407000FEF7A2B97088844224BFB4FBF0F0FEF7CB
:104080005FFE7088B4FBF0F100FB1144D6E700003E
:10409000FB0000208C010020F60000202DE9F041FB
:1040A0004FF0E02700247D690A49097800FB01F6FA
:1040B000FEF76CF9B969B8698842FCD026BF2A1AA4
:1040C0001144091A0C440146B442F4D3BDE8F0414E
:1040D000FEF772B98C01002038B5D0B1046A002C0B
:1040E00008BF38BD227B082A18BF38BD0968626A3C
:1040F000914218BF38BD05460C2020730020607324
:10410000608304222146284600F05EF9002829D168
:1041100009E001B019A3BDE8304040F2253220A1EA
:1041200023A0FCF72DB904223221204600F0F4FB35
:10413000606A05F0A4F90146204600F06DFC2046B7
:1041400000F028FD208BF03081B2206908F004FADD
:1041500000954323214A216960680DF065FB2046E4
:1041600000F088FA607B4FF4FA71401C607342F6ED
:104170000310B0FBF1F0608338BD00002E2E5C4CC4
:104180005749505C6C7769702D312E342E315C7339
:1041900072635C636F72655C646863702E630000B9
:1041A0006E6574696620213D204E554C4C00000020
:1041B000417373657274696F6E20222573222066C5
:1041C00061696C6564206174206C696E652025648A
:1041D00020696E2025730D0A00000000D81901081F
:1041E00070B582B005003CD02C6A002C42D0616BC7
:1041F0003C48B1F1FF3F4FF001020DD01E31A0FB52
:1042000001314909B1F5803F28BF4FF6FF7109041C
:10421000090CA18308BFA283A16BB1F1FF3F0DD0B0
:104220001E31A0FB01104109B1F5803F28BF4FF6B8
:10423000FF710804000CE08308BFE283A18BE08BD0
:104240000026814202D3002818BFA683A07B002845
:1042500018BFA06A17D00090E06A0190002825D10D
:104260001EE021A34FF4697228A12FA0FCF788F863
:1042700002B070BD1CA340F2A63236A12AA0FCF702
:104280007FF802B070BD94F824107F2998BFFF20FA
:10429000E1D9C0292CBF6FF07F404FF6FF70DAE7FD
:1042A000606A0099084040F08070019004F1240198
:1042B000284607F089FB6946284607F0B9FB01A9A3
:1042C000284607F07BFB284607F0B7FB217B0A2036
:1042D0000A2904BF02B070BD20736673668302B002
:1042E00070BD0000898888882E2E5C4C5749505C30
:1042F0006C7769702D312E342E315C7372635C6380
:104300006F72655C646863702E630000646863703C
:104310005F62696E643A206E6574696620213D2093
:104320004E554C4C00000000417373657274696F08
:104330006E2022257322206661696C656420617499
:10434000206C696E6520256420696E2025730D0A36
:1043500000000000646863705F62696E643A206404
:1043600068637020213D204E554C4C00154810B517
:104370000468002C08BF10BD206A50B1C18B4A1ED2
:10438000C283012909D0206A818B4A1E82830129B8
:104390000DD02468002CEFD110BD216A2046097B86
:1043A00001291ABF0A29052900F0C2FEF1E7216A96
:1043B0002046097B01291ABF0A29052901F0C4F802
:1043C000E7E70000700000202DE9F04116460C469A
:1043D000050000F03480002C00F03C8020690028AB
:1043E00006D05AA340F27E6261A16BA0FBF7C8FF22
:1043F0006069002806D055A340F27F6271A166A0D3
:10440000FBF7BEFF00224FF49A71104607F028FB1D
:104410002061002804BF4FF0FF30BDE8F0814089E3
:10442000B0F59A7F06D249A340F286626FA15AA0E6
:10443000FBF7A6FF617B7D48002919D115E043A356
:1044400040F27C627AA154A0FBF79AFF6FF00D0056
:10445000BDE8F0813DA340F27D627DA14EA0FBF757
:104460008FFF6FF00500BDE8F0810168491C016015
:1044700000682060206901210027406860610170A8
:1044800060694170616995F8260088706069C7703D
:10449000206804F0DDFF6169082E486060690781CB
:1044A000606947816069C76018BF042E06D0032E7B
:1044B00007D1207B052818BF042802D161696868EC
:1044C000C8606069076160694761606987614FF032
:1044D000000095F82610814286BF291891F8271010
:1044E000002100F11C036269401C80B2D1541028E5
:1044F000EFD3002000F12C026169401C80B28F5480
:104500004028F7D3002000F16C026169401C80B2A2
:104510008F548028F7D361695548C1F8EC00278390
:104520000020616900F1F0028854401C80B24428E8
:10453000F7D301223521204600F0EEF9314620461E
:1045400000F034FA0020BDE8F08100002E2E5C4C13
:104550005749505C6C7769702D312E342E315C7365
:1045600072635C636F72655C646863702E630000E5
:10457000646863705F6372656174655F6D73673AE9
:1045800020646863702D3E705F6F7574203D3D2020
:104590004E554C4C00000000417373657274696F96
:1045A0006E2022257322206661696C656420617427
:1045B000206C696E6520256420696E2025730D0AC4
:1045C00000000000646863705F6372656174655F1A
:1045D0006D73673A20646863702D3E6D73675F6F1B
:1045E0007574203D3D204E554C4C0000646863704E
:1045F0005F6372656174655F6D73673A20636865B8
:10460000636B2074686174206669727374207062D1
:1046100075662063616E20686F6C642073747275B8
:10462000637420646863705F6D73670064000020CA
:10463000646863705F6372656174655F6D73673A28
:10464000206E6574696620213D204E554C4C00005B
:10465000646863705F6372656174655F6D73673A08
:10466000206468637020213D204E554C4C000000B2
:104670006382536310B5040002D0206948B10FE093
:10468000BDE8104010A340F2C96218A11FA0FBF7BB
:1046900077BE0DA340F2CA6227A11CA0FBF770FEF3
:1046A0006069002806D108A340F2CB622CA117A0B4
:1046B000FBF766FE2069002818BF07F0FFFD002009
:1046C0002061606110BD00002E2E5C4C5749505C8B
:1046D0006C7769702D312E342E315C7372635C639C
:1046E0006F72655C646863702E6300006468637059
:1046F0005F64656C6574655F6D73673A20646863B9
:104700007020213D204E554C4C00000041737365D4
:104710007274696F6E2022257322206661696C6550
:1047200064206174206C696E6520256420696E20A8
:1047300025730D0A00000000646863705F64656C97
:104740006574655F6D73673A20646863702D3E70B1
:104750005F6F757420213D204E554C4C00000000C9
:10476000646863705F64656C6574655F6D73673AF8
:1047700020646863702D3E6D73675F6F75742021D0
:104780003D204E554C4C0000F8B5046A002105460A
:104790006162227B0620062A02D020736173618346
:1047A000012221462846FFF70FFE060030D10222E3
:1047B0003921204600F0B0F8A98C204600F0A2F97B
:1047C00004223721204600F0A7F80121204600F0FE
:1047D000EDF80321204600F0E9F81C21204600F006
:1047E000E5F80621204600F0E1F8204600F0D2F975
:1047F000208BF03081B2206907F0AEFE0095432394
:10480000114A216960680DF00FF82046FFF732FF6A
:10481000607B401CC0B2607306283ABF012101FAD8
:1048200000F03C2000EB4001C1EBC0104FF6FF71DF
:1048300001EAC0004FF4FA7100F2F310B0FBF1F09E
:1048400060833046F8BD0000D81901082DE9F04119
:1048500030480568002D08BFBDE8F08100264FF400
:10486000FA7840F2E737286A00284DD0418B0129B9
:1048700084BF491E418347D146832C6A217B0C2982
:1048800018BF06290AD001290CD0082918D00529FB
:1048900029D004292BD0032930D035E02846FFF752
:1048A00073FF31E0607B052803D8284600F092FEB4
:1048B0002AE0284600F0F4FD2846FFF765FF23E0D4
:1048C000607B012828460BD8002204F1240102F065
:1048D000B7FA607B401C6073B7FBF8F0608313E0AD
:1048E000FFF77EFC10E0284600F02EFE0CE0607B17
:1048F0000828DED8284600F01BFC05E0607B022873
:10490000CCD2284600F05AFC2D68002DABD1BDE872
:10491000F08100007000002070B504461546008B41
:10492000921C10440E46442806D90BA340F2F642CE
:10493000124913A0FBF724FD208B61690144401C40
:10494000208381F8F060208B61690144401C208342
:1049500081F8F05070BD00002E2E5C4C5749505C21
:104960006C7769702D312E342E315C7372635C6309
:104970006F72655C646863702E6300006C1E0108D2
:10498000417373657274696F6E20222573222066ED
:1049900061696C6564206174206C696E65202564B2
:1049A00020696E2025730D0A0000000070B50446D2
:1049B000008B0D46442807D3074B40F2015207A154
:1049C00003F13800FBF7DCFC208B61690144401CDB
:1049D000208381F8F05070BDB0580008646863709F
:1049E0005F6F7074696F6E5F627974653A20646896
:1049F00063702D3E6F7074696F6E735F6F75745F57
:104A00006C656E203C20444843505F4F5054494FE2
:104A10004E535F4C454E000070B50446008B0D466A
:104A2000001D442806D913A34FF4A2621AA12AA09C
:104A3000FBF7A6FC208B6269290E0244401C2083F0
:104A400082F8F010208B6269290C0244401C2083FC
:104A500082F8F010208B6269290A0244401C2083EE
:104A600082F8F010208B61690144401C208381F89A
:104A7000F05070BD2E2E5C4C5749505C6C776970BD
:104A80002D312E342E315C7372635C636F72655C02
:104A9000646863702E630000646863705F6F707495
:104AA000696F6E5F6C6F6E673A20646863702D3E4D
:104AB0006F7074696F6E735F6F75745F6C656E2075
:104AC0002B2034203C3D20444843505F4F505449F4
:104AD0004F4E535F4C454E00417373657274696F5E
:104AE0006E2022257322206661696C6564206174E2
:104AF000206C696E6520256420696E2025730D0A7F
:104B00000000000070B50446008B0D46801C442850
:104B100006D90BA34FF4A162124913A0FBF730FC96
:104B2000208B6269290A0244401C208382F8F0101D
:104B3000208B61690144401C208381F8F05070BDD6
:104B40002E2E5C4C5749505C6C7769702D312E3499
:104B50002E315C7372635C636F72655C6468637052
:104B60002E630000281E0108417373657274696F1B
:104B70006E2022257322206661696C656420617451
:104B8000206C696E6520256420696E2025730D0AEE
:104B90000000000010B5040003D06069002809D0AF
:104BA0000FE0BDE8104016A340F2DE621DA126A072
:104BB000FBF7E6BB12A340F2DF622EA122A0FBF7B7
:104BC000DFFB208B442806D30DA34FF4DC6234A115
:104BD0001DA0FBF7D5FB208B6269FF210244401C1E
:104BE000208382F8F010002105E062690244401C35
:104BF000208382F8F010208B4428F6D310BD0000EB
:104C00002E2E5C4C5749505C6C7769702D312E34D8
:104C10002E315C7372635C636F72655C6468637091
:104C20002E630000646863705F6F7074696F6E5FFD
:104C3000747261696C65723A206468637020213D0A
:104C4000204E554C4C000000417373657274696FBF
:104C50006E2022257322206661696C656420617470
:104C6000206C696E6520256420696E2025730D0A0D
:104C700000000000646863705F6F7074696F6E5F3E
:104C8000747261696C65723A20646863702D3E6D60
:104C900073675F6F757420213D204E554C4C0A00A0
:104CA000646863705F6F7074696F6E5F747261695E
:104CB0006C65723A20646863702D3E6F7074696F22
:104CC0006E735F6F75745F6C656E203C2044484363
:104CD000505F4F5054494F4E535F4C454E0A0000B1
:104CE0002DE9F34F83B004460020DFF860B3029053
:104CF00001905846FFF757F8049840892C2817D39D
:104D00000498F0264068A0600498B0F80880049FDA
:104D100006E0311AA8EB00003F688EB21FFA80F857
:104D200037B17889B042F4D9D7F804A000F05FB960
:104D300005B06FF00100BDE8F08FB01C1FFA80F9DC
:104D40007889721C4FF0FF3482423CBF0AEB0600A8
:104D5000407804D3386800281CBF406800780546B6
:104D6000342900F08D800DDC032946D004DC0029B5
:104D70002ED0012931D011E006294FD0332900F07F
:104D80006F800BE0352900F08B80362900F0998088
:104D90003A2900F0A7803B2900F0B5800025304477
:104DA000801C86B2002D1CBF0020009000F0058101
:104DB0000A2C06D3A6A340F2AD52AEA1B2A0FBF7D7
:104DC000DFFA1BF80400002800F0AE8000F0F5B810
:104DD0000020711E05468EB2E1E7042808BF0624B4
:104DE000DDD09BA340F27B52B2A1A7A0FBF7C8FA8B
:104DF00005B06FF00500BDE8F08F0425042828BF3A
:104E00000724CCD292A34FF4B062ADA19EA0FBF7D1
:104E1000B7FA05B06FF00500BDE8F08F10F0030F92
:104E20000BD08BA340F28552AAA197A0FBF7A8FA5A
:104E300005B06FF00500BDE8F08F082828BF0825F1
:104E4000A84228BF0824AAD281A34FF4B1629CA132
:104E50008DA0FBF795FA05B06FF00500BDE8F08F67
:104E6000042808BF03249AD079A340F28C5291A160
:104E700085A0FBF785FA05B06FF00500BDE8F08F5F
:104E8000012808BF00248AD071A34FF4B26295A113
:104E90007DA0FBF775FA05B06FF00500BDE8F08F57
:104EA000012808BF01243FF47AAF69A340F294526D
:104EB0008CA175A0FBF764FA05B06FF00500BDE8A2
:104EC000F08F042808BF02243FF469AF60A34FF4B9
:104ED000B36278A16CA0FBF753FA05B06FF0050040
:104EE000BDE8F08F042808BF04243FF458AF58A34E
:104EF00040F29C526FA164A0FBF742FA05B06FF03C
:104F00000500BDE8F08F042808BF05243FF447AF33
:104F10004FA34FF4B46267A15BA0FBF731FA05B071
:104F20006FF00500BDE8F08F042D34BF2A4604223F
:104F30004B466946384607F02FF9042D1FD915F066
:104F4000030F0BD042A340F2B35269A14EA0FBF76E
:104F500017FA05B06FF00500BDE8F08F01200BF8DF
:104F60000400009804F074FA664941F82400281FF0
:104F7000C5B209F104001FFA80F9641C18E7042D7A
:104F800010D0012D08BF9DF800000ED030A340F2D4
:104F9000BD525DA13CA0FBF7F3F905B06FF0050031
:104FA000BDE8F08F009804F06AFA009001200BF839
:104FB00004005448009940F824107889B04215D86C
:104FC000311AA8EB00008EB21FFA80F8464515D2C0
:104FD000B8F1000F12D03F6837B91DA340F2C95293
:104FE0004EA129A0FBF7CCF9D7F804A037B11AF8E5
:104FF0000610FF2918BF4645FFF49FAE9BF800003E
:1050000080B14048002100688BF8001001280BD0C7
:10501000022804BF0120019004D0032804BF01200E
:10502000019001D0029828B100206C264FF0EC08C6
:1050300002906CE60198002804BF05B0BDE8F08F2F
:1050400000202C264FF06C08019060E6F010002044
:105050002E2E5C4C5749505C6C7769702D312E3484
:105060002E315C7372635C636F72655C646863703D
:105070002E630000636865636B206465636F64651D
:105080005F69647800000000417373657274696F32
:105090006E2022257322206661696C65642061742C
:1050A000206C696E6520256420696E2025730D0AC9
:1050B000000000006C656E203D3D203400000000C3
:1050C0006C656E203E3D206465636F64655F6C6552
:1050D0006E0000006C656E20252034203D3D2030A0
:1050E000000000006C656E203D3D20310000000096
:1050F0006465636F64655F6C656E20252034203DB8
:105100003D203000C8100020696E76616C69642013
:105110006465636F64655F6C656E00006E657874CE
:10512000207062756620776173206E756C6C00006C
:10513000F8B5046A05460420217B042903D02073B6
:10514000002060736083032221462846FFF73CF964
:1051500006001BD1022239212046FFF7DDFBA98C76
:105160002046FFF7CFFC2046FFF714FD208BF030E0
:1051700081B2206907F0F0F9009543230E4A2169B6
:1051800060680CF051FB2046FFF774FA607B401C0E
:10519000C0B260730A283ABF4FF47A7110FB01F075
:1051A00042F2107080B24FF4FA7100F2F310B0FBCB
:1051B000F1F060833046F8BDD8190108F8B5046AEB
:1051C00005460320217B032903D020730020607350
:1051D0006083032221462846FFF7F6F8060028D10F
:1051E000022239212046FFF797FB4FF41071204629
:1051F000FFF788FC042232212046FFF78DFB606A0E
:1052000004F03DF901462046FFF706FC2046FFF773
:10521000C1FC208BF03081B2206907F09DF9009528
:1052200043230F4A216960680CF0FEFA2046FFF71D
:1052300021FA607B401CC0B260730A283ABF4FF469
:105240007A7110FB01F042F2107080B24FF4FA71E3
:1052500000F2F310B0FBF1F060833046F8BD0000BF
:10526000D81901082DE9F047066A05465468B06868
:10527000174630B16FA340F2116277A17BA0FBF714
:105280007FF878894FF000082C2824BF2078022866
:1052900040F0C98095F826104FF0000000290BD986
:1052A0002A18231892F827201B7F9A4240F0BB80CF
:1052B000401CC0B28142F3D8606804F0E0F8316865
:1052C000884272D139463046FFF70AFD00286CD17A
:1052D000DFF8C4A19AF80100002866D0AAF12809D5
:1052E00099F80400052807D0062863D0022804BFD7
:1052F000307B06287DD096E0307B012805D003283E
:105300001CBF0428052851D08DE02C6AC4F82880E1
:10531000C4F82C809AF8030000281CBFD9F80C00B0
:1053200020639AF80400002812BFD9F81000206BFF
:10533000400860639AF80500002814BFD9F81400EB
:10534000206BA063A068006960629AF806000028DC
:1053500008BF84F80E8006D0D9F8180004F078F859
:10536000A0620120A0739AF8070020B1D9F81C00B0
:1053700004F06EF8E0622C6A08212846227B082A95
:1053800004D0217384F80D80A4F81A80002204F15F
:10539000240101F055FD607B4FF4FA71401C6073ED
:1053A00040F2E730B0FBF1F060833CE02846FEF7C6
:1053B00017FF38E0307B032818BF012803D00428EA
:1053C00018BF05282FD128462C6A06F0E7FA334982
:1053D000284606F0F9FA3149284606F0EFFA2F4937
:1053E000284606F025FB217B0C200C2906D02073D3
:1053F00000E007E084F80D80A4F81A802846FFF743
:10540000C3F910E0A6F81A809AF802002C6A50B18D
:10541000D9F8080004F01CF82062A06800696062F6
:10542000284600F0D7F83846C6F80880BDE8F047AF
:1054300006F044BF2E2E5C4C5749505C6C77697067
:105440002D312E342E315C7372635C636F72655C38
:10545000646863702E6300007265706C79207761F8
:10546000736E27742066726565640000417373650E
:105470007274696F6E2022257322206661696C65E3
:1054800064206174206C696E6520256420696E203B
:1054900025730D0A00000000F0100020D419010847
:1054A000F8B5046A05460021227B084612B1217333
:1054B0006073608320626062A062E062A0636063E8
:1054C0002063072221462846FEF77EFF060013D1FF
:1054D0002046FFF75FFB208BF03081B2206907F098
:1054E0003BF80095432304F12002216960680CF029
:1054F0009BF92046FFF7BEF8607B401CC0B260738A
:105500000A283ABF4FF47A7110FB01F042F2107092
:1055100080B24FF4FA7100F2F310B0FBF1F0608347
:10552000284606F03BFA0749284606F04DFA054999
:10553000284606F043FA0349284606F079FA304631
:10554000F8BD0000D4190108F8B5046A0546052025
:10555000217B052903D02073002060736083032220
:1055600021462846FEF730FF06001CD102223921D1
:105570002046FFF7D1F9A98C2046FFF7C3FA204651
:10558000FFF708FB208BF03081B2206906F0E4FFC2
:105590000095432304F12002216960680CF044F96E
:1055A0002046FFF767F8607B401CC0B260730A2892
:1055B0003ABF4FF4FA6110FB01F044F6206080B26C
:1055C0004FF4FA7100F2F310B0FBF1F06083304653
:1055D000F8BD0000F8B5046A05460120217B0129C9
:1055E00003D0207300206073608303222146284685
:1055F000FEF7EAFE060048D1022239212046FFF7D5
:105600008BF9A98C2046FFF77DFA0422322120462F
:10561000FFF782F9606A03F032FF01462046FFF788
:10562000FBF9042236212046FFF776F9206A03F0C1
:1056300026FF01462046FFF7EFF9042237212046D6
:10564000FFF76AF901212046FFF7B0F90321204650
:10565000FFF7ACF91C212046FFF7A8F906212046E8
:10566000FFF7A4F92046FFF795FA208BF03081B2BE
:10567000206906F071FF00954323114A2169606893
:105680000CF0D2F82046FEF7F5FF607B401CC0B25C
:10569000607306283ABF012101FA00F03C2000EBBC
:1056A0004001C1EBC0104FF6FF7101EAC0004FF49A
:1056B000FA7100F2F310B0FBF1F060833046F8BDF0
:1056C000D819010870B505005ED095F82D002C6A38
:1056D00020F0080085F82D0010F0200F04BF6FF0B7
:1056E0000D0070BDA88CB0F5107FC0F05E80002C5E
:1056F00000F054806068002818BF0CF051F8206951
:1057000030B12FA340F29E2236A13CA0FAF738FE1A
:10571000A06830B12AA340F29F2243A137A0FAF734
:105720002FFE002020606060A060E060206160616A
:10573000A061E06120626062A062E0622063606359
:10574000A0630CF017F8606000282ED0017A442284
:1057500041F020010172394960680BF03DFE43229F
:10576000364960680BF0C8FE2A46354960680CF07F
:1057700014F82846FFF708F8002819D0284600F04A
:1057800069F84FF0FF3070BD0DA340F27A222DA1D1
:105790001AA0FAF7F5FD6FF00D0070BD3C2004F083
:1057A00005FD040018BF2C62BBD14FF0FF3070BD67
:1057B00095F82D1041F0080185F82D1070BD0000FE
:1057C0002E2E5C4C5749505C6C7769702D312E340D
:1057D0002E315C7372635C636F72655C64686370C6
:1057E0002E6300007062756620705F6F757420779D
:1057F00061736E277420667265656400417373651A
:105800007274696F6E2022257322206661696C654F
:1058100064206174206C696E6520256420696E20A7
:1058200025730D0A000000007265706C79207761A5
:10583000736E27742066726565640000D4190108D0
:10584000655200086E6574696620213D204E554CF6
:105850004C00000070B5002821D090F82D10046A8B
:1058600021F0080180F82D10002C08BF70BD002524
:10587000606810B10BF094FF6560A06830B10CA3B4
:1058800040F2DA4213A118A0FAF77AFD217B00203A
:10589000002908BF70BD20736573658370BDBDE8C6
:1058A000704003A340F2C7421AA10FA0FAF768BDE7
:1058B0002E2E5C4C5749505C6C7769702D312E341C
:1058C0002E315C7372635C636F72655C64686370D5
:1058D0002E6300007265706C79207761736E277497
:1058E0002066726565640000417373657274696F48
:1058F0006E2022257322206661696C6564206174C4
:10590000206C696E6520256420696E2025730D0A60
:1059100000000000646863705F73746F703A206EFB
:105920006574696620213D204E554C4C00000000F6
:1059300010B5FEF71BFDBDE81040002202494EF6EF
:10594000602007F0D3BD00003159000810B5FEF704
:105950007DFFBDE81040002202494FF4FA7007F0C5
:10596000C5BD00004D59000882B000268DF80460C6
:105970008DF800601021304604F060FF1C4D1D4F73
:105980006861A87801282DD1AE700024694601A86D
:10599000FBF7F2F888B1601CC4B20A2C03D916A038
:1059A000FAF7EEFC09E04FF4FA70FEF73DFB6946AA
:1059B00001A8FBF7E1F80028EDD19DF800309DF833
:1059C000042012A16869FAF7E7FC6869FAF7BEFDDE
:1059D00002466969386804F05BF90028DCBF0DA055
:1059E000FAF7CEFC4FF47A70FEF71EFBC9E7000011
:1059F000000000203400002044485431312052651A
:105A00006164204661696C65640D0A002564202587
:105A1000640D0A00536F636B6574204572726F7278
:105A20003A204E6F20646174612073656E740D0AB4
:105A3000000000002DE9F041040006D156A34FF408
:105A40003C725FA162A0FAF79BFC2078102806D078
:105A500051A340F2F12269A15DA0FAF791FC6078B0
:105A6000042806D04CA340F2F2226CA158A0FAF709
:105A700087FC606830B948A340F2F32270A154A0BB
:105A8000FAF77EFCA06A30B943A34FF43D7271A1CE
:105A90004FA0FAF775FCA06A007A00F0010700F049
:105AA000020603280CBF012500251DB100216068F6
:105AB00007F020FF6068017E01291AD037B100216C
:105AC0000AF0B0F80021606807F08BFE1EB10021DB
:105AD00060680AF0D5FA8DB104220021606809F0EF
